{
	"contracts/FYJ_STAKINGPOOL.sol": {
		"LPTokenPool": {
			"abi": [
				{
					"inputs": [
						{
							"internalType": "address",
							"name": "token_",
							"type": "address"
						},
						{
							"internalType": "address",
							"name": "lptoken_",
							"type": "address"
						},
						{
							"internalType": "uint256",
							"name": "starttime_",
							"type": "uint256"
						}
					],
					"stateMutability": "nonpayable",
					"type": "constructor"
				},
				{
					"anonymous": false,
					"inputs": [
						{
							"indexed": true,
							"internalType": "address",
							"name": "previousOwner",
							"type": "address"
						},
						{
							"indexed": true,
							"internalType": "address",
							"name": "newOwner",
							"type": "address"
						}
					],
					"name": "OwnershipTransferred",
					"type": "event"
				},
				{
					"anonymous": false,
					"inputs": [
						{
							"indexed": false,
							"internalType": "uint256",
							"name": "reward",
							"type": "uint256"
						}
					],
					"name": "RewardAdded",
					"type": "event"
				},
				{
					"anonymous": false,
					"inputs": [
						{
							"indexed": true,
							"internalType": "address",
							"name": "user",
							"type": "address"
						},
						{
							"indexed": false,
							"internalType": "uint256",
							"name": "reward",
							"type": "uint256"
						}
					],
					"name": "RewardPaid",
					"type": "event"
				},
				{
					"anonymous": false,
					"inputs": [
						{
							"indexed": true,
							"internalType": "address",
							"name": "user",
							"type": "address"
						},
						{
							"indexed": false,
							"internalType": "uint256",
							"name": "amount",
							"type": "uint256"
						}
					],
					"name": "Staked",
					"type": "event"
				},
				{
					"anonymous": false,
					"inputs": [
						{
							"indexed": true,
							"internalType": "address",
							"name": "user",
							"type": "address"
						},
						{
							"indexed": false,
							"internalType": "uint256",
							"name": "amount",
							"type": "uint256"
						}
					],
					"name": "Withdrawn",
					"type": "event"
				},
				{
					"inputs": [],
					"name": "DURATION",
					"outputs": [
						{
							"internalType": "uint256",
							"name": "",
							"type": "uint256"
						}
					],
					"stateMutability": "view",
					"type": "function"
				},
				{
					"inputs": [
						{
							"internalType": "address",
							"name": "account",
							"type": "address"
						}
					],
					"name": "balanceOf",
					"outputs": [
						{
							"internalType": "uint256",
							"name": "",
							"type": "uint256"
						}
					],
					"stateMutability": "view",
					"type": "function"
				},
				{
					"inputs": [
						{
							"internalType": "address",
							"name": "account",
							"type": "address"
						}
					],
					"name": "earned",
					"outputs": [
						{
							"internalType": "uint256",
							"name": "",
							"type": "uint256"
						}
					],
					"stateMutability": "view",
					"type": "function"
				},
				{
					"inputs": [],
					"name": "exit",
					"outputs": [],
					"stateMutability": "nonpayable",
					"type": "function"
				},
				{
					"inputs": [],
					"name": "getReward",
					"outputs": [],
					"stateMutability": "nonpayable",
					"type": "function"
				},
				{
					"inputs": [],
					"name": "lastTimeRewardApplicable",
					"outputs": [
						{
							"internalType": "uint256",
							"name": "",
							"type": "uint256"
						}
					],
					"stateMutability": "view",
					"type": "function"
				},
				{
					"inputs": [],
					"name": "lastUpdateTime",
					"outputs": [
						{
							"internalType": "uint256",
							"name": "",
							"type": "uint256"
						}
					],
					"stateMutability": "view",
					"type": "function"
				},
				{
					"inputs": [],
					"name": "lpt",
					"outputs": [
						{
							"internalType": "contract IERC20",
							"name": "",
							"type": "address"
						}
					],
					"stateMutability": "view",
					"type": "function"
				},
				{
					"inputs": [
						{
							"internalType": "uint256",
							"name": "reward",
							"type": "uint256"
						}
					],
					"name": "notifyRewardAmount",
					"outputs": [],
					"stateMutability": "nonpayable",
					"type": "function"
				},
				{
					"inputs": [],
					"name": "owner",
					"outputs": [
						{
							"internalType": "address",
							"name": "",
							"type": "address"
						}
					],
					"stateMutability": "view",
					"type": "function"
				},
				{
					"inputs": [],
					"name": "periodFinish",
					"outputs": [
						{
							"internalType": "uint256",
							"name": "",
							"type": "uint256"
						}
					],
					"stateMutability": "view",
					"type": "function"
				},
				{
					"inputs": [],
					"name": "renounceOwnership",
					"outputs": [],
					"stateMutability": "nonpayable",
					"type": "function"
				},
				{
					"inputs": [],
					"name": "rewardDistribution",
					"outputs": [
						{
							"internalType": "address",
							"name": "",
							"type": "address"
						}
					],
					"stateMutability": "view",
					"type": "function"
				},
				{
					"inputs": [],
					"name": "rewardPerToken",
					"outputs": [
						{
							"internalType": "uint256",
							"name": "",
							"type": "uint256"
						}
					],
					"stateMutability": "view",
					"type": "function"
				},
				{
					"inputs": [],
					"name": "rewardPerTokenStored",
					"outputs": [
						{
							"internalType": "uint256",
							"name": "",
							"type": "uint256"
						}
					],
					"stateMutability": "view",
					"type": "function"
				},
				{
					"inputs": [],
					"name": "rewardRate",
					"outputs": [
						{
							"internalType": "uint256",
							"name": "",
							"type": "uint256"
						}
					],
					"stateMutability": "view",
					"type": "function"
				},
				{
					"inputs": [
						{
							"internalType": "address",
							"name": "",
							"type": "address"
						}
					],
					"name": "rewards",
					"outputs": [
						{
							"internalType": "uint256",
							"name": "",
							"type": "uint256"
						}
					],
					"stateMutability": "view",
					"type": "function"
				},
				{
					"inputs": [
						{
							"internalType": "address",
							"name": "_rewardDistribution",
							"type": "address"
						}
					],
					"name": "setRewardDistribution",
					"outputs": [],
					"stateMutability": "nonpayable",
					"type": "function"
				},
				{
					"inputs": [
						{
							"internalType": "uint256",
							"name": "amount",
							"type": "uint256"
						}
					],
					"name": "stake",
					"outputs": [],
					"stateMutability": "nonpayable",
					"type": "function"
				},
				{
					"inputs": [],
					"name": "starttime",
					"outputs": [
						{
							"internalType": "uint256",
							"name": "",
							"type": "uint256"
						}
					],
					"stateMutability": "view",
					"type": "function"
				},
				{
					"inputs": [],
					"name": "token",
					"outputs": [
						{
							"internalType": "contract IERC20",
							"name": "",
							"type": "address"
						}
					],
					"stateMutability": "view",
					"type": "function"
				},
				{
					"inputs": [],
					"name": "totalSupply",
					"outputs": [
						{
							"internalType": "uint256",
							"name": "",
							"type": "uint256"
						}
					],
					"stateMutability": "view",
					"type": "function"
				},
				{
					"inputs": [
						{
							"internalType": "address",
							"name": "newOwner",
							"type": "address"
						}
					],
					"name": "transferOwnership",
					"outputs": [],
					"stateMutability": "nonpayable",
					"type": "function"
				},
				{
					"inputs": [
						{
							"internalType": "address",
							"name": "",
							"type": "address"
						}
					],
					"name": "userRewardPerTokenPaid",
					"outputs": [
						{
							"internalType": "uint256",
							"name": "",
							"type": "uint256"
						}
					],
					"stateMutability": "view",
					"type": "function"
				},
				{
					"inputs": [
						{
							"internalType": "uint256",
							"name": "amount",
							"type": "uint256"
						}
					],
					"name": "withdraw",
					"outputs": [],
					"stateMutability": "nonpayable",
					"type": "function"
				}
			],
			"devdoc": {
				"kind": "dev",
				"methods": {
					"balanceOf(address)": {
						"details": "返回账户余额",
						"params": {
							"account": "账户地址"
						},
						"returns": {
							"_0": "余额"
						}
					},
					"constructor": {
						"details": "构造函数",
						"params": {
							"lptoken_": "LPtoken地址",
							"starttime_": "开始时间",
							"token_": "token地址"
						}
					},
					"earned(address)": {
						"details": "用户已奖励的数量",
						"params": {
							"account": "用户地址"
						}
					},
					"exit()": {
						"details": "退出"
					},
					"getReward()": {
						"details": "获取奖励"
					},
					"lastTimeRewardApplicable()": {
						"details": "返回奖励的最后期限",
						"returns": {
							"_0": "最后期限"
						}
					},
					"notifyRewardAmount(uint256)": {
						"details": "通知奖励数量",
						"params": {
							"reward": "奖励数量"
						}
					},
					"owner()": {
						"details": "Returns the address of the current owner."
					},
					"renounceOwnership()": {
						"details": "Leaves the contract without owner. It will not be possible to call `onlyOwner` functions anymore. Can only be called by the current owner. NOTE: Renouncing ownership will leave the contract without an owner, thereby removing any functionality that is only available to the owner."
					},
					"rewardPerToken()": {
						"details": "每个质押Token的奖励",
						"returns": {
							"_0": "奖励数量"
						}
					},
					"stake(uint256)": {
						"details": "质押指定数量的token",
						"params": {
							"amount": "质押数量"
						}
					},
					"totalSupply()": {
						"details": "返回总量",
						"returns": {
							"_0": "总量"
						}
					},
					"transferOwnership(address)": {
						"details": "Transfers ownership of the contract to a new account (`newOwner`). Can only be called by the current owner."
					},
					"withdraw(uint256)": {
						"details": "提款指定数额的质押token",
						"params": {
							"amount": "质押数量"
						}
					}
				},
				"title": "LP Token矿池合约",
				"version": 1
			},
			"evm": {
				"assembly": "    /* \"contracts/FYJ_STAKINGPOOL.sol\":24073:31244  contract LPTokenPool is LPTokenWrapper, IRewardDistributionRecipient {\r... */\n  mstore(0x40, 0x80)\n    /* \"contracts/FYJ_STAKINGPOOL.sol\":24240:24248  180 days */\n  0xed4e00\n    /* \"contracts/FYJ_STAKINGPOOL.sol\":24214:24248  uint256 public DURATION = 180 days */\n  0x06\n  sstore\n    /* \"contracts/FYJ_STAKINGPOOL.sol\":24393:24394  0 */\n  0x00\n    /* \"contracts/FYJ_STAKINGPOOL.sol\":24363:24394  uint256 public periodFinish = 0 */\n  0x08\n  sstore\n    /* \"contracts/FYJ_STAKINGPOOL.sol\":24465:24466  0 */\n  0x00\n    /* \"contracts/FYJ_STAKINGPOOL.sol\":24437:24466  uint256 public rewardRate = 0 */\n  0x09\n  sstore\n    /* \"contracts/FYJ_STAKINGPOOL.sol\":25217:25397  constructor(address token_, address lptoken_, uint256 starttime_) public {\r... */\n  callvalue\n  dup1\n  iszero\n  tag_1\n  jumpi\n  0x00\n  dup1\n  revert\ntag_1:\n  pop\n  mload(0x40)\n  sub(codesize, bytecodeSize)\n  dup1\n  bytecodeSize\n  dup4\n  codecopy\n  dup2\n  dup2\n  add\n  0x40\n  mstore\n  0x60\n  dup2\n  lt\n  iszero\n  tag_2\n  jumpi\n  0x00\n  dup1\n  revert\ntag_2:\n  dup2\n  add\n  swap1\n  dup1\n  dup1\n  mload\n  swap1\n  0x20\n  add\n  swap1\n  swap3\n  swap2\n  swap1\n  dup1\n  mload\n  swap1\n  0x20\n  add\n  swap1\n  swap3\n  swap2\n  swap1\n  dup1\n  mload\n  swap1\n  0x20\n  add\n  swap1\n  swap3\n  swap2\n  swap1\n  pop\n  pop\n  pop\n    /* \"contracts/FYJ_STAKINGPOOL.sol\":14697:14714  address msgSender */\n  0x00\n    /* \"contracts/FYJ_STAKINGPOOL.sol\":14717:14729  _msgSender() */\n  tag_6\n    /* \"contracts/FYJ_STAKINGPOOL.sol\":14717:14727  _msgSender */\n  shl(0x20, tag_7)\n    /* \"contracts/FYJ_STAKINGPOOL.sol\":14717:14729  _msgSender() */\n  0x20\n  shr\n  jump\t// in\ntag_6:\n    /* \"contracts/FYJ_STAKINGPOOL.sol\":14697:14729  address msgSender = _msgSender() */\n  swap1\n  pop\n    /* \"contracts/FYJ_STAKINGPOOL.sol\":14749:14758  msgSender */\n  dup1\n    /* \"contracts/FYJ_STAKINGPOOL.sol\":14740:14746  _owner */\n  0x03\n  0x00\n    /* \"contracts/FYJ_STAKINGPOOL.sol\":14740:14758  _owner = msgSender */\n  0x0100\n  exp\n  dup2\n  sload\n  dup2\n  0xffffffffffffffffffffffffffffffffffffffff\n  mul\n  not\n  and\n  swap1\n  dup4\n  0xffffffffffffffffffffffffffffffffffffffff\n  and\n  mul\n  or\n  swap1\n  sstore\n  pop\n    /* \"contracts/FYJ_STAKINGPOOL.sol\":14807:14816  msgSender */\n  dup1\n    /* \"contracts/FYJ_STAKINGPOOL.sol\":14774:14817  OwnershipTransferred(address(0), msgSender) */\n  0xffffffffffffffffffffffffffffffffffffffff\n  and\n    /* \"contracts/FYJ_STAKINGPOOL.sol\":14803:14804  0 */\n  0x00\n    /* \"contracts/FYJ_STAKINGPOOL.sol\":14774:14817  OwnershipTransferred(address(0), msgSender) */\n  0xffffffffffffffffffffffffffffffffffffffff\n  and\n  0x8be0079c531659141344cd1fd0a4f28419497f9722a3daafe3b4186f6b6457e0\n  mload(0x40)\n  mload(0x40)\n  dup1\n  swap2\n  sub\n  swap1\n  log3\n    /* \"contracts/FYJ_STAKINGPOOL.sol\":14662:14825  constructor () internal {\r... */\n  pop\n    /* \"contracts/FYJ_STAKINGPOOL.sol\":25316:25322  token_ */\n  dup3\n    /* \"contracts/FYJ_STAKINGPOOL.sol\":25301:25306  token */\n  0x05\n  0x00\n    /* \"contracts/FYJ_STAKINGPOOL.sol\":25301:25323  token = IERC20(token_) */\n  0x0100\n  exp\n  dup2\n  sload\n  dup2\n  0xffffffffffffffffffffffffffffffffffffffff\n  mul\n  not\n  and\n  swap1\n  dup4\n  0xffffffffffffffffffffffffffffffffffffffff\n  and\n  mul\n  or\n  swap1\n  sstore\n  pop\n    /* \"contracts/FYJ_STAKINGPOOL.sol\":25347:25355  lptoken_ */\n  dup2\n    /* \"contracts/FYJ_STAKINGPOOL.sol\":25334:25337  lpt */\n  0x00\n  dup1\n    /* \"contracts/FYJ_STAKINGPOOL.sol\":25334:25356  lpt = IERC20(lptoken_) */\n  0x0100\n  exp\n  dup2\n  sload\n  dup2\n  0xffffffffffffffffffffffffffffffffffffffff\n  mul\n  not\n  and\n  swap1\n  dup4\n  0xffffffffffffffffffffffffffffffffffffffff\n  and\n  mul\n  or\n  swap1\n  sstore\n  pop\n    /* \"contracts/FYJ_STAKINGPOOL.sol\":25379:25389  starttime_ */\n  dup1\n    /* \"contracts/FYJ_STAKINGPOOL.sol\":25367:25376  starttime */\n  0x07\n    /* \"contracts/FYJ_STAKINGPOOL.sol\":25367:25389  starttime = starttime_ */\n  dup2\n  swap1\n  sstore\n  pop\n    /* \"contracts/FYJ_STAKINGPOOL.sol\":25217:25397  constructor(address token_, address lptoken_, uint256 starttime_) public {\r... */\n  pop\n  pop\n  pop\n    /* \"contracts/FYJ_STAKINGPOOL.sol\":24073:31244  contract LPTokenPool is LPTokenWrapper, IRewardDistributionRecipient {\r... */\n  jump(tag_9)\n    /* \"contracts/FYJ_STAKINGPOOL.sol\":14051:14157  function _msgSender() internal view virtual returns (address payable) {\r... */\ntag_7:\n    /* \"contracts/FYJ_STAKINGPOOL.sol\":14104:14119  address payable */\n  0x00\n    /* \"contracts/FYJ_STAKINGPOOL.sol\":14139:14149  msg.sender */\n  caller\n    /* \"contracts/FYJ_STAKINGPOOL.sol\":14132:14149  return msg.sender */\n  swap1\n  pop\n    /* \"contracts/FYJ_STAKINGPOOL.sol\":14051:14157  function _msgSender() internal view virtual returns (address payable) {\r... */\n  swap1\n  jump\t// out\n    /* \"contracts/FYJ_STAKINGPOOL.sol\":24073:31244  contract LPTokenPool is LPTokenWrapper, IRewardDistributionRecipient {\r... */\ntag_9:\n  dataSize(sub_0)\n  dup1\n  dataOffset(sub_0)\n  0x00\n  codecopy\n  0x00\n  return\nstop\n\nsub_0: assembly {\n        /* \"contracts/FYJ_STAKINGPOOL.sol\":24073:31244  contract LPTokenPool is LPTokenWrapper, IRewardDistributionRecipient {\r... */\n      mstore(0x40, 0x80)\n      callvalue\n      dup1\n      iszero\n      tag_1\n      jumpi\n      0x00\n      dup1\n      revert\n    tag_1:\n      pop\n      jumpi(tag_2, lt(calldatasize, 0x04))\n      shr(0xe0, calldataload(0x00))\n      dup1\n      0x80faa57d\n      gt\n      tag_28\n      jumpi\n      dup1\n      0xcd3daf9d\n      gt\n      tag_29\n      jumpi\n      dup1\n      0xe9fad8ee\n      gt\n      tag_30\n      jumpi\n      dup1\n      0xe9fad8ee\n      eq\n      tag_24\n      jumpi\n      dup1\n      0xebe2b12b\n      eq\n      tag_25\n      jumpi\n      dup1\n      0xf2fde38b\n      eq\n      tag_26\n      jumpi\n      dup1\n      0xfc0c546a\n      eq\n      tag_27\n      jumpi\n      jump(tag_2)\n    tag_30:\n      dup1\n      0xcd3daf9d\n      eq\n      tag_21\n      jumpi\n      dup1\n      0xce5fc8d0\n      eq\n      tag_22\n      jumpi\n      dup1\n      0xdf136d65\n      eq\n      tag_23\n      jumpi\n      jump(tag_2)\n    tag_29:\n      dup1\n      0x80faa57d\n      eq\n      tag_15\n      jumpi\n      dup1\n      0x8b876347\n      eq\n      tag_16\n      jumpi\n      dup1\n      0x8da58897\n      eq\n      tag_17\n      jumpi\n      dup1\n      0x8da5cb5b\n      eq\n      tag_18\n      jumpi\n      dup1\n      0xa694fc3a\n      eq\n      tag_19\n      jumpi\n      dup1\n      0xc8f33c91\n      eq\n      tag_20\n      jumpi\n      jump(tag_2)\n    tag_28:\n      dup1\n      0x2e1a7d4d\n      gt\n      tag_31\n      jumpi\n      dup1\n      0x2e1a7d4d\n      eq\n      tag_9\n      jumpi\n      dup1\n      0x3c6b16ab\n      eq\n      tag_10\n      jumpi\n      dup1\n      0x3d18b912\n      eq\n      tag_11\n      jumpi\n      dup1\n      0x70a08231\n      eq\n      tag_12\n      jumpi\n      dup1\n      0x715018a6\n      eq\n      tag_13\n      jumpi\n      dup1\n      0x7b0a47ee\n      eq\n      tag_14\n      jumpi\n      jump(tag_2)\n    tag_31:\n      dup1\n      0x8cc262\n      eq\n      tag_3\n      jumpi\n      dup1\n      0x0700037d\n      eq\n      tag_4\n      jumpi\n      dup1\n      0x0d68b761\n      eq\n      tag_5\n      jumpi\n      dup1\n      0x101114cf\n      eq\n      tag_6\n      jumpi\n      dup1\n      0x18160ddd\n      eq\n      tag_7\n      jumpi\n      dup1\n      0x1be05289\n      eq\n      tag_8\n      jumpi\n    tag_2:\n      0x00\n      dup1\n      revert\n        /* \"contracts/FYJ_STAKINGPOOL.sol\":27394:27805  function earned(address account) public view returns (uint256) {\r... */\n    tag_3:\n      tag_32\n      0x04\n      dup1\n      calldatasize\n      sub\n      0x20\n      dup2\n      lt\n      iszero\n      tag_33\n      jumpi\n      0x00\n      dup1\n      revert\n    tag_33:\n      dup2\n      add\n      swap1\n      dup1\n      dup1\n      calldataload\n      0xffffffffffffffffffffffffffffffffffffffff\n      and\n      swap1\n      0x20\n      add\n      swap1\n      swap3\n      swap2\n      swap1\n      pop\n      pop\n      pop\n      tag_34\n      jump\t// in\n    tag_32:\n      mload(0x40)\n      dup1\n      dup3\n      dup2\n      mstore\n      0x20\n      add\n      swap2\n      pop\n      pop\n      mload(0x40)\n      dup1\n      swap2\n      sub\n      swap1\n      return\n        /* \"contracts/FYJ_STAKINGPOOL.sol\":24791:24833  mapping(address => uint256) public rewards */\n    tag_4:\n      tag_35\n      0x04\n      dup1\n      calldatasize\n      sub\n      0x20\n      dup2\n      lt\n      iszero\n      tag_36\n      jumpi\n      0x00\n      dup1\n      revert\n    tag_36:\n      dup2\n      add\n      swap1\n      dup1\n      dup1\n      calldataload\n      0xffffffffffffffffffffffffffffffffffffffff\n      and\n      swap1\n      0x20\n      add\n      swap1\n      swap3\n      swap2\n      swap1\n      pop\n      pop\n      pop\n      tag_37\n      jump\t// in\n    tag_35:\n      mload(0x40)\n      dup1\n      dup3\n      dup2\n      mstore\n      0x20\n      add\n      swap2\n      pop\n      pop\n      mload(0x40)\n      dup1\n      swap2\n      sub\n      swap1\n      return\n        /* \"contracts/FYJ_STAKINGPOOL.sol\":21518:21696  function setRewardDistribution(address _rewardDistribution)\r... */\n    tag_5:\n      tag_38\n      0x04\n      dup1\n      calldatasize\n      sub\n      0x20\n      dup2\n      lt\n      iszero\n      tag_39\n      jumpi\n      0x00\n      dup1\n      revert\n    tag_39:\n      dup2\n      add\n      swap1\n      dup1\n      dup1\n      calldataload\n      0xffffffffffffffffffffffffffffffffffffffff\n      and\n      swap1\n      0x20\n      add\n      swap1\n      swap3\n      swap2\n      swap1\n      pop\n      pop\n      pop\n      tag_40\n      jump\t// in\n    tag_38:\n      stop\n        /* \"contracts/FYJ_STAKINGPOOL.sol\":21217:21250  address public rewardDistribution */\n    tag_6:\n      tag_41\n      tag_42\n      jump\t// in\n    tag_41:\n      mload(0x40)\n      dup1\n      dup3\n      0xffffffffffffffffffffffffffffffffffffffff\n      and\n      dup2\n      mstore\n      0x20\n      add\n      swap2\n      pop\n      pop\n      mload(0x40)\n      dup1\n      swap2\n      sub\n      swap1\n      return\n        /* \"contracts/FYJ_STAKINGPOOL.sol\":19679:19770  function totalSupply() public view returns (uint256) {\r... */\n    tag_7:\n      tag_43\n      tag_44\n      jump\t// in\n    tag_43:\n      mload(0x40)\n      dup1\n      dup3\n      dup2\n      mstore\n      0x20\n      add\n      swap2\n      pop\n      pop\n      mload(0x40)\n      dup1\n      swap2\n      sub\n      swap1\n      return\n        /* \"contracts/FYJ_STAKINGPOOL.sol\":24214:24248  uint256 public DURATION = 180 days */\n    tag_8:\n      tag_45\n      tag_46\n      jump\t// in\n    tag_45:\n      mload(0x40)\n      dup1\n      dup3\n      dup2\n      mstore\n      0x20\n      add\n      swap2\n      pop\n      pop\n      mload(0x40)\n      dup1\n      swap2\n      sub\n      swap1\n      return\n        /* \"contracts/FYJ_STAKINGPOOL.sol\":28431:28778  function withdraw(\r... */\n    tag_9:\n      tag_47\n      0x04\n      dup1\n      calldatasize\n      sub\n      0x20\n      dup2\n      lt\n      iszero\n      tag_48\n      jumpi\n      0x00\n      dup1\n      revert\n    tag_48:\n      dup2\n      add\n      swap1\n      dup1\n      dup1\n      calldataload\n      swap1\n      0x20\n      add\n      swap1\n      swap3\n      swap2\n      swap1\n      pop\n      pop\n      pop\n      tag_49\n      jump\t// in\n    tag_47:\n      stop\n        /* \"contracts/FYJ_STAKINGPOOL.sol\":29640:31241  function notifyRewardAmount(\r... */\n    tag_10:\n      tag_50\n      0x04\n      dup1\n      calldatasize\n      sub\n      0x20\n      dup2\n      lt\n      iszero\n      tag_51\n      jumpi\n      0x00\n      dup1\n      revert\n    tag_51:\n      dup2\n      add\n      swap1\n      dup1\n      dup1\n      calldataload\n      swap1\n      0x20\n      add\n      swap1\n      swap3\n      swap2\n      swap1\n      pop\n      pop\n      pop\n      tag_52\n      jump\t// in\n    tag_50:\n      stop\n        /* \"contracts/FYJ_STAKINGPOOL.sol\":29044:29547  function getReward() public updateReward(msg.sender) checkStart {\r... */\n    tag_11:\n      tag_53\n      tag_54\n      jump\t// in\n    tag_53:\n      stop\n        /* \"contracts/FYJ_STAKINGPOOL.sol\":19887:19997  function balanceOf(address account) public view returns (uint256) {\r... */\n    tag_12:\n      tag_55\n      0x04\n      dup1\n      calldatasize\n      sub\n      0x20\n      dup2\n      lt\n      iszero\n      tag_56\n      jumpi\n      0x00\n      dup1\n      revert\n    tag_56:\n      dup2\n      add\n      swap1\n      dup1\n      dup1\n      calldataload\n      0xffffffffffffffffffffffffffffffffffffffff\n      and\n      swap1\n      0x20\n      add\n      swap1\n      swap3\n      swap2\n      swap1\n      pop\n      pop\n      pop\n      tag_57\n      jump\t// in\n    tag_55:\n      mload(0x40)\n      dup1\n      dup3\n      dup2\n      mstore\n      0x20\n      add\n      swap2\n      pop\n      pop\n      mload(0x40)\n      dup1\n      swap2\n      sub\n      swap1\n      return\n        /* \"contracts/FYJ_STAKINGPOOL.sol\":15548:15696  function renounceOwnership() public virtual onlyOwner {\r... */\n    tag_13:\n      tag_58\n      tag_59\n      jump\t// in\n    tag_58:\n      stop\n        /* \"contracts/FYJ_STAKINGPOOL.sol\":24437:24466  uint256 public rewardRate = 0 */\n    tag_14:\n      tag_60\n      tag_61\n      jump\t// in\n    tag_60:\n      mload(0x40)\n      dup1\n      dup3\n      dup2\n      mstore\n      0x20\n      add\n      swap2\n      pop\n      pop\n      mload(0x40)\n      dup1\n      swap2\n      sub\n      swap1\n      return\n        /* \"contracts/FYJ_STAKINGPOOL.sol\":26458:26638  function lastTimeRewardApplicable() public view returns (uint256) {\r... */\n    tag_15:\n      tag_62\n      tag_63\n      jump\t// in\n    tag_62:\n      mload(0x40)\n      dup1\n      dup3\n      dup2\n      mstore\n      0x20\n      add\n      swap2\n      pop\n      pop\n      mload(0x40)\n      dup1\n      swap2\n      sub\n      swap1\n      return\n        /* \"contracts/FYJ_STAKINGPOOL.sol\":24679:24736  mapping(address => uint256) public userRewardPerTokenPaid */\n    tag_16:\n      tag_64\n      0x04\n      dup1\n      calldatasize\n      sub\n      0x20\n      dup2\n      lt\n      iszero\n      tag_65\n      jumpi\n      0x00\n      dup1\n      revert\n    tag_65:\n      dup2\n      add\n      swap1\n      dup1\n      dup1\n      calldataload\n      0xffffffffffffffffffffffffffffffffffffffff\n      and\n      swap1\n      0x20\n      add\n      swap1\n      swap3\n      swap2\n      swap1\n      pop\n      pop\n      pop\n      tag_66\n      jump\t// in\n    tag_64:\n      mload(0x40)\n      dup1\n      dup3\n      dup2\n      mstore\n      0x20\n      add\n      swap2\n      pop\n      pop\n      mload(0x40)\n      dup1\n      swap2\n      sub\n      swap1\n      return\n        /* \"contracts/FYJ_STAKINGPOOL.sol\":24285:24309  uint256 public starttime */\n    tag_17:\n      tag_67\n      tag_68\n      jump\t// in\n    tag_67:\n      mload(0x40)\n      dup1\n      dup3\n      dup2\n      mstore\n      0x20\n      add\n      swap2\n      pop\n      pop\n      mload(0x40)\n      dup1\n      swap2\n      sub\n      swap1\n      return\n        /* \"contracts/FYJ_STAKINGPOOL.sol\":14906:14985  function owner() public view returns (address) {\r... */\n    tag_18:\n      tag_69\n      tag_70\n      jump\t// in\n    tag_69:\n      mload(0x40)\n      dup1\n      dup3\n      0xffffffffffffffffffffffffffffffffffffffff\n      and\n      dup2\n      mstore\n      0x20\n      add\n      swap2\n      pop\n      pop\n      mload(0x40)\n      dup1\n      swap2\n      sub\n      swap1\n      return\n        /* \"contracts/FYJ_STAKINGPOOL.sol\":27989:28324  function stake(\r... */\n    tag_19:\n      tag_71\n      0x04\n      dup1\n      calldatasize\n      sub\n      0x20\n      dup2\n      lt\n      iszero\n      tag_72\n      jumpi\n      0x00\n      dup1\n      revert\n    tag_72:\n      dup2\n      add\n      swap1\n      dup1\n      dup1\n      calldataload\n      swap1\n      0x20\n      add\n      swap1\n      swap3\n      swap2\n      swap1\n      pop\n      pop\n      pop\n      tag_73\n      jump\t// in\n    tag_71:\n      stop\n        /* \"contracts/FYJ_STAKINGPOOL.sol\":24509:24538  uint256 public lastUpdateTime */\n    tag_20:\n      tag_74\n      tag_75\n      jump\t// in\n    tag_74:\n      mload(0x40)\n      dup1\n      dup3\n      dup2\n      mstore\n      0x20\n      add\n      swap2\n      pop\n      pop\n      mload(0x40)\n      dup1\n      swap2\n      sub\n      swap1\n      return\n        /* \"contracts/FYJ_STAKINGPOOL.sol\":26733:27294  function rewardPerToken() public view returns (uint256) {\r... */\n    tag_21:\n      tag_76\n      tag_77\n      jump\t// in\n    tag_76:\n      mload(0x40)\n      dup1\n      dup3\n      dup2\n      mstore\n      0x20\n      add\n      swap2\n      pop\n      pop\n      mload(0x40)\n      dup1\n      swap2\n      sub\n      swap1\n      return\n        /* \"contracts/FYJ_STAKINGPOOL.sol\":19443:19460  IERC20 public lpt */\n    tag_22:\n      tag_78\n      tag_79\n      jump\t// in\n    tag_78:\n      mload(0x40)\n      dup1\n      dup3\n      0xffffffffffffffffffffffffffffffffffffffff\n      and\n      dup2\n      mstore\n      0x20\n      add\n      swap2\n      pop\n      pop\n      mload(0x40)\n      dup1\n      swap2\n      sub\n      swap1\n      return\n        /* \"contracts/FYJ_STAKINGPOOL.sol\":24581:24616  uint256 public rewardPerTokenStored */\n    tag_23:\n      tag_80\n      tag_81\n      jump\t// in\n    tag_80:\n      mload(0x40)\n      dup1\n      dup3\n      dup2\n      mstore\n      0x20\n      add\n      swap2\n      pop\n      pop\n      mload(0x40)\n      dup1\n      swap2\n      sub\n      swap1\n      return\n        /* \"contracts/FYJ_STAKINGPOOL.sol\":28824:28992  function exit() external {\r... */\n    tag_24:\n      tag_82\n      tag_83\n      jump\t// in\n    tag_82:\n      stop\n        /* \"contracts/FYJ_STAKINGPOOL.sol\":24363:24394  uint256 public periodFinish = 0 */\n    tag_25:\n      tag_84\n      tag_85\n      jump\t// in\n    tag_84:\n      mload(0x40)\n      dup1\n      dup3\n      dup2\n      mstore\n      0x20\n      add\n      swap2\n      pop\n      pop\n      mload(0x40)\n      dup1\n      swap2\n      sub\n      swap1\n      return\n        /* \"contracts/FYJ_STAKINGPOOL.sol\":15851:16095  function transferOwnership(address newOwner) public virtual onlyOwner {\r... */\n    tag_26:\n      tag_86\n      0x04\n      dup1\n      calldatasize\n      sub\n      0x20\n      dup2\n      lt\n      iszero\n      tag_87\n      jumpi\n      0x00\n      dup1\n      revert\n    tag_87:\n      dup2\n      add\n      swap1\n      dup1\n      dup1\n      calldataload\n      0xffffffffffffffffffffffffffffffffffffffff\n      and\n      swap1\n      0x20\n      add\n      swap1\n      swap3\n      swap2\n      swap1\n      pop\n      pop\n      pop\n      tag_88\n      jump\t// in\n    tag_86:\n      stop\n        /* \"contracts/FYJ_STAKINGPOOL.sol\":24149:24168  IERC20 public token */\n    tag_27:\n      tag_89\n      tag_90\n      jump\t// in\n    tag_89:\n      mload(0x40)\n      dup1\n      dup3\n      0xffffffffffffffffffffffffffffffffffffffff\n      and\n      dup2\n      mstore\n      0x20\n      add\n      swap2\n      pop\n      pop\n      mload(0x40)\n      dup1\n      swap2\n      sub\n      swap1\n      return\n        /* \"contracts/FYJ_STAKINGPOOL.sol\":27394:27805  function earned(address account) public view returns (uint256) {\r... */\n    tag_34:\n        /* \"contracts/FYJ_STAKINGPOOL.sol\":27448:27455  uint256 */\n      0x00\n        /* \"contracts/FYJ_STAKINGPOOL.sol\":27634:27797  balanceOf(account)\r... */\n      tag_92\n        /* \"contracts/FYJ_STAKINGPOOL.sol\":27780:27787  rewards */\n      0x0d\n        /* \"contracts/FYJ_STAKINGPOOL.sol\":27780:27796  rewards[account] */\n      0x00\n        /* \"contracts/FYJ_STAKINGPOOL.sol\":27788:27795  account */\n      dup5\n        /* \"contracts/FYJ_STAKINGPOOL.sol\":27780:27796  rewards[account] */\n      0xffffffffffffffffffffffffffffffffffffffff\n      and\n      0xffffffffffffffffffffffffffffffffffffffff\n      and\n      dup2\n      mstore\n      0x20\n      add\n      swap1\n      dup2\n      mstore\n      0x20\n      add\n      0x00\n      keccak256\n      sload\n        /* \"contracts/FYJ_STAKINGPOOL.sol\":27634:27757  balanceOf(account)\r... */\n      tag_93\n        /* \"contracts/FYJ_STAKINGPOOL.sol\":27752:27756  1e18 */\n      0x0de0b6b3a7640000\n        /* \"contracts/FYJ_STAKINGPOOL.sol\":27634:27729  balanceOf(account)\r... */\n      tag_94\n        /* \"contracts/FYJ_STAKINGPOOL.sol\":27675:27728  rewardPerToken().sub(userRewardPerTokenPaid[account]) */\n      tag_95\n        /* \"contracts/FYJ_STAKINGPOOL.sol\":27696:27718  userRewardPerTokenPaid */\n      0x0c\n        /* \"contracts/FYJ_STAKINGPOOL.sol\":27696:27727  userRewardPerTokenPaid[account] */\n      0x00\n        /* \"contracts/FYJ_STAKINGPOOL.sol\":27719:27726  account */\n      dup10\n        /* \"contracts/FYJ_STAKINGPOOL.sol\":27696:27727  userRewardPerTokenPaid[account] */\n      0xffffffffffffffffffffffffffffffffffffffff\n      and\n      0xffffffffffffffffffffffffffffffffffffffff\n      and\n      dup2\n      mstore\n      0x20\n      add\n      swap1\n      dup2\n      mstore\n      0x20\n      add\n      0x00\n      keccak256\n      sload\n        /* \"contracts/FYJ_STAKINGPOOL.sol\":27675:27691  rewardPerToken() */\n      tag_96\n        /* \"contracts/FYJ_STAKINGPOOL.sol\":27675:27689  rewardPerToken */\n      tag_77\n        /* \"contracts/FYJ_STAKINGPOOL.sol\":27675:27691  rewardPerToken() */\n      jump\t// in\n    tag_96:\n        /* \"contracts/FYJ_STAKINGPOOL.sol\":27675:27695  rewardPerToken().sub */\n      tag_97\n      swap1\n        /* \"contracts/FYJ_STAKINGPOOL.sol\":27675:27728  rewardPerToken().sub(userRewardPerTokenPaid[account]) */\n      swap2\n      swap1\n      0xffffffff\n      and\n      jump\t// in\n    tag_95:\n        /* \"contracts/FYJ_STAKINGPOOL.sol\":27634:27652  balanceOf(account) */\n      tag_98\n        /* \"contracts/FYJ_STAKINGPOOL.sol\":27644:27651  account */\n      dup9\n        /* \"contracts/FYJ_STAKINGPOOL.sol\":27634:27643  balanceOf */\n      tag_57\n        /* \"contracts/FYJ_STAKINGPOOL.sol\":27634:27652  balanceOf(account) */\n      jump\t// in\n    tag_98:\n        /* \"contracts/FYJ_STAKINGPOOL.sol\":27634:27674  balanceOf(account)\r... */\n      tag_99\n      swap1\n        /* \"contracts/FYJ_STAKINGPOOL.sol\":27634:27729  balanceOf(account)\r... */\n      swap2\n      swap1\n      0xffffffff\n      and\n      jump\t// in\n    tag_94:\n        /* \"contracts/FYJ_STAKINGPOOL.sol\":27634:27751  balanceOf(account)\r... */\n      tag_100\n      swap1\n        /* \"contracts/FYJ_STAKINGPOOL.sol\":27634:27757  balanceOf(account)\r... */\n      swap2\n      swap1\n      0xffffffff\n      and\n      jump\t// in\n    tag_93:\n        /* \"contracts/FYJ_STAKINGPOOL.sol\":27634:27779  balanceOf(account)\r... */\n      tag_101\n      swap1\n        /* \"contracts/FYJ_STAKINGPOOL.sol\":27634:27797  balanceOf(account)\r... */\n      swap2\n      swap1\n      0xffffffff\n      and\n      jump\t// in\n    tag_92:\n        /* \"contracts/FYJ_STAKINGPOOL.sol\":27614:27797  return\r... */\n      swap1\n      pop\n        /* \"contracts/FYJ_STAKINGPOOL.sol\":27394:27805  function earned(address account) public view returns (uint256) {\r... */\n      swap2\n      swap1\n      pop\n      jump\t// out\n        /* \"contracts/FYJ_STAKINGPOOL.sol\":24791:24833  mapping(address => uint256) public rewards */\n    tag_37:\n      mstore(0x20, 0x0d)\n      dup1\n      0x00\n      mstore\n      keccak256(0x00, 0x40)\n      0x00\n      swap2\n      pop\n      swap1\n      pop\n      sload\n      dup2\n      jump\t// out\n        /* \"contracts/FYJ_STAKINGPOOL.sol\":21518:21696  function setRewardDistribution(address _rewardDistribution)\r... */\n    tag_40:\n        /* \"contracts/FYJ_STAKINGPOOL.sol\":15128:15140  _msgSender() */\n      tag_103\n        /* \"contracts/FYJ_STAKINGPOOL.sol\":15128:15138  _msgSender */\n      tag_104\n        /* \"contracts/FYJ_STAKINGPOOL.sol\":15128:15140  _msgSender() */\n      jump\t// in\n    tag_103:\n        /* \"contracts/FYJ_STAKINGPOOL.sol\":15118:15140  _owner == _msgSender() */\n      0xffffffffffffffffffffffffffffffffffffffff\n      and\n        /* \"contracts/FYJ_STAKINGPOOL.sol\":15118:15124  _owner */\n      0x03\n      0x00\n      swap1\n      sload\n      swap1\n      0x0100\n      exp\n      swap1\n      div\n      0xffffffffffffffffffffffffffffffffffffffff\n      and\n        /* \"contracts/FYJ_STAKINGPOOL.sol\":15118:15140  _owner == _msgSender() */\n      0xffffffffffffffffffffffffffffffffffffffff\n      and\n      eq\n        /* \"contracts/FYJ_STAKINGPOOL.sol\":15110:15177  require(_owner == _msgSender(), \"Ownable: caller is not the owner\") */\n      tag_105\n      jumpi\n      mload(0x40)\n      0x08c379a000000000000000000000000000000000000000000000000000000000\n      dup2\n      mstore\n      0x04\n      add\n      dup1\n      dup1\n      0x20\n      add\n      dup3\n      dup2\n      sub\n      dup3\n      mstore\n      0x20\n      dup2\n      mstore\n      0x20\n      add\n      dup1\n      0x4f776e61626c653a2063616c6c6572206973206e6f7420746865206f776e6572\n      dup2\n      mstore\n      pop\n      0x20\n      add\n      swap2\n      pop\n      pop\n      mload(0x40)\n      dup1\n      swap2\n      sub\n      swap1\n      revert\n    tag_105:\n        /* \"contracts/FYJ_STAKINGPOOL.sol\":21669:21688  _rewardDistribution */\n      dup1\n        /* \"contracts/FYJ_STAKINGPOOL.sol\":21648:21666  rewardDistribution */\n      0x04\n      0x00\n        /* \"contracts/FYJ_STAKINGPOOL.sol\":21648:21688  rewardDistribution = _rewardDistribution */\n      0x0100\n      exp\n      dup2\n      sload\n      dup2\n      0xffffffffffffffffffffffffffffffffffffffff\n      mul\n      not\n      and\n      swap1\n      dup4\n      0xffffffffffffffffffffffffffffffffffffffff\n      and\n      mul\n      or\n      swap1\n      sstore\n      pop\n        /* \"contracts/FYJ_STAKINGPOOL.sol\":21518:21696  function setRewardDistribution(address _rewardDistribution)\r... */\n      pop\n      jump\t// out\n        /* \"contracts/FYJ_STAKINGPOOL.sol\":21217:21250  address public rewardDistribution */\n    tag_42:\n      0x04\n      0x00\n      swap1\n      sload\n      swap1\n      0x0100\n      exp\n      swap1\n      div\n      0xffffffffffffffffffffffffffffffffffffffff\n      and\n      dup2\n      jump\t// out\n        /* \"contracts/FYJ_STAKINGPOOL.sol\":19679:19770  function totalSupply() public view returns (uint256) {\r... */\n    tag_44:\n        /* \"contracts/FYJ_STAKINGPOOL.sol\":19723:19730  uint256 */\n      0x00\n        /* \"contracts/FYJ_STAKINGPOOL.sol\":19750:19762  _totalSupply */\n      sload(0x01)\n        /* \"contracts/FYJ_STAKINGPOOL.sol\":19743:19762  return _totalSupply */\n      swap1\n      pop\n        /* \"contracts/FYJ_STAKINGPOOL.sol\":19679:19770  function totalSupply() public view returns (uint256) {\r... */\n      swap1\n      jump\t// out\n        /* \"contracts/FYJ_STAKINGPOOL.sol\":24214:24248  uint256 public DURATION = 180 days */\n    tag_46:\n      sload(0x06)\n      dup2\n      jump\t// out\n        /* \"contracts/FYJ_STAKINGPOOL.sol\":28431:28778  function withdraw(\r... */\n    tag_49:\n        /* \"contracts/FYJ_STAKINGPOOL.sol\":28510:28520  msg.sender */\n      caller\n        /* \"contracts/FYJ_STAKINGPOOL.sol\":25794:25810  rewardPerToken() */\n      tag_109\n        /* \"contracts/FYJ_STAKINGPOOL.sol\":25794:25808  rewardPerToken */\n      tag_77\n        /* \"contracts/FYJ_STAKINGPOOL.sol\":25794:25810  rewardPerToken() */\n      jump\t// in\n    tag_109:\n        /* \"contracts/FYJ_STAKINGPOOL.sol\":25771:25791  rewardPerTokenStored */\n      0x0b\n        /* \"contracts/FYJ_STAKINGPOOL.sol\":25771:25810  rewardPerTokenStored = rewardPerToken() */\n      dup2\n      swap1\n      sstore\n      pop\n        /* \"contracts/FYJ_STAKINGPOOL.sol\":25902:25928  lastTimeRewardApplicable() */\n      tag_110\n        /* \"contracts/FYJ_STAKINGPOOL.sol\":25902:25926  lastTimeRewardApplicable */\n      tag_63\n        /* \"contracts/FYJ_STAKINGPOOL.sol\":25902:25928  lastTimeRewardApplicable() */\n      jump\t// in\n    tag_110:\n        /* \"contracts/FYJ_STAKINGPOOL.sol\":25885:25899  lastUpdateTime */\n      0x0a\n        /* \"contracts/FYJ_STAKINGPOOL.sol\":25885:25928  lastUpdateTime = lastTimeRewardApplicable() */\n      dup2\n      swap1\n      sstore\n      pop\n        /* \"contracts/FYJ_STAKINGPOOL.sol\":26002:26003  0 */\n      0x00\n        /* \"contracts/FYJ_STAKINGPOOL.sol\":25983:26004  account != address(0) */\n      0xffffffffffffffffffffffffffffffffffffffff\n      and\n        /* \"contracts/FYJ_STAKINGPOOL.sol\":25983:25990  account */\n      dup2\n        /* \"contracts/FYJ_STAKINGPOOL.sol\":25983:26004  account != address(0) */\n      0xffffffffffffffffffffffffffffffffffffffff\n      and\n      eq\n        /* \"contracts/FYJ_STAKINGPOOL.sol\":25979:26277  if (account != address(0)) {\r... */\n      tag_111\n      jumpi\n        /* \"contracts/FYJ_STAKINGPOOL.sol\":26108:26123  earned(account) */\n      tag_112\n        /* \"contracts/FYJ_STAKINGPOOL.sol\":26115:26122  account */\n      dup2\n        /* \"contracts/FYJ_STAKINGPOOL.sol\":26108:26114  earned */\n      tag_34\n        /* \"contracts/FYJ_STAKINGPOOL.sol\":26108:26123  earned(account) */\n      jump\t// in\n    tag_112:\n        /* \"contracts/FYJ_STAKINGPOOL.sol\":26089:26096  rewards */\n      0x0d\n        /* \"contracts/FYJ_STAKINGPOOL.sol\":26089:26105  rewards[account] */\n      0x00\n        /* \"contracts/FYJ_STAKINGPOOL.sol\":26097:26104  account */\n      dup4\n        /* \"contracts/FYJ_STAKINGPOOL.sol\":26089:26105  rewards[account] */\n      0xffffffffffffffffffffffffffffffffffffffff\n      and\n      0xffffffffffffffffffffffffffffffffffffffff\n      and\n      dup2\n      mstore\n      0x20\n      add\n      swap1\n      dup2\n      mstore\n      0x20\n      add\n      0x00\n      keccak256\n        /* \"contracts/FYJ_STAKINGPOOL.sol\":26089:26123  rewards[account] = earned(account) */\n      dup2\n      swap1\n      sstore\n      pop\n        /* \"contracts/FYJ_STAKINGPOOL.sol\":26245:26265  rewardPerTokenStored */\n      sload(0x0b)\n        /* \"contracts/FYJ_STAKINGPOOL.sol\":26211:26233  userRewardPerTokenPaid */\n      0x0c\n        /* \"contracts/FYJ_STAKINGPOOL.sol\":26211:26242  userRewardPerTokenPaid[account] */\n      0x00\n        /* \"contracts/FYJ_STAKINGPOOL.sol\":26234:26241  account */\n      dup4\n        /* \"contracts/FYJ_STAKINGPOOL.sol\":26211:26242  userRewardPerTokenPaid[account] */\n      0xffffffffffffffffffffffffffffffffffffffff\n      and\n      0xffffffffffffffffffffffffffffffffffffffff\n      and\n      dup2\n      mstore\n      0x20\n      add\n      swap1\n      dup2\n      mstore\n      0x20\n      add\n      0x00\n      keccak256\n        /* \"contracts/FYJ_STAKINGPOOL.sol\":26211:26265  userRewardPerTokenPaid[account] = rewardPerTokenStored */\n      dup2\n      swap1\n      sstore\n      pop\n        /* \"contracts/FYJ_STAKINGPOOL.sol\":25979:26277  if (account != address(0)) {\r... */\n    tag_111:\n        /* \"contracts/FYJ_STAKINGPOOL.sol\":25515:25524  starttime */\n      sload(0x07)\n        /* \"contracts/FYJ_STAKINGPOOL.sol\":25496:25511  block.timestamp */\n      timestamp\n        /* \"contracts/FYJ_STAKINGPOOL.sol\":25496:25524  block.timestamp >= starttime */\n      lt\n      iszero\n        /* \"contracts/FYJ_STAKINGPOOL.sol\":25488:25556  require(block.timestamp >= starttime, 'LPTokenSharePool: not start') */\n      tag_114\n      jumpi\n      mload(0x40)\n      0x08c379a000000000000000000000000000000000000000000000000000000000\n      dup2\n      mstore\n      0x04\n      add\n      dup1\n      dup1\n      0x20\n      add\n      dup3\n      dup2\n      sub\n      dup3\n      mstore\n      0x1b\n      dup2\n      mstore\n      0x20\n      add\n      dup1\n      0x4c50546f6b656e5368617265506f6f6c3a206e6f742073746172740000000000\n      dup2\n      mstore\n      pop\n      0x20\n      add\n      swap2\n      pop\n      pop\n      mload(0x40)\n      dup1\n      swap2\n      sub\n      swap1\n      revert\n    tag_114:\n        /* \"contracts/FYJ_STAKINGPOOL.sol\":28588:28589  0 */\n      0x00\n        /* \"contracts/FYJ_STAKINGPOOL.sol\":28579:28585  amount */\n      dup3\n        /* \"contracts/FYJ_STAKINGPOOL.sol\":28579:28589  amount > 0 */\n      gt\n        /* \"contracts/FYJ_STAKINGPOOL.sol\":28571:28636  require(amount > 0, 'HUSDGOCLPTokenSharePool: Cannot withdraw 0') */\n      tag_116\n      jumpi\n      mload(0x40)\n      0x08c379a000000000000000000000000000000000000000000000000000000000\n      dup2\n      mstore\n      0x04\n      add\n      dup1\n      dup1\n      0x20\n      add\n      dup3\n      dup2\n      sub\n      dup3\n      mstore\n      0x2a\n      dup2\n      mstore\n      0x20\n      add\n      dup1\n      data_e85ee5087a90428432078dbd8d4e57ecaadd93cfcfac4363407006c688ba18f8\n      0x2a\n      swap2\n      codecopy\n      0x40\n      add\n      swap2\n      pop\n      pop\n      mload(0x40)\n      dup1\n      swap2\n      sub\n      swap1\n      revert\n    tag_116:\n        /* \"contracts/FYJ_STAKINGPOOL.sol\":28672:28694  super.withdraw(amount) */\n      tag_117\n        /* \"contracts/FYJ_STAKINGPOOL.sol\":28687:28693  amount */\n      dup3\n        /* \"contracts/FYJ_STAKINGPOOL.sol\":28672:28686  super.withdraw */\n      tag_118\n        /* \"contracts/FYJ_STAKINGPOOL.sol\":28672:28694  super.withdraw(amount) */\n      jump\t// in\n    tag_117:\n        /* \"contracts/FYJ_STAKINGPOOL.sol\":28751:28761  msg.sender */\n      caller\n        /* \"contracts/FYJ_STAKINGPOOL.sol\":28741:28770  Withdrawn(msg.sender, amount) */\n      0xffffffffffffffffffffffffffffffffffffffff\n      and\n      0x7084f5476618d8e60b11ef0d7d3f06914655adb8793e28ff7f018d4c76d505d5\n        /* \"contracts/FYJ_STAKINGPOOL.sol\":28763:28769  amount */\n      dup4\n        /* \"contracts/FYJ_STAKINGPOOL.sol\":28741:28770  Withdrawn(msg.sender, amount) */\n      mload(0x40)\n      dup1\n      dup3\n      dup2\n      mstore\n      0x20\n      add\n      swap2\n      pop\n      pop\n      mload(0x40)\n      dup1\n      swap2\n      sub\n      swap1\n      log2\n        /* \"contracts/FYJ_STAKINGPOOL.sol\":28431:28778  function withdraw(\r... */\n      pop\n      pop\n      jump\t// out\n        /* \"contracts/FYJ_STAKINGPOOL.sol\":29640:31241  function notifyRewardAmount(\r... */\n    tag_52:\n        /* \"contracts/FYJ_STAKINGPOOL.sol\":21411:21429  rewardDistribution */\n      0x04\n      0x00\n      swap1\n      sload\n      swap1\n      0x0100\n      exp\n      swap1\n      div\n      0xffffffffffffffffffffffffffffffffffffffff\n      and\n        /* \"contracts/FYJ_STAKINGPOOL.sol\":21395:21429  _msgSender() == rewardDistribution */\n      0xffffffffffffffffffffffffffffffffffffffff\n      and\n        /* \"contracts/FYJ_STAKINGPOOL.sol\":21395:21407  _msgSender() */\n      tag_120\n        /* \"contracts/FYJ_STAKINGPOOL.sol\":21395:21405  _msgSender */\n      tag_104\n        /* \"contracts/FYJ_STAKINGPOOL.sol\":21395:21407  _msgSender() */\n      jump\t// in\n    tag_120:\n        /* \"contracts/FYJ_STAKINGPOOL.sol\":21395:21429  _msgSender() == rewardDistribution */\n      0xffffffffffffffffffffffffffffffffffffffff\n      and\n      eq\n        /* \"contracts/FYJ_STAKINGPOOL.sol\":21373:21490  require(\r... */\n      tag_121\n      jumpi\n      mload(0x40)\n      0x08c379a000000000000000000000000000000000000000000000000000000000\n      dup2\n      mstore\n      0x04\n      add\n      dup1\n      dup1\n      0x20\n      add\n      dup3\n      dup2\n      sub\n      dup3\n      mstore\n      0x21\n      dup2\n      mstore\n      0x20\n      add\n      dup1\n      data_aaaffe5c21fa5c5738339a5c250428887dc295da86e97cc962477da488b4d856\n      0x21\n      swap2\n      codecopy\n      0x40\n      add\n      swap2\n      pop\n      pop\n      mload(0x40)\n      dup1\n      swap2\n      sub\n      swap1\n      revert\n    tag_121:\n        /* \"contracts/FYJ_STAKINGPOOL.sol\":29762:29763  0 */\n      0x00\n        /* \"contracts/FYJ_STAKINGPOOL.sol\":25794:25810  rewardPerToken() */\n      tag_123\n        /* \"contracts/FYJ_STAKINGPOOL.sol\":25794:25808  rewardPerToken */\n      tag_77\n        /* \"contracts/FYJ_STAKINGPOOL.sol\":25794:25810  rewardPerToken() */\n      jump\t// in\n    tag_123:\n        /* \"contracts/FYJ_STAKINGPOOL.sol\":25771:25791  rewardPerTokenStored */\n      0x0b\n        /* \"contracts/FYJ_STAKINGPOOL.sol\":25771:25810  rewardPerTokenStored = rewardPerToken() */\n      dup2\n      swap1\n      sstore\n      pop\n        /* \"contracts/FYJ_STAKINGPOOL.sol\":25902:25928  lastTimeRewardApplicable() */\n      tag_124\n        /* \"contracts/FYJ_STAKINGPOOL.sol\":25902:25926  lastTimeRewardApplicable */\n      tag_63\n        /* \"contracts/FYJ_STAKINGPOOL.sol\":25902:25928  lastTimeRewardApplicable() */\n      jump\t// in\n    tag_124:\n        /* \"contracts/FYJ_STAKINGPOOL.sol\":25885:25899  lastUpdateTime */\n      0x0a\n        /* \"contracts/FYJ_STAKINGPOOL.sol\":25885:25928  lastUpdateTime = lastTimeRewardApplicable() */\n      dup2\n      swap1\n      sstore\n      pop\n        /* \"contracts/FYJ_STAKINGPOOL.sol\":26002:26003  0 */\n      0x00\n        /* \"contracts/FYJ_STAKINGPOOL.sol\":25983:26004  account != address(0) */\n      0xffffffffffffffffffffffffffffffffffffffff\n      and\n        /* \"contracts/FYJ_STAKINGPOOL.sol\":25983:25990  account */\n      dup2\n        /* \"contracts/FYJ_STAKINGPOOL.sol\":25983:26004  account != address(0) */\n      0xffffffffffffffffffffffffffffffffffffffff\n      and\n      eq\n        /* \"contracts/FYJ_STAKINGPOOL.sol\":25979:26277  if (account != address(0)) {\r... */\n      tag_125\n      jumpi\n        /* \"contracts/FYJ_STAKINGPOOL.sol\":26108:26123  earned(account) */\n      tag_126\n        /* \"contracts/FYJ_STAKINGPOOL.sol\":26115:26122  account */\n      dup2\n        /* \"contracts/FYJ_STAKINGPOOL.sol\":26108:26114  earned */\n      tag_34\n        /* \"contracts/FYJ_STAKINGPOOL.sol\":26108:26123  earned(account) */\n      jump\t// in\n    tag_126:\n        /* \"contracts/FYJ_STAKINGPOOL.sol\":26089:26096  rewards */\n      0x0d\n        /* \"contracts/FYJ_STAKINGPOOL.sol\":26089:26105  rewards[account] */\n      0x00\n        /* \"contracts/FYJ_STAKINGPOOL.sol\":26097:26104  account */\n      dup4\n        /* \"contracts/FYJ_STAKINGPOOL.sol\":26089:26105  rewards[account] */\n      0xffffffffffffffffffffffffffffffffffffffff\n      and\n      0xffffffffffffffffffffffffffffffffffffffff\n      and\n      dup2\n      mstore\n      0x20\n      add\n      swap1\n      dup2\n      mstore\n      0x20\n      add\n      0x00\n      keccak256\n        /* \"contracts/FYJ_STAKINGPOOL.sol\":26089:26123  rewards[account] = earned(account) */\n      dup2\n      swap1\n      sstore\n      pop\n        /* \"contracts/FYJ_STAKINGPOOL.sol\":26245:26265  rewardPerTokenStored */\n      sload(0x0b)\n        /* \"contracts/FYJ_STAKINGPOOL.sol\":26211:26233  userRewardPerTokenPaid */\n      0x0c\n        /* \"contracts/FYJ_STAKINGPOOL.sol\":26211:26242  userRewardPerTokenPaid[account] */\n      0x00\n        /* \"contracts/FYJ_STAKINGPOOL.sol\":26234:26241  account */\n      dup4\n        /* \"contracts/FYJ_STAKINGPOOL.sol\":26211:26242  userRewardPerTokenPaid[account] */\n      0xffffffffffffffffffffffffffffffffffffffff\n      and\n      0xffffffffffffffffffffffffffffffffffffffff\n      and\n      dup2\n      mstore\n      0x20\n      add\n      swap1\n      dup2\n      mstore\n      0x20\n      add\n      0x00\n      keccak256\n        /* \"contracts/FYJ_STAKINGPOOL.sol\":26211:26265  userRewardPerTokenPaid[account] = rewardPerTokenStored */\n      dup2\n      swap1\n      sstore\n      pop\n        /* \"contracts/FYJ_STAKINGPOOL.sol\":25979:26277  if (account != address(0)) {\r... */\n    tag_125:\n        /* \"contracts/FYJ_STAKINGPOOL.sol\":29843:29852  starttime */\n      sload(0x07)\n        /* \"contracts/FYJ_STAKINGPOOL.sol\":29825:29840  block.timestamp */\n      timestamp\n        /* \"contracts/FYJ_STAKINGPOOL.sol\":29825:29852  block.timestamp > starttime */\n      gt\n        /* \"contracts/FYJ_STAKINGPOOL.sol\":29821:31234  if (block.timestamp > starttime) {\r... */\n      iszero\n      tag_128\n      jumpi\n        /* \"contracts/FYJ_STAKINGPOOL.sol\":29943:29955  periodFinish */\n      sload(0x08)\n        /* \"contracts/FYJ_STAKINGPOOL.sol\":29924:29939  block.timestamp */\n      timestamp\n        /* \"contracts/FYJ_STAKINGPOOL.sol\":29924:29955  block.timestamp >= periodFinish */\n      lt\n        /* \"contracts/FYJ_STAKINGPOOL.sol\":29920:30539  if (block.timestamp >= periodFinish) {\r... */\n      tag_129\n      jumpi\n        /* \"contracts/FYJ_STAKINGPOOL.sol\":30046:30066  reward.div(DURATION) */\n      tag_130\n        /* \"contracts/FYJ_STAKINGPOOL.sol\":30057:30065  DURATION */\n      sload(0x06)\n        /* \"contracts/FYJ_STAKINGPOOL.sol\":30046:30052  reward */\n      dup4\n        /* \"contracts/FYJ_STAKINGPOOL.sol\":30046:30056  reward.div */\n      tag_100\n      swap1\n        /* \"contracts/FYJ_STAKINGPOOL.sol\":30046:30066  reward.div(DURATION) */\n      swap2\n      swap1\n      0xffffffff\n      and\n      jump\t// in\n    tag_130:\n        /* \"contracts/FYJ_STAKINGPOOL.sol\":30033:30043  rewardRate */\n      0x09\n        /* \"contracts/FYJ_STAKINGPOOL.sol\":30033:30066  rewardRate = reward.div(DURATION) */\n      dup2\n      swap1\n      sstore\n      pop\n        /* \"contracts/FYJ_STAKINGPOOL.sol\":29920:30539  if (block.timestamp >= periodFinish) {\r... */\n      jump(tag_131)\n    tag_129:\n        /* \"contracts/FYJ_STAKINGPOOL.sol\":30170:30187  uint256 remaining */\n      0x00\n        /* \"contracts/FYJ_STAKINGPOOL.sol\":30190:30223  periodFinish.sub(block.timestamp) */\n      tag_132\n        /* \"contracts/FYJ_STAKINGPOOL.sol\":30207:30222  block.timestamp */\n      timestamp\n        /* \"contracts/FYJ_STAKINGPOOL.sol\":30190:30202  periodFinish */\n      sload(0x08)\n        /* \"contracts/FYJ_STAKINGPOOL.sol\":30190:30206  periodFinish.sub */\n      tag_97\n      swap1\n        /* \"contracts/FYJ_STAKINGPOOL.sol\":30190:30223  periodFinish.sub(block.timestamp) */\n      swap2\n      swap1\n      0xffffffff\n      and\n      jump\t// in\n    tag_132:\n        /* \"contracts/FYJ_STAKINGPOOL.sol\":30170:30223  uint256 remaining = periodFinish.sub(block.timestamp) */\n      swap1\n      pop\n        /* \"contracts/FYJ_STAKINGPOOL.sol\":30333:30349  uint256 leftover */\n      0x00\n        /* \"contracts/FYJ_STAKINGPOOL.sol\":30352:30377  remaining.mul(rewardRate) */\n      tag_133\n        /* \"contracts/FYJ_STAKINGPOOL.sol\":30366:30376  rewardRate */\n      sload(0x09)\n        /* \"contracts/FYJ_STAKINGPOOL.sol\":30352:30361  remaining */\n      dup4\n        /* \"contracts/FYJ_STAKINGPOOL.sol\":30352:30365  remaining.mul */\n      tag_99\n      swap1\n        /* \"contracts/FYJ_STAKINGPOOL.sol\":30352:30377  remaining.mul(rewardRate) */\n      swap2\n      swap1\n      0xffffffff\n      and\n      jump\t// in\n    tag_133:\n        /* \"contracts/FYJ_STAKINGPOOL.sol\":30333:30377  uint256 leftover = remaining.mul(rewardRate) */\n      swap1\n      pop\n        /* \"contracts/FYJ_STAKINGPOOL.sol\":30489:30523  reward.add(leftover).div(DURATION) */\n      tag_134\n        /* \"contracts/FYJ_STAKINGPOOL.sol\":30514:30522  DURATION */\n      sload(0x06)\n        /* \"contracts/FYJ_STAKINGPOOL.sol\":30489:30509  reward.add(leftover) */\n      tag_135\n        /* \"contracts/FYJ_STAKINGPOOL.sol\":30500:30508  leftover */\n      dup4\n        /* \"contracts/FYJ_STAKINGPOOL.sol\":30489:30495  reward */\n      dup8\n        /* \"contracts/FYJ_STAKINGPOOL.sol\":30489:30499  reward.add */\n      tag_101\n      swap1\n        /* \"contracts/FYJ_STAKINGPOOL.sol\":30489:30509  reward.add(leftover) */\n      swap2\n      swap1\n      0xffffffff\n      and\n      jump\t// in\n    tag_135:\n        /* \"contracts/FYJ_STAKINGPOOL.sol\":30489:30513  reward.add(leftover).div */\n      tag_100\n      swap1\n        /* \"contracts/FYJ_STAKINGPOOL.sol\":30489:30523  reward.add(leftover).div(DURATION) */\n      swap2\n      swap1\n      0xffffffff\n      and\n      jump\t// in\n    tag_134:\n        /* \"contracts/FYJ_STAKINGPOOL.sol\":30476:30486  rewardRate */\n      0x09\n        /* \"contracts/FYJ_STAKINGPOOL.sol\":30476:30523  rewardRate = reward.add(leftover).div(DURATION) */\n      dup2\n      swap1\n      sstore\n      pop\n        /* \"contracts/FYJ_STAKINGPOOL.sol\":29920:30539  if (block.timestamp >= periodFinish) {\r... */\n      pop\n      pop\n    tag_131:\n        /* \"contracts/FYJ_STAKINGPOOL.sol\":30619:30634  block.timestamp */\n      timestamp\n        /* \"contracts/FYJ_STAKINGPOOL.sol\":30602:30616  lastUpdateTime */\n      0x0a\n        /* \"contracts/FYJ_STAKINGPOOL.sol\":30602:30634  lastUpdateTime = block.timestamp */\n      dup2\n      swap1\n      sstore\n      pop\n        /* \"contracts/FYJ_STAKINGPOOL.sol\":30717:30746  block.timestamp.add(DURATION) */\n      tag_136\n        /* \"contracts/FYJ_STAKINGPOOL.sol\":30737:30745  DURATION */\n      sload(0x06)\n        /* \"contracts/FYJ_STAKINGPOOL.sol\":30717:30732  block.timestamp */\n      timestamp\n        /* \"contracts/FYJ_STAKINGPOOL.sol\":30717:30736  block.timestamp.add */\n      tag_101\n      swap1\n        /* \"contracts/FYJ_STAKINGPOOL.sol\":30717:30746  block.timestamp.add(DURATION) */\n      swap2\n      swap1\n      0xffffffff\n      and\n      jump\t// in\n    tag_136:\n        /* \"contracts/FYJ_STAKINGPOOL.sol\":30702:30714  periodFinish */\n      0x08\n        /* \"contracts/FYJ_STAKINGPOOL.sol\":30702:30746  periodFinish = block.timestamp.add(DURATION) */\n      dup2\n      swap1\n      sstore\n      pop\n        /* \"contracts/FYJ_STAKINGPOOL.sol\":30807:30826  RewardAdded(reward) */\n      0xde88a922e0d3b88b24e9623efeb464919c6bf9f66857a65e2bfcf2ce87a9433d\n        /* \"contracts/FYJ_STAKINGPOOL.sol\":30819:30825  reward */\n      dup3\n        /* \"contracts/FYJ_STAKINGPOOL.sol\":30807:30826  RewardAdded(reward) */\n      mload(0x40)\n      dup1\n      dup3\n      dup2\n      mstore\n      0x20\n      add\n      swap2\n      pop\n      pop\n      mload(0x40)\n      dup1\n      swap2\n      sub\n      swap1\n      log1\n        /* \"contracts/FYJ_STAKINGPOOL.sol\":29821:31234  if (block.timestamp > starttime) {\r... */\n      jump(tag_137)\n    tag_128:\n        /* \"contracts/FYJ_STAKINGPOOL.sol\":30925:30945  reward.div(DURATION) */\n      tag_138\n        /* \"contracts/FYJ_STAKINGPOOL.sol\":30936:30944  DURATION */\n      sload(0x06)\n        /* \"contracts/FYJ_STAKINGPOOL.sol\":30925:30931  reward */\n      dup4\n        /* \"contracts/FYJ_STAKINGPOOL.sol\":30925:30935  reward.div */\n      tag_100\n      swap1\n        /* \"contracts/FYJ_STAKINGPOOL.sol\":30925:30945  reward.div(DURATION) */\n      swap2\n      swap1\n      0xffffffff\n      and\n      jump\t// in\n    tag_138:\n        /* \"contracts/FYJ_STAKINGPOOL.sol\":30912:30922  rewardRate */\n      0x09\n        /* \"contracts/FYJ_STAKINGPOOL.sol\":30912:30945  rewardRate = reward.div(DURATION) */\n      dup2\n      swap1\n      sstore\n      pop\n        /* \"contracts/FYJ_STAKINGPOOL.sol\":31027:31036  starttime */\n      sload(0x07)\n        /* \"contracts/FYJ_STAKINGPOOL.sol\":31010:31024  lastUpdateTime */\n      0x0a\n        /* \"contracts/FYJ_STAKINGPOOL.sol\":31010:31036  lastUpdateTime = starttime */\n      dup2\n      swap1\n      sstore\n      pop\n        /* \"contracts/FYJ_STAKINGPOOL.sol\":31119:31142  starttime.add(DURATION) */\n      tag_139\n        /* \"contracts/FYJ_STAKINGPOOL.sol\":31133:31141  DURATION */\n      sload(0x06)\n        /* \"contracts/FYJ_STAKINGPOOL.sol\":31119:31128  starttime */\n      sload(0x07)\n        /* \"contracts/FYJ_STAKINGPOOL.sol\":31119:31132  starttime.add */\n      tag_101\n      swap1\n        /* \"contracts/FYJ_STAKINGPOOL.sol\":31119:31142  starttime.add(DURATION) */\n      swap2\n      swap1\n      0xffffffff\n      and\n      jump\t// in\n    tag_139:\n        /* \"contracts/FYJ_STAKINGPOOL.sol\":31104:31116  periodFinish */\n      0x08\n        /* \"contracts/FYJ_STAKINGPOOL.sol\":31104:31142  periodFinish = starttime.add(DURATION) */\n      dup2\n      swap1\n      sstore\n      pop\n        /* \"contracts/FYJ_STAKINGPOOL.sol\":31203:31222  RewardAdded(reward) */\n      0xde88a922e0d3b88b24e9623efeb464919c6bf9f66857a65e2bfcf2ce87a9433d\n        /* \"contracts/FYJ_STAKINGPOOL.sol\":31215:31221  reward */\n      dup3\n        /* \"contracts/FYJ_STAKINGPOOL.sol\":31203:31222  RewardAdded(reward) */\n      mload(0x40)\n      dup1\n      dup3\n      dup2\n      mstore\n      0x20\n      add\n      swap2\n      pop\n      pop\n      mload(0x40)\n      dup1\n      swap2\n      sub\n      swap1\n      log1\n        /* \"contracts/FYJ_STAKINGPOOL.sol\":29821:31234  if (block.timestamp > starttime) {\r... */\n    tag_137:\n        /* \"contracts/FYJ_STAKINGPOOL.sol\":21501:21502  _ */\n      pop\n        /* \"contracts/FYJ_STAKINGPOOL.sol\":29640:31241  function notifyRewardAmount(\r... */\n      pop\n      jump\t// out\n        /* \"contracts/FYJ_STAKINGPOOL.sol\":29044:29547  function getReward() public updateReward(msg.sender) checkStart {\r... */\n    tag_54:\n        /* \"contracts/FYJ_STAKINGPOOL.sol\":29085:29095  msg.sender */\n      caller\n        /* \"contracts/FYJ_STAKINGPOOL.sol\":25794:25810  rewardPerToken() */\n      tag_141\n        /* \"contracts/FYJ_STAKINGPOOL.sol\":25794:25808  rewardPerToken */\n      tag_77\n        /* \"contracts/FYJ_STAKINGPOOL.sol\":25794:25810  rewardPerToken() */\n      jump\t// in\n    tag_141:\n        /* \"contracts/FYJ_STAKINGPOOL.sol\":25771:25791  rewardPerTokenStored */\n      0x0b\n        /* \"contracts/FYJ_STAKINGPOOL.sol\":25771:25810  rewardPerTokenStored = rewardPerToken() */\n      dup2\n      swap1\n      sstore\n      pop\n        /* \"contracts/FYJ_STAKINGPOOL.sol\":25902:25928  lastTimeRewardApplicable() */\n      tag_142\n        /* \"contracts/FYJ_STAKINGPOOL.sol\":25902:25926  lastTimeRewardApplicable */\n      tag_63\n        /* \"contracts/FYJ_STAKINGPOOL.sol\":25902:25928  lastTimeRewardApplicable() */\n      jump\t// in\n    tag_142:\n        /* \"contracts/FYJ_STAKINGPOOL.sol\":25885:25899  lastUpdateTime */\n      0x0a\n        /* \"contracts/FYJ_STAKINGPOOL.sol\":25885:25928  lastUpdateTime = lastTimeRewardApplicable() */\n      dup2\n      swap1\n      sstore\n      pop\n        /* \"contracts/FYJ_STAKINGPOOL.sol\":26002:26003  0 */\n      0x00\n        /* \"contracts/FYJ_STAKINGPOOL.sol\":25983:26004  account != address(0) */\n      0xffffffffffffffffffffffffffffffffffffffff\n      and\n        /* \"contracts/FYJ_STAKINGPOOL.sol\":25983:25990  account */\n      dup2\n        /* \"contracts/FYJ_STAKINGPOOL.sol\":25983:26004  account != address(0) */\n      0xffffffffffffffffffffffffffffffffffffffff\n      and\n      eq\n        /* \"contracts/FYJ_STAKINGPOOL.sol\":25979:26277  if (account != address(0)) {\r... */\n      tag_143\n      jumpi\n        /* \"contracts/FYJ_STAKINGPOOL.sol\":26108:26123  earned(account) */\n      tag_144\n        /* \"contracts/FYJ_STAKINGPOOL.sol\":26115:26122  account */\n      dup2\n        /* \"contracts/FYJ_STAKINGPOOL.sol\":26108:26114  earned */\n      tag_34\n        /* \"contracts/FYJ_STAKINGPOOL.sol\":26108:26123  earned(account) */\n      jump\t// in\n    tag_144:\n        /* \"contracts/FYJ_STAKINGPOOL.sol\":26089:26096  rewards */\n      0x0d\n        /* \"contracts/FYJ_STAKINGPOOL.sol\":26089:26105  rewards[account] */\n      0x00\n        /* \"contracts/FYJ_STAKINGPOOL.sol\":26097:26104  account */\n      dup4\n        /* \"contracts/FYJ_STAKINGPOOL.sol\":26089:26105  rewards[account] */\n      0xffffffffffffffffffffffffffffffffffffffff\n      and\n      0xffffffffffffffffffffffffffffffffffffffff\n      and\n      dup2\n      mstore\n      0x20\n      add\n      swap1\n      dup2\n      mstore\n      0x20\n      add\n      0x00\n      keccak256\n        /* \"contracts/FYJ_STAKINGPOOL.sol\":26089:26123  rewards[account] = earned(account) */\n      dup2\n      swap1\n      sstore\n      pop\n        /* \"contracts/FYJ_STAKINGPOOL.sol\":26245:26265  rewardPerTokenStored */\n      sload(0x0b)\n        /* \"contracts/FYJ_STAKINGPOOL.sol\":26211:26233  userRewardPerTokenPaid */\n      0x0c\n        /* \"contracts/FYJ_STAKINGPOOL.sol\":26211:26242  userRewardPerTokenPaid[account] */\n      0x00\n        /* \"contracts/FYJ_STAKINGPOOL.sol\":26234:26241  account */\n      dup4\n        /* \"contracts/FYJ_STAKINGPOOL.sol\":26211:26242  userRewardPerTokenPaid[account] */\n      0xffffffffffffffffffffffffffffffffffffffff\n      and\n      0xffffffffffffffffffffffffffffffffffffffff\n      and\n      dup2\n      mstore\n      0x20\n      add\n      swap1\n      dup2\n      mstore\n      0x20\n      add\n      0x00\n      keccak256\n        /* \"contracts/FYJ_STAKINGPOOL.sol\":26211:26265  userRewardPerTokenPaid[account] = rewardPerTokenStored */\n      dup2\n      swap1\n      sstore\n      pop\n        /* \"contracts/FYJ_STAKINGPOOL.sol\":25979:26277  if (account != address(0)) {\r... */\n    tag_143:\n        /* \"contracts/FYJ_STAKINGPOOL.sol\":25515:25524  starttime */\n      sload(0x07)\n        /* \"contracts/FYJ_STAKINGPOOL.sol\":25496:25511  block.timestamp */\n      timestamp\n        /* \"contracts/FYJ_STAKINGPOOL.sol\":25496:25524  block.timestamp >= starttime */\n      lt\n      iszero\n        /* \"contracts/FYJ_STAKINGPOOL.sol\":25488:25556  require(block.timestamp >= starttime, 'LPTokenSharePool: not start') */\n      tag_146\n      jumpi\n      mload(0x40)\n      0x08c379a000000000000000000000000000000000000000000000000000000000\n      dup2\n      mstore\n      0x04\n      add\n      dup1\n      dup1\n      0x20\n      add\n      dup3\n      dup2\n      sub\n      dup3\n      mstore\n      0x1b\n      dup2\n      mstore\n      0x20\n      add\n      dup1\n      0x4c50546f6b656e5368617265506f6f6c3a206e6f742073746172740000000000\n      dup2\n      mstore\n      pop\n      0x20\n      add\n      swap2\n      pop\n      pop\n      mload(0x40)\n      dup1\n      swap2\n      sub\n      swap1\n      revert\n    tag_146:\n        /* \"contracts/FYJ_STAKINGPOOL.sol\":29171:29185  uint256 reward */\n      0x00\n        /* \"contracts/FYJ_STAKINGPOOL.sol\":29188:29206  earned(msg.sender) */\n      tag_148\n        /* \"contracts/FYJ_STAKINGPOOL.sol\":29195:29205  msg.sender */\n      caller\n        /* \"contracts/FYJ_STAKINGPOOL.sol\":29188:29194  earned */\n      tag_34\n        /* \"contracts/FYJ_STAKINGPOOL.sol\":29188:29206  earned(msg.sender) */\n      jump\t// in\n    tag_148:\n        /* \"contracts/FYJ_STAKINGPOOL.sol\":29171:29206  uint256 reward = earned(msg.sender) */\n      swap1\n      pop\n        /* \"contracts/FYJ_STAKINGPOOL.sol\":29263:29264  0 */\n      0x00\n        /* \"contracts/FYJ_STAKINGPOOL.sol\":29254:29260  reward */\n      dup2\n        /* \"contracts/FYJ_STAKINGPOOL.sol\":29254:29264  reward > 0 */\n      gt\n        /* \"contracts/FYJ_STAKINGPOOL.sol\":29250:29540  if (reward > 0) {\r... */\n      iszero\n      tag_149\n      jumpi\n        /* \"contracts/FYJ_STAKINGPOOL.sol\":29354:29355  0 */\n      0x00\n        /* \"contracts/FYJ_STAKINGPOOL.sol\":29332:29339  rewards */\n      0x0d\n        /* \"contracts/FYJ_STAKINGPOOL.sol\":29332:29351  rewards[msg.sender] */\n      0x00\n        /* \"contracts/FYJ_STAKINGPOOL.sol\":29340:29350  msg.sender */\n      caller\n        /* \"contracts/FYJ_STAKINGPOOL.sol\":29332:29351  rewards[msg.sender] */\n      0xffffffffffffffffffffffffffffffffffffffff\n      and\n      0xffffffffffffffffffffffffffffffffffffffff\n      and\n      dup2\n      mstore\n      0x20\n      add\n      swap1\n      dup2\n      mstore\n      0x20\n      add\n      0x00\n      keccak256\n        /* \"contracts/FYJ_STAKINGPOOL.sol\":29332:29355  rewards[msg.sender] = 0 */\n      dup2\n      swap1\n      sstore\n      pop\n        /* \"contracts/FYJ_STAKINGPOOL.sol\":29399:29437  token.safeTransfer(msg.sender, reward) */\n      tag_150\n        /* \"contracts/FYJ_STAKINGPOOL.sol\":29418:29428  msg.sender */\n      caller\n        /* \"contracts/FYJ_STAKINGPOOL.sol\":29430:29436  reward */\n      dup3\n        /* \"contracts/FYJ_STAKINGPOOL.sol\":29399:29404  token */\n      0x05\n      0x00\n      swap1\n      sload\n      swap1\n      0x0100\n      exp\n      swap1\n      div\n      0xffffffffffffffffffffffffffffffffffffffff\n      and\n        /* \"contracts/FYJ_STAKINGPOOL.sol\":29399:29417  token.safeTransfer */\n      0xffffffffffffffffffffffffffffffffffffffff\n      and\n      tag_151\n      swap1\n        /* \"contracts/FYJ_STAKINGPOOL.sol\":29399:29437  token.safeTransfer(msg.sender, reward) */\n      swap3\n      swap2\n      swap1\n      0xffffffff\n      and\n      jump\t// in\n    tag_150:\n        /* \"contracts/FYJ_STAKINGPOOL.sol\":29509:29519  msg.sender */\n      caller\n        /* \"contracts/FYJ_STAKINGPOOL.sol\":29498:29528  RewardPaid(msg.sender, reward) */\n      0xffffffffffffffffffffffffffffffffffffffff\n      and\n      0xe2403640ba68fed3a2f88b7557551d1993f84b99bb10ff833f0cf8db0c5e0486\n        /* \"contracts/FYJ_STAKINGPOOL.sol\":29521:29527  reward */\n      dup3\n        /* \"contracts/FYJ_STAKINGPOOL.sol\":29498:29528  RewardPaid(msg.sender, reward) */\n      mload(0x40)\n      dup1\n      dup3\n      dup2\n      mstore\n      0x20\n      add\n      swap2\n      pop\n      pop\n      mload(0x40)\n      dup1\n      swap2\n      sub\n      swap1\n      log2\n        /* \"contracts/FYJ_STAKINGPOOL.sol\":29250:29540  if (reward > 0) {\r... */\n    tag_149:\n        /* \"contracts/FYJ_STAKINGPOOL.sol\":25567:25568  _ */\n      pop\n        /* \"contracts/FYJ_STAKINGPOOL.sol\":29044:29547  function getReward() public updateReward(msg.sender) checkStart {\r... */\n      pop\n      jump\t// out\n        /* \"contracts/FYJ_STAKINGPOOL.sol\":19887:19997  function balanceOf(address account) public view returns (uint256) {\r... */\n    tag_57:\n        /* \"contracts/FYJ_STAKINGPOOL.sol\":19944:19951  uint256 */\n      0x00\n        /* \"contracts/FYJ_STAKINGPOOL.sol\":19971:19980  _balances */\n      0x02\n        /* \"contracts/FYJ_STAKINGPOOL.sol\":19971:19989  _balances[account] */\n      0x00\n        /* \"contracts/FYJ_STAKINGPOOL.sol\":19981:19988  account */\n      dup4\n        /* \"contracts/FYJ_STAKINGPOOL.sol\":19971:19989  _balances[account] */\n      0xffffffffffffffffffffffffffffffffffffffff\n      and\n      0xffffffffffffffffffffffffffffffffffffffff\n      and\n      dup2\n      mstore\n      0x20\n      add\n      swap1\n      dup2\n      mstore\n      0x20\n      add\n      0x00\n      keccak256\n      sload\n        /* \"contracts/FYJ_STAKINGPOOL.sol\":19964:19989  return _balances[account] */\n      swap1\n      pop\n        /* \"contracts/FYJ_STAKINGPOOL.sol\":19887:19997  function balanceOf(address account) public view returns (uint256) {\r... */\n      swap2\n      swap1\n      pop\n      jump\t// out\n        /* \"contracts/FYJ_STAKINGPOOL.sol\":15548:15696  function renounceOwnership() public virtual onlyOwner {\r... */\n    tag_59:\n        /* \"contracts/FYJ_STAKINGPOOL.sol\":15128:15140  _msgSender() */\n      tag_154\n        /* \"contracts/FYJ_STAKINGPOOL.sol\":15128:15138  _msgSender */\n      tag_104\n        /* \"contracts/FYJ_STAKINGPOOL.sol\":15128:15140  _msgSender() */\n      jump\t// in\n    tag_154:\n        /* \"contracts/FYJ_STAKINGPOOL.sol\":15118:15140  _owner == _msgSender() */\n      0xffffffffffffffffffffffffffffffffffffffff\n      and\n        /* \"contracts/FYJ_STAKINGPOOL.sol\":15118:15124  _owner */\n      0x03\n      0x00\n      swap1\n      sload\n      swap1\n      0x0100\n      exp\n      swap1\n      div\n      0xffffffffffffffffffffffffffffffffffffffff\n      and\n        /* \"contracts/FYJ_STAKINGPOOL.sol\":15118:15140  _owner == _msgSender() */\n      0xffffffffffffffffffffffffffffffffffffffff\n      and\n      eq\n        /* \"contracts/FYJ_STAKINGPOOL.sol\":15110:15177  require(_owner == _msgSender(), \"Ownable: caller is not the owner\") */\n      tag_155\n      jumpi\n      mload(0x40)\n      0x08c379a000000000000000000000000000000000000000000000000000000000\n      dup2\n      mstore\n      0x04\n      add\n      dup1\n      dup1\n      0x20\n      add\n      dup3\n      dup2\n      sub\n      dup3\n      mstore\n      0x20\n      dup2\n      mstore\n      0x20\n      add\n      dup1\n      0x4f776e61626c653a2063616c6c6572206973206e6f7420746865206f776e6572\n      dup2\n      mstore\n      pop\n      0x20\n      add\n      swap2\n      pop\n      pop\n      mload(0x40)\n      dup1\n      swap2\n      sub\n      swap1\n      revert\n    tag_155:\n        /* \"contracts/FYJ_STAKINGPOOL.sol\":15655:15656  0 */\n      0x00\n        /* \"contracts/FYJ_STAKINGPOOL.sol\":15618:15658  OwnershipTransferred(_owner, address(0)) */\n      0xffffffffffffffffffffffffffffffffffffffff\n      and\n        /* \"contracts/FYJ_STAKINGPOOL.sol\":15639:15645  _owner */\n      0x03\n      0x00\n      swap1\n      sload\n      swap1\n      0x0100\n      exp\n      swap1\n      div\n      0xffffffffffffffffffffffffffffffffffffffff\n      and\n        /* \"contracts/FYJ_STAKINGPOOL.sol\":15618:15658  OwnershipTransferred(_owner, address(0)) */\n      0xffffffffffffffffffffffffffffffffffffffff\n      and\n      0x8be0079c531659141344cd1fd0a4f28419497f9722a3daafe3b4186f6b6457e0\n      mload(0x40)\n      mload(0x40)\n      dup1\n      swap2\n      sub\n      swap1\n      log3\n        /* \"contracts/FYJ_STAKINGPOOL.sol\":15686:15687  0 */\n      0x00\n        /* \"contracts/FYJ_STAKINGPOOL.sol\":15669:15675  _owner */\n      0x03\n      0x00\n        /* \"contracts/FYJ_STAKINGPOOL.sol\":15669:15688  _owner = address(0) */\n      0x0100\n      exp\n      dup2\n      sload\n      dup2\n      0xffffffffffffffffffffffffffffffffffffffff\n      mul\n      not\n      and\n      swap1\n      dup4\n      0xffffffffffffffffffffffffffffffffffffffff\n      and\n      mul\n      or\n      swap1\n      sstore\n      pop\n        /* \"contracts/FYJ_STAKINGPOOL.sol\":15548:15696  function renounceOwnership() public virtual onlyOwner {\r... */\n      jump\t// out\n        /* \"contracts/FYJ_STAKINGPOOL.sol\":24437:24466  uint256 public rewardRate = 0 */\n    tag_61:\n      sload(0x09)\n      dup2\n      jump\t// out\n        /* \"contracts/FYJ_STAKINGPOOL.sol\":26458:26638  function lastTimeRewardApplicable() public view returns (uint256) {\r... */\n    tag_63:\n        /* \"contracts/FYJ_STAKINGPOOL.sol\":26515:26522  uint256 */\n      0x00\n        /* \"contracts/FYJ_STAKINGPOOL.sol\":26591:26630  Math.min(block.timestamp, periodFinish) */\n      tag_158\n        /* \"contracts/FYJ_STAKINGPOOL.sol\":26600:26615  block.timestamp */\n      timestamp\n        /* \"contracts/FYJ_STAKINGPOOL.sol\":26617:26629  periodFinish */\n      sload(0x08)\n        /* \"contracts/FYJ_STAKINGPOOL.sol\":26591:26599  Math.min */\n      tag_159\n        /* \"contracts/FYJ_STAKINGPOOL.sol\":26591:26630  Math.min(block.timestamp, periodFinish) */\n      jump\t// in\n    tag_158:\n        /* \"contracts/FYJ_STAKINGPOOL.sol\":26584:26630  return Math.min(block.timestamp, periodFinish) */\n      swap1\n      pop\n        /* \"contracts/FYJ_STAKINGPOOL.sol\":26458:26638  function lastTimeRewardApplicable() public view returns (uint256) {\r... */\n      swap1\n      jump\t// out\n        /* \"contracts/FYJ_STAKINGPOOL.sol\":24679:24736  mapping(address => uint256) public userRewardPerTokenPaid */\n    tag_66:\n      mstore(0x20, 0x0c)\n      dup1\n      0x00\n      mstore\n      keccak256(0x00, 0x40)\n      0x00\n      swap2\n      pop\n      swap1\n      pop\n      sload\n      dup2\n      jump\t// out\n        /* \"contracts/FYJ_STAKINGPOOL.sol\":24285:24309  uint256 public starttime */\n    tag_68:\n      sload(0x07)\n      dup2\n      jump\t// out\n        /* \"contracts/FYJ_STAKINGPOOL.sol\":14906:14985  function owner() public view returns (address) {\r... */\n    tag_70:\n        /* \"contracts/FYJ_STAKINGPOOL.sol\":14944:14951  address */\n      0x00\n        /* \"contracts/FYJ_STAKINGPOOL.sol\":14971:14977  _owner */\n      0x03\n      0x00\n      swap1\n      sload\n      swap1\n      0x0100\n      exp\n      swap1\n      div\n      0xffffffffffffffffffffffffffffffffffffffff\n      and\n        /* \"contracts/FYJ_STAKINGPOOL.sol\":14964:14977  return _owner */\n      swap1\n      pop\n        /* \"contracts/FYJ_STAKINGPOOL.sol\":14906:14985  function owner() public view returns (address) {\r... */\n      swap1\n      jump\t// out\n        /* \"contracts/FYJ_STAKINGPOOL.sol\":27989:28324  function stake(\r... */\n    tag_73:\n        /* \"contracts/FYJ_STAKINGPOOL.sol\":28065:28075  msg.sender */\n      caller\n        /* \"contracts/FYJ_STAKINGPOOL.sol\":25794:25810  rewardPerToken() */\n      tag_162\n        /* \"contracts/FYJ_STAKINGPOOL.sol\":25794:25808  rewardPerToken */\n      tag_77\n        /* \"contracts/FYJ_STAKINGPOOL.sol\":25794:25810  rewardPerToken() */\n      jump\t// in\n    tag_162:\n        /* \"contracts/FYJ_STAKINGPOOL.sol\":25771:25791  rewardPerTokenStored */\n      0x0b\n        /* \"contracts/FYJ_STAKINGPOOL.sol\":25771:25810  rewardPerTokenStored = rewardPerToken() */\n      dup2\n      swap1\n      sstore\n      pop\n        /* \"contracts/FYJ_STAKINGPOOL.sol\":25902:25928  lastTimeRewardApplicable() */\n      tag_163\n        /* \"contracts/FYJ_STAKINGPOOL.sol\":25902:25926  lastTimeRewardApplicable */\n      tag_63\n        /* \"contracts/FYJ_STAKINGPOOL.sol\":25902:25928  lastTimeRewardApplicable() */\n      jump\t// in\n    tag_163:\n        /* \"contracts/FYJ_STAKINGPOOL.sol\":25885:25899  lastUpdateTime */\n      0x0a\n        /* \"contracts/FYJ_STAKINGPOOL.sol\":25885:25928  lastUpdateTime = lastTimeRewardApplicable() */\n      dup2\n      swap1\n      sstore\n      pop\n        /* \"contracts/FYJ_STAKINGPOOL.sol\":26002:26003  0 */\n      0x00\n        /* \"contracts/FYJ_STAKINGPOOL.sol\":25983:26004  account != address(0) */\n      0xffffffffffffffffffffffffffffffffffffffff\n      and\n        /* \"contracts/FYJ_STAKINGPOOL.sol\":25983:25990  account */\n      dup2\n        /* \"contracts/FYJ_STAKINGPOOL.sol\":25983:26004  account != address(0) */\n      0xffffffffffffffffffffffffffffffffffffffff\n      and\n      eq\n        /* \"contracts/FYJ_STAKINGPOOL.sol\":25979:26277  if (account != address(0)) {\r... */\n      tag_164\n      jumpi\n        /* \"contracts/FYJ_STAKINGPOOL.sol\":26108:26123  earned(account) */\n      tag_165\n        /* \"contracts/FYJ_STAKINGPOOL.sol\":26115:26122  account */\n      dup2\n        /* \"contracts/FYJ_STAKINGPOOL.sol\":26108:26114  earned */\n      tag_34\n        /* \"contracts/FYJ_STAKINGPOOL.sol\":26108:26123  earned(account) */\n      jump\t// in\n    tag_165:\n        /* \"contracts/FYJ_STAKINGPOOL.sol\":26089:26096  rewards */\n      0x0d\n        /* \"contracts/FYJ_STAKINGPOOL.sol\":26089:26105  rewards[account] */\n      0x00\n        /* \"contracts/FYJ_STAKINGPOOL.sol\":26097:26104  account */\n      dup4\n        /* \"contracts/FYJ_STAKINGPOOL.sol\":26089:26105  rewards[account] */\n      0xffffffffffffffffffffffffffffffffffffffff\n      and\n      0xffffffffffffffffffffffffffffffffffffffff\n      and\n      dup2\n      mstore\n      0x20\n      add\n      swap1\n      dup2\n      mstore\n      0x20\n      add\n      0x00\n      keccak256\n        /* \"contracts/FYJ_STAKINGPOOL.sol\":26089:26123  rewards[account] = earned(account) */\n      dup2\n      swap1\n      sstore\n      pop\n        /* \"contracts/FYJ_STAKINGPOOL.sol\":26245:26265  rewardPerTokenStored */\n      sload(0x0b)\n        /* \"contracts/FYJ_STAKINGPOOL.sol\":26211:26233  userRewardPerTokenPaid */\n      0x0c\n        /* \"contracts/FYJ_STAKINGPOOL.sol\":26211:26242  userRewardPerTokenPaid[account] */\n      0x00\n        /* \"contracts/FYJ_STAKINGPOOL.sol\":26234:26241  account */\n      dup4\n        /* \"contracts/FYJ_STAKINGPOOL.sol\":26211:26242  userRewardPerTokenPaid[account] */\n      0xffffffffffffffffffffffffffffffffffffffff\n      and\n      0xffffffffffffffffffffffffffffffffffffffff\n      and\n      dup2\n      mstore\n      0x20\n      add\n      swap1\n      dup2\n      mstore\n      0x20\n      add\n      0x00\n      keccak256\n        /* \"contracts/FYJ_STAKINGPOOL.sol\":26211:26265  userRewardPerTokenPaid[account] = rewardPerTokenStored */\n      dup2\n      swap1\n      sstore\n      pop\n        /* \"contracts/FYJ_STAKINGPOOL.sol\":25979:26277  if (account != address(0)) {\r... */\n    tag_164:\n        /* \"contracts/FYJ_STAKINGPOOL.sol\":25515:25524  starttime */\n      sload(0x07)\n        /* \"contracts/FYJ_STAKINGPOOL.sol\":25496:25511  block.timestamp */\n      timestamp\n        /* \"contracts/FYJ_STAKINGPOOL.sol\":25496:25524  block.timestamp >= starttime */\n      lt\n      iszero\n        /* \"contracts/FYJ_STAKINGPOOL.sol\":25488:25556  require(block.timestamp >= starttime, 'LPTokenSharePool: not start') */\n      tag_167\n      jumpi\n      mload(0x40)\n      0x08c379a000000000000000000000000000000000000000000000000000000000\n      dup2\n      mstore\n      0x04\n      add\n      dup1\n      dup1\n      0x20\n      add\n      dup3\n      dup2\n      sub\n      dup3\n      mstore\n      0x1b\n      dup2\n      mstore\n      0x20\n      add\n      dup1\n      0x4c50546f6b656e5368617265506f6f6c3a206e6f742073746172740000000000\n      dup2\n      mstore\n      pop\n      0x20\n      add\n      swap2\n      pop\n      pop\n      mload(0x40)\n      dup1\n      swap2\n      sub\n      swap1\n      revert\n    tag_167:\n        /* \"contracts/FYJ_STAKINGPOOL.sol\":28143:28144  0 */\n      0x00\n        /* \"contracts/FYJ_STAKINGPOOL.sol\":28134:28140  amount */\n      dup3\n        /* \"contracts/FYJ_STAKINGPOOL.sol\":28134:28144  amount > 0 */\n      gt\n        /* \"contracts/FYJ_STAKINGPOOL.sol\":28126:28188  require(amount > 0, 'HUSDGOCLPTokenSharePool: Cannot stake 0') */\n      tag_169\n      jumpi\n      mload(0x40)\n      0x08c379a000000000000000000000000000000000000000000000000000000000\n      dup2\n      mstore\n      0x04\n      add\n      dup1\n      dup1\n      0x20\n      add\n      dup3\n      dup2\n      sub\n      dup3\n      mstore\n      0x27\n      dup2\n      mstore\n      0x20\n      add\n      dup1\n      data_9ef6714deeebfeb945a862ced486e6902694724a8279842e470c950ebd97af1c\n      0x27\n      swap2\n      codecopy\n      0x40\n      add\n      swap2\n      pop\n      pop\n      mload(0x40)\n      dup1\n      swap2\n      sub\n      swap1\n      revert\n    tag_169:\n        /* \"contracts/FYJ_STAKINGPOOL.sol\":28224:28243  super.stake(amount) */\n      tag_170\n        /* \"contracts/FYJ_STAKINGPOOL.sol\":28236:28242  amount */\n      dup3\n        /* \"contracts/FYJ_STAKINGPOOL.sol\":28224:28235  super.stake */\n      tag_171\n        /* \"contracts/FYJ_STAKINGPOOL.sol\":28224:28243  super.stake(amount) */\n      jump\t// in\n    tag_170:\n        /* \"contracts/FYJ_STAKINGPOOL.sol\":28297:28307  msg.sender */\n      caller\n        /* \"contracts/FYJ_STAKINGPOOL.sol\":28290:28316  Staked(msg.sender, amount) */\n      0xffffffffffffffffffffffffffffffffffffffff\n      and\n      0x9e71bc8eea02a63969f509818f2dafb9254532904319f9dbda79b67bd34a5f3d\n        /* \"contracts/FYJ_STAKINGPOOL.sol\":28309:28315  amount */\n      dup4\n        /* \"contracts/FYJ_STAKINGPOOL.sol\":28290:28316  Staked(msg.sender, amount) */\n      mload(0x40)\n      dup1\n      dup3\n      dup2\n      mstore\n      0x20\n      add\n      swap2\n      pop\n      pop\n      mload(0x40)\n      dup1\n      swap2\n      sub\n      swap1\n      log2\n        /* \"contracts/FYJ_STAKINGPOOL.sol\":27989:28324  function stake(\r... */\n      pop\n      pop\n      jump\t// out\n        /* \"contracts/FYJ_STAKINGPOOL.sol\":24509:24538  uint256 public lastUpdateTime */\n    tag_75:\n      sload(0x0a)\n      dup2\n      jump\t// out\n        /* \"contracts/FYJ_STAKINGPOOL.sol\":26733:27294  function rewardPerToken() public view returns (uint256) {\r... */\n    tag_77:\n        /* \"contracts/FYJ_STAKINGPOOL.sol\":26780:26787  uint256 */\n      0x00\n        /* \"contracts/FYJ_STAKINGPOOL.sol\":26841:26842  0 */\n      dup1\n        /* \"contracts/FYJ_STAKINGPOOL.sol\":26824:26837  totalSupply() */\n      tag_173\n        /* \"contracts/FYJ_STAKINGPOOL.sol\":26824:26835  totalSupply */\n      tag_44\n        /* \"contracts/FYJ_STAKINGPOOL.sol\":26824:26837  totalSupply() */\n      jump\t// in\n    tag_173:\n        /* \"contracts/FYJ_STAKINGPOOL.sol\":26824:26842  totalSupply() == 0 */\n      eq\n        /* \"contracts/FYJ_STAKINGPOOL.sol\":26820:26898  if (totalSupply() == 0) {\r... */\n      iszero\n      tag_174\n      jumpi\n        /* \"contracts/FYJ_STAKINGPOOL.sol\":26866:26886  rewardPerTokenStored */\n      sload(0x0b)\n        /* \"contracts/FYJ_STAKINGPOOL.sol\":26859:26886  return rewardPerTokenStored */\n      swap1\n      pop\n      jump(tag_172)\n        /* \"contracts/FYJ_STAKINGPOOL.sol\":26820:26898  if (totalSupply() == 0) {\r... */\n    tag_174:\n        /* \"contracts/FYJ_STAKINGPOOL.sol\":27049:27286  rewardPerTokenStored.add(\r... */\n      tag_175\n        /* \"contracts/FYJ_STAKINGPOOL.sol\":27092:27271  lastTimeRewardApplicable()\r... */\n      tag_176\n        /* \"contracts/FYJ_STAKINGPOOL.sol\":27257:27270  totalSupply() */\n      tag_177\n        /* \"contracts/FYJ_STAKINGPOOL.sol\":27257:27268  totalSupply */\n      tag_44\n        /* \"contracts/FYJ_STAKINGPOOL.sol\":27257:27270  totalSupply() */\n      jump\t// in\n    tag_177:\n        /* \"contracts/FYJ_STAKINGPOOL.sol\":27092:27230  lastTimeRewardApplicable()\r... */\n      tag_178\n        /* \"contracts/FYJ_STAKINGPOOL.sol\":27225:27229  1e18 */\n      0x0de0b6b3a7640000\n        /* \"contracts/FYJ_STAKINGPOOL.sol\":27092:27198  lastTimeRewardApplicable()\r... */\n      tag_179\n        /* \"contracts/FYJ_STAKINGPOOL.sol\":27187:27197  rewardRate */\n      sload(0x09)\n        /* \"contracts/FYJ_STAKINGPOOL.sol\":27092:27160  lastTimeRewardApplicable()\r... */\n      tag_180\n        /* \"contracts/FYJ_STAKINGPOOL.sol\":27145:27159  lastUpdateTime */\n      sload(0x0a)\n        /* \"contracts/FYJ_STAKINGPOOL.sol\":27092:27118  lastTimeRewardApplicable() */\n      tag_181\n        /* \"contracts/FYJ_STAKINGPOOL.sol\":27092:27116  lastTimeRewardApplicable */\n      tag_63\n        /* \"contracts/FYJ_STAKINGPOOL.sol\":27092:27118  lastTimeRewardApplicable() */\n      jump\t// in\n    tag_181:\n        /* \"contracts/FYJ_STAKINGPOOL.sol\":27092:27144  lastTimeRewardApplicable()\r... */\n      tag_97\n      swap1\n        /* \"contracts/FYJ_STAKINGPOOL.sol\":27092:27160  lastTimeRewardApplicable()\r... */\n      swap2\n      swap1\n      0xffffffff\n      and\n      jump\t// in\n    tag_180:\n        /* \"contracts/FYJ_STAKINGPOOL.sol\":27092:27186  lastTimeRewardApplicable()\r... */\n      tag_99\n      swap1\n        /* \"contracts/FYJ_STAKINGPOOL.sol\":27092:27198  lastTimeRewardApplicable()\r... */\n      swap2\n      swap1\n      0xffffffff\n      and\n      jump\t// in\n    tag_179:\n        /* \"contracts/FYJ_STAKINGPOOL.sol\":27092:27224  lastTimeRewardApplicable()\r... */\n      tag_99\n      swap1\n        /* \"contracts/FYJ_STAKINGPOOL.sol\":27092:27230  lastTimeRewardApplicable()\r... */\n      swap2\n      swap1\n      0xffffffff\n      and\n      jump\t// in\n    tag_178:\n        /* \"contracts/FYJ_STAKINGPOOL.sol\":27092:27256  lastTimeRewardApplicable()\r... */\n      tag_100\n      swap1\n        /* \"contracts/FYJ_STAKINGPOOL.sol\":27092:27271  lastTimeRewardApplicable()\r... */\n      swap2\n      swap1\n      0xffffffff\n      and\n      jump\t// in\n    tag_176:\n        /* \"contracts/FYJ_STAKINGPOOL.sol\":27049:27069  rewardPerTokenStored */\n      sload(0x0b)\n        /* \"contracts/FYJ_STAKINGPOOL.sol\":27049:27073  rewardPerTokenStored.add */\n      tag_101\n      swap1\n        /* \"contracts/FYJ_STAKINGPOOL.sol\":27049:27286  rewardPerTokenStored.add(\r... */\n      swap2\n      swap1\n      0xffffffff\n      and\n      jump\t// in\n    tag_175:\n        /* \"contracts/FYJ_STAKINGPOOL.sol\":27029:27286  return\r... */\n      swap1\n      pop\n        /* \"contracts/FYJ_STAKINGPOOL.sol\":26733:27294  function rewardPerToken() public view returns (uint256) {\r... */\n    tag_172:\n      swap1\n      jump\t// out\n        /* \"contracts/FYJ_STAKINGPOOL.sol\":19443:19460  IERC20 public lpt */\n    tag_79:\n      0x00\n      dup1\n      sload\n      swap1\n      0x0100\n      exp\n      swap1\n      div\n      0xffffffffffffffffffffffffffffffffffffffff\n      and\n      dup2\n      jump\t// out\n        /* \"contracts/FYJ_STAKINGPOOL.sol\":24581:24616  uint256 public rewardPerTokenStored */\n    tag_81:\n      sload(0x0b)\n      dup2\n      jump\t// out\n        /* \"contracts/FYJ_STAKINGPOOL.sol\":28824:28992  function exit() external {\r... */\n    tag_83:\n        /* \"contracts/FYJ_STAKINGPOOL.sol\":28906:28937  withdraw(balanceOf(msg.sender)) */\n      tag_183\n        /* \"contracts/FYJ_STAKINGPOOL.sol\":28915:28936  balanceOf(msg.sender) */\n      tag_184\n        /* \"contracts/FYJ_STAKINGPOOL.sol\":28925:28935  msg.sender */\n      caller\n        /* \"contracts/FYJ_STAKINGPOOL.sol\":28915:28924  balanceOf */\n      tag_57\n        /* \"contracts/FYJ_STAKINGPOOL.sol\":28915:28936  balanceOf(msg.sender) */\n      jump\t// in\n    tag_184:\n        /* \"contracts/FYJ_STAKINGPOOL.sol\":28906:28914  withdraw */\n      tag_49\n        /* \"contracts/FYJ_STAKINGPOOL.sol\":28906:28937  withdraw(balanceOf(msg.sender)) */\n      jump\t// in\n    tag_183:\n        /* \"contracts/FYJ_STAKINGPOOL.sol\":28973:28984  getReward() */\n      tag_185\n        /* \"contracts/FYJ_STAKINGPOOL.sol\":28973:28982  getReward */\n      tag_54\n        /* \"contracts/FYJ_STAKINGPOOL.sol\":28973:28984  getReward() */\n      jump\t// in\n    tag_185:\n        /* \"contracts/FYJ_STAKINGPOOL.sol\":28824:28992  function exit() external {\r... */\n      jump\t// out\n        /* \"contracts/FYJ_STAKINGPOOL.sol\":24363:24394  uint256 public periodFinish = 0 */\n    tag_85:\n      sload(0x08)\n      dup2\n      jump\t// out\n        /* \"contracts/FYJ_STAKINGPOOL.sol\":15851:16095  function transferOwnership(address newOwner) public virtual onlyOwner {\r... */\n    tag_88:\n        /* \"contracts/FYJ_STAKINGPOOL.sol\":15128:15140  _msgSender() */\n      tag_187\n        /* \"contracts/FYJ_STAKINGPOOL.sol\":15128:15138  _msgSender */\n      tag_104\n        /* \"contracts/FYJ_STAKINGPOOL.sol\":15128:15140  _msgSender() */\n      jump\t// in\n    tag_187:\n        /* \"contracts/FYJ_STAKINGPOOL.sol\":15118:15140  _owner == _msgSender() */\n      0xffffffffffffffffffffffffffffffffffffffff\n      and\n        /* \"contracts/FYJ_STAKINGPOOL.sol\":15118:15124  _owner */\n      0x03\n      0x00\n      swap1\n      sload\n      swap1\n      0x0100\n      exp\n      swap1\n      div\n      0xffffffffffffffffffffffffffffffffffffffff\n      and\n        /* \"contracts/FYJ_STAKINGPOOL.sol\":15118:15140  _owner == _msgSender() */\n      0xffffffffffffffffffffffffffffffffffffffff\n      and\n      eq\n        /* \"contracts/FYJ_STAKINGPOOL.sol\":15110:15177  require(_owner == _msgSender(), \"Ownable: caller is not the owner\") */\n      tag_188\n      jumpi\n      mload(0x40)\n      0x08c379a000000000000000000000000000000000000000000000000000000000\n      dup2\n      mstore\n      0x04\n      add\n      dup1\n      dup1\n      0x20\n      add\n      dup3\n      dup2\n      sub\n      dup3\n      mstore\n      0x20\n      dup2\n      mstore\n      0x20\n      add\n      dup1\n      0x4f776e61626c653a2063616c6c6572206973206e6f7420746865206f776e6572\n      dup2\n      mstore\n      pop\n      0x20\n      add\n      swap2\n      pop\n      pop\n      mload(0x40)\n      dup1\n      swap2\n      sub\n      swap1\n      revert\n    tag_188:\n        /* \"contracts/FYJ_STAKINGPOOL.sol\":15960:15961  0 */\n      0x00\n        /* \"contracts/FYJ_STAKINGPOOL.sol\":15940:15962  newOwner != address(0) */\n      0xffffffffffffffffffffffffffffffffffffffff\n      and\n        /* \"contracts/FYJ_STAKINGPOOL.sol\":15940:15948  newOwner */\n      dup2\n        /* \"contracts/FYJ_STAKINGPOOL.sol\":15940:15962  newOwner != address(0) */\n      0xffffffffffffffffffffffffffffffffffffffff\n      and\n      eq\n      iszero\n        /* \"contracts/FYJ_STAKINGPOOL.sol\":15932:16005  require(newOwner != address(0), \"Ownable: new owner is the zero address\") */\n      tag_190\n      jumpi\n      mload(0x40)\n      0x08c379a000000000000000000000000000000000000000000000000000000000\n      dup2\n      mstore\n      0x04\n      add\n      dup1\n      dup1\n      0x20\n      add\n      dup3\n      dup2\n      sub\n      dup3\n      mstore\n      0x26\n      dup2\n      mstore\n      0x20\n      add\n      dup1\n      data_245f15ff17f551913a7a18385165551503906a406f905ac1c2437281a7cd0cfe\n      0x26\n      swap2\n      codecopy\n      0x40\n      add\n      swap2\n      pop\n      pop\n      mload(0x40)\n      dup1\n      swap2\n      sub\n      swap1\n      revert\n    tag_190:\n        /* \"contracts/FYJ_STAKINGPOOL.sol\":16050:16058  newOwner */\n      dup1\n        /* \"contracts/FYJ_STAKINGPOOL.sol\":16021:16059  OwnershipTransferred(_owner, newOwner) */\n      0xffffffffffffffffffffffffffffffffffffffff\n      and\n        /* \"contracts/FYJ_STAKINGPOOL.sol\":16042:16048  _owner */\n      0x03\n      0x00\n      swap1\n      sload\n      swap1\n      0x0100\n      exp\n      swap1\n      div\n      0xffffffffffffffffffffffffffffffffffffffff\n      and\n        /* \"contracts/FYJ_STAKINGPOOL.sol\":16021:16059  OwnershipTransferred(_owner, newOwner) */\n      0xffffffffffffffffffffffffffffffffffffffff\n      and\n      0x8be0079c531659141344cd1fd0a4f28419497f9722a3daafe3b4186f6b6457e0\n      mload(0x40)\n      mload(0x40)\n      dup1\n      swap2\n      sub\n      swap1\n      log3\n        /* \"contracts/FYJ_STAKINGPOOL.sol\":16079:16087  newOwner */\n      dup1\n        /* \"contracts/FYJ_STAKINGPOOL.sol\":16070:16076  _owner */\n      0x03\n      0x00\n        /* \"contracts/FYJ_STAKINGPOOL.sol\":16070:16087  _owner = newOwner */\n      0x0100\n      exp\n      dup2\n      sload\n      dup2\n      0xffffffffffffffffffffffffffffffffffffffff\n      mul\n      not\n      and\n      swap1\n      dup4\n      0xffffffffffffffffffffffffffffffffffffffff\n      and\n      mul\n      or\n      swap1\n      sstore\n      pop\n        /* \"contracts/FYJ_STAKINGPOOL.sol\":15851:16095  function transferOwnership(address newOwner) public virtual onlyOwner {\r... */\n      pop\n      jump\t// out\n        /* \"contracts/FYJ_STAKINGPOOL.sol\":24149:24168  IERC20 public token */\n    tag_90:\n      0x05\n      0x00\n      swap1\n      sload\n      swap1\n      0x0100\n      exp\n      swap1\n      div\n      0xffffffffffffffffffffffffffffffffffffffff\n      and\n      dup2\n      jump\t// out\n        /* \"contracts/FYJ_STAKINGPOOL.sol\":3442:3578  function sub(uint256 a, uint256 b) internal pure returns (uint256) {\r... */\n    tag_97:\n        /* \"contracts/FYJ_STAKINGPOOL.sol\":3500:3507  uint256 */\n      0x00\n        /* \"contracts/FYJ_STAKINGPOOL.sol\":3527:3570  sub(a, b, \"SafeMath: subtraction overflow\") */\n      tag_192\n        /* \"contracts/FYJ_STAKINGPOOL.sol\":3531:3532  a */\n      dup4\n        /* \"contracts/FYJ_STAKINGPOOL.sol\":3534:3535  b */\n      dup4\n        /* \"contracts/FYJ_STAKINGPOOL.sol\":3527:3570  sub(a, b, \"SafeMath: subtraction overflow\") */\n      mload(0x40)\n      dup1\n      0x40\n      add\n      0x40\n      mstore\n      dup1\n      0x1e\n      dup2\n      mstore\n      0x20\n      add\n      0x536166654d6174683a207375627472616374696f6e206f766572666c6f770000\n      dup2\n      mstore\n      pop\n        /* \"contracts/FYJ_STAKINGPOOL.sol\":3527:3530  sub */\n      tag_193\n        /* \"contracts/FYJ_STAKINGPOOL.sol\":3527:3570  sub(a, b, \"SafeMath: subtraction overflow\") */\n      jump\t// in\n    tag_192:\n        /* \"contracts/FYJ_STAKINGPOOL.sol\":3520:3570  return sub(a, b, \"SafeMath: subtraction overflow\") */\n      swap1\n      pop\n        /* \"contracts/FYJ_STAKINGPOOL.sol\":3442:3578  function sub(uint256 a, uint256 b) internal pure returns (uint256) {\r... */\n      swap3\n      swap2\n      pop\n      pop\n      jump\t// out\n        /* \"contracts/FYJ_STAKINGPOOL.sol\":4332:4803  function mul(uint256 a, uint256 b) internal pure returns (uint256) {\r... */\n    tag_99:\n        /* \"contracts/FYJ_STAKINGPOOL.sol\":4390:4397  uint256 */\n      0x00\n        /* \"contracts/FYJ_STAKINGPOOL.sol\":4640:4641  0 */\n      dup1\n        /* \"contracts/FYJ_STAKINGPOOL.sol\":4635:4636  a */\n      dup4\n        /* \"contracts/FYJ_STAKINGPOOL.sol\":4635:4641  a == 0 */\n      eq\n        /* \"contracts/FYJ_STAKINGPOOL.sol\":4631:4678  if (a == 0) {\r... */\n      iszero\n      tag_195\n      jumpi\n        /* \"contracts/FYJ_STAKINGPOOL.sol\":4665:4666  0 */\n      0x00\n        /* \"contracts/FYJ_STAKINGPOOL.sol\":4658:4666  return 0 */\n      swap1\n      pop\n      jump(tag_194)\n        /* \"contracts/FYJ_STAKINGPOOL.sol\":4631:4678  if (a == 0) {\r... */\n    tag_195:\n        /* \"contracts/FYJ_STAKINGPOOL.sol\":4690:4699  uint256 c */\n      0x00\n        /* \"contracts/FYJ_STAKINGPOOL.sol\":4706:4707  b */\n      dup3\n        /* \"contracts/FYJ_STAKINGPOOL.sol\":4702:4703  a */\n      dup5\n        /* \"contracts/FYJ_STAKINGPOOL.sol\":4702:4707  a * b */\n      mul\n        /* \"contracts/FYJ_STAKINGPOOL.sol\":4690:4707  uint256 c = a * b */\n      swap1\n      pop\n        /* \"contracts/FYJ_STAKINGPOOL.sol\":4735:4736  b */\n      dup3\n        /* \"contracts/FYJ_STAKINGPOOL.sol\":4730:4731  a */\n      dup5\n        /* \"contracts/FYJ_STAKINGPOOL.sol\":4726:4727  c */\n      dup3\n        /* \"contracts/FYJ_STAKINGPOOL.sol\":4726:4731  c / a */\n      dup2\n      tag_196\n      jumpi\n      invalid\n    tag_196:\n      div\n        /* \"contracts/FYJ_STAKINGPOOL.sol\":4726:4736  c / a == b */\n      eq\n        /* \"contracts/FYJ_STAKINGPOOL.sol\":4718:4774  require(c / a == b, \"SafeMath: multiplication overflow\") */\n      tag_197\n      jumpi\n      mload(0x40)\n      0x08c379a000000000000000000000000000000000000000000000000000000000\n      dup2\n      mstore\n      0x04\n      add\n      dup1\n      dup1\n      0x20\n      add\n      dup3\n      dup2\n      sub\n      dup3\n      mstore\n      0x21\n      dup2\n      mstore\n      0x20\n      add\n      dup1\n      data_9113bb53c2876a3805b2c9242029423fc540a728243ce887ab24c82cf119fba3\n      0x21\n      swap2\n      codecopy\n      0x40\n      add\n      swap2\n      pop\n      pop\n      mload(0x40)\n      dup1\n      swap2\n      sub\n      swap1\n      revert\n    tag_197:\n        /* \"contracts/FYJ_STAKINGPOOL.sol\":4794:4795  c */\n      dup1\n        /* \"contracts/FYJ_STAKINGPOOL.sol\":4787:4795  return c */\n      swap2\n      pop\n      pop\n        /* \"contracts/FYJ_STAKINGPOOL.sol\":4332:4803  function mul(uint256 a, uint256 b) internal pure returns (uint256) {\r... */\n    tag_194:\n      swap3\n      swap2\n      pop\n      pop\n      jump\t// out\n        /* \"contracts/FYJ_STAKINGPOOL.sol\":5279:5411  function div(uint256 a, uint256 b) internal pure returns (uint256) {\r... */\n    tag_100:\n        /* \"contracts/FYJ_STAKINGPOOL.sol\":5337:5344  uint256 */\n      0x00\n        /* \"contracts/FYJ_STAKINGPOOL.sol\":5364:5403  div(a, b, \"SafeMath: division by zero\") */\n      tag_199\n        /* \"contracts/FYJ_STAKINGPOOL.sol\":5368:5369  a */\n      dup4\n        /* \"contracts/FYJ_STAKINGPOOL.sol\":5371:5372  b */\n      dup4\n        /* \"contracts/FYJ_STAKINGPOOL.sol\":5364:5403  div(a, b, \"SafeMath: division by zero\") */\n      mload(0x40)\n      dup1\n      0x40\n      add\n      0x40\n      mstore\n      dup1\n      0x1a\n      dup2\n      mstore\n      0x20\n      add\n      0x536166654d6174683a206469766973696f6e206279207a65726f000000000000\n      dup2\n      mstore\n      pop\n        /* \"contracts/FYJ_STAKINGPOOL.sol\":5364:5367  div */\n      tag_200\n        /* \"contracts/FYJ_STAKINGPOOL.sol\":5364:5403  div(a, b, \"SafeMath: division by zero\") */\n      jump\t// in\n    tag_199:\n        /* \"contracts/FYJ_STAKINGPOOL.sol\":5357:5403  return div(a, b, \"SafeMath: division by zero\") */\n      swap1\n      pop\n        /* \"contracts/FYJ_STAKINGPOOL.sol\":5279:5411  function div(uint256 a, uint256 b) internal pure returns (uint256) {\r... */\n      swap3\n      swap2\n      pop\n      pop\n      jump\t// out\n        /* \"contracts/FYJ_STAKINGPOOL.sol\":2978:3159  function add(uint256 a, uint256 b) internal pure returns (uint256) {\r... */\n    tag_101:\n        /* \"contracts/FYJ_STAKINGPOOL.sol\":3036:3043  uint256 */\n      0x00\n        /* \"contracts/FYJ_STAKINGPOOL.sol\":3056:3065  uint256 c */\n      dup1\n        /* \"contracts/FYJ_STAKINGPOOL.sol\":3072:3073  b */\n      dup3\n        /* \"contracts/FYJ_STAKINGPOOL.sol\":3068:3069  a */\n      dup5\n        /* \"contracts/FYJ_STAKINGPOOL.sol\":3068:3073  a + b */\n      add\n        /* \"contracts/FYJ_STAKINGPOOL.sol\":3056:3073  uint256 c = a + b */\n      swap1\n      pop\n        /* \"contracts/FYJ_STAKINGPOOL.sol\":3097:3098  a */\n      dup4\n        /* \"contracts/FYJ_STAKINGPOOL.sol\":3092:3093  c */\n      dup2\n        /* \"contracts/FYJ_STAKINGPOOL.sol\":3092:3098  c >= a */\n      lt\n      iszero\n        /* \"contracts/FYJ_STAKINGPOOL.sol\":3084:3130  require(c >= a, \"SafeMath: addition overflow\") */\n      tag_202\n      jumpi\n      mload(0x40)\n      0x08c379a000000000000000000000000000000000000000000000000000000000\n      dup2\n      mstore\n      0x04\n      add\n      dup1\n      dup1\n      0x20\n      add\n      dup3\n      dup2\n      sub\n      dup3\n      mstore\n      0x1b\n      dup2\n      mstore\n      0x20\n      add\n      dup1\n      0x536166654d6174683a206164646974696f6e206f766572666c6f770000000000\n      dup2\n      mstore\n      pop\n      0x20\n      add\n      swap2\n      pop\n      pop\n      mload(0x40)\n      dup1\n      swap2\n      sub\n      swap1\n      revert\n    tag_202:\n        /* \"contracts/FYJ_STAKINGPOOL.sol\":3150:3151  c */\n      dup1\n        /* \"contracts/FYJ_STAKINGPOOL.sol\":3143:3151  return c */\n      swap2\n      pop\n      pop\n        /* \"contracts/FYJ_STAKINGPOOL.sol\":2978:3159  function add(uint256 a, uint256 b) internal pure returns (uint256) {\r... */\n      swap3\n      swap2\n      pop\n      pop\n      jump\t// out\n        /* \"contracts/FYJ_STAKINGPOOL.sol\":14051:14157  function _msgSender() internal view virtual returns (address payable) {\r... */\n    tag_104:\n        /* \"contracts/FYJ_STAKINGPOOL.sol\":14104:14119  address payable */\n      0x00\n        /* \"contracts/FYJ_STAKINGPOOL.sol\":14139:14149  msg.sender */\n      caller\n        /* \"contracts/FYJ_STAKINGPOOL.sol\":14132:14149  return msg.sender */\n      swap1\n      pop\n        /* \"contracts/FYJ_STAKINGPOOL.sol\":14051:14157  function _msgSender() internal view virtual returns (address payable) {\r... */\n      swap1\n      jump\t// out\n        /* \"contracts/FYJ_STAKINGPOOL.sol\":20525:21070  function withdraw(uint256 amount) public virtual {\r... */\n    tag_118:\n        /* \"contracts/FYJ_STAKINGPOOL.sol\":20622:20643  uint256 directorShare */\n      0x00\n        /* \"contracts/FYJ_STAKINGPOOL.sol\":20646:20655  _balances */\n      0x02\n        /* \"contracts/FYJ_STAKINGPOOL.sol\":20646:20667  _balances[msg.sender] */\n      0x00\n        /* \"contracts/FYJ_STAKINGPOOL.sol\":20656:20666  msg.sender */\n      caller\n        /* \"contracts/FYJ_STAKINGPOOL.sol\":20646:20667  _balances[msg.sender] */\n      0xffffffffffffffffffffffffffffffffffffffff\n      and\n      0xffffffffffffffffffffffffffffffffffffffff\n      and\n      dup2\n      mstore\n      0x20\n      add\n      swap1\n      dup2\n      mstore\n      0x20\n      add\n      0x00\n      keccak256\n      sload\n        /* \"contracts/FYJ_STAKINGPOOL.sol\":20622:20667  uint256 directorShare = _balances[msg.sender] */\n      swap1\n      pop\n        /* \"contracts/FYJ_STAKINGPOOL.sol\":20755:20761  amount */\n      dup2\n        /* \"contracts/FYJ_STAKINGPOOL.sol\":20738:20751  directorShare */\n      dup2\n        /* \"contracts/FYJ_STAKINGPOOL.sol\":20738:20761  directorShare >= amount */\n      lt\n      iszero\n        /* \"contracts/FYJ_STAKINGPOOL.sol\":20730:20809  require(directorShare >= amount, 'withdraw request greater than staked amount') */\n      tag_205\n      jumpi\n      mload(0x40)\n      0x08c379a000000000000000000000000000000000000000000000000000000000\n      dup2\n      mstore\n      0x04\n      add\n      dup1\n      dup1\n      0x20\n      add\n      dup3\n      dup2\n      sub\n      dup3\n      mstore\n      0x2b\n      dup2\n      mstore\n      0x20\n      add\n      dup1\n      data_f29ed7fc561f9739237966a5dd12e925d81e5f10e77bc59c72af68e298e197a2\n      0x2b\n      swap2\n      codecopy\n      0x40\n      add\n      swap2\n      pop\n      pop\n      mload(0x40)\n      dup1\n      swap2\n      sub\n      swap1\n      revert\n    tag_205:\n        /* \"contracts/FYJ_STAKINGPOOL.sol\":20860:20884  _totalSupply.sub(amount) */\n      tag_206\n        /* \"contracts/FYJ_STAKINGPOOL.sol\":20877:20883  amount */\n      dup3\n        /* \"contracts/FYJ_STAKINGPOOL.sol\":20860:20872  _totalSupply */\n      sload(0x01)\n        /* \"contracts/FYJ_STAKINGPOOL.sol\":20860:20876  _totalSupply.sub */\n      tag_97\n      swap1\n        /* \"contracts/FYJ_STAKINGPOOL.sol\":20860:20884  _totalSupply.sub(amount) */\n      swap2\n      swap1\n      0xffffffff\n      and\n      jump\t// in\n    tag_206:\n        /* \"contracts/FYJ_STAKINGPOOL.sol\":20845:20857  _totalSupply */\n      0x01\n        /* \"contracts/FYJ_STAKINGPOOL.sol\":20845:20884  _totalSupply = _totalSupply.sub(amount) */\n      dup2\n      swap1\n      sstore\n      pop\n        /* \"contracts/FYJ_STAKINGPOOL.sol\":20944:20977  _balances[msg.sender].sub(amount) */\n      tag_207\n        /* \"contracts/FYJ_STAKINGPOOL.sol\":20970:20976  amount */\n      dup3\n        /* \"contracts/FYJ_STAKINGPOOL.sol\":20944:20953  _balances */\n      0x02\n        /* \"contracts/FYJ_STAKINGPOOL.sol\":20944:20965  _balances[msg.sender] */\n      0x00\n        /* \"contracts/FYJ_STAKINGPOOL.sol\":20954:20964  msg.sender */\n      caller\n        /* \"contracts/FYJ_STAKINGPOOL.sol\":20944:20965  _balances[msg.sender] */\n      0xffffffffffffffffffffffffffffffffffffffff\n      and\n      0xffffffffffffffffffffffffffffffffffffffff\n      and\n      dup2\n      mstore\n      0x20\n      add\n      swap1\n      dup2\n      mstore\n      0x20\n      add\n      0x00\n      keccak256\n      sload\n        /* \"contracts/FYJ_STAKINGPOOL.sol\":20944:20969  _balances[msg.sender].sub */\n      tag_97\n      swap1\n        /* \"contracts/FYJ_STAKINGPOOL.sol\":20944:20977  _balances[msg.sender].sub(amount) */\n      swap2\n      swap1\n      0xffffffff\n      and\n      jump\t// in\n    tag_207:\n        /* \"contracts/FYJ_STAKINGPOOL.sol\":20920:20929  _balances */\n      0x02\n        /* \"contracts/FYJ_STAKINGPOOL.sol\":20920:20941  _balances[msg.sender] */\n      0x00\n        /* \"contracts/FYJ_STAKINGPOOL.sol\":20930:20940  msg.sender */\n      caller\n        /* \"contracts/FYJ_STAKINGPOOL.sol\":20920:20941  _balances[msg.sender] */\n      0xffffffffffffffffffffffffffffffffffffffff\n      and\n      0xffffffffffffffffffffffffffffffffffffffff\n      and\n      dup2\n      mstore\n      0x20\n      add\n      swap1\n      dup2\n      mstore\n      0x20\n      add\n      0x00\n      keccak256\n        /* \"contracts/FYJ_STAKINGPOOL.sol\":20920:20977  _balances[msg.sender] = _balances[msg.sender].sub(amount) */\n      dup2\n      swap1\n      sstore\n      pop\n        /* \"contracts/FYJ_STAKINGPOOL.sol\":21026:21062  lpt.safeTransfer(msg.sender, amount) */\n      tag_208\n        /* \"contracts/FYJ_STAKINGPOOL.sol\":21043:21053  msg.sender */\n      caller\n        /* \"contracts/FYJ_STAKINGPOOL.sol\":21055:21061  amount */\n      dup4\n        /* \"contracts/FYJ_STAKINGPOOL.sol\":21026:21029  lpt */\n      0x00\n      dup1\n      sload\n      swap1\n      0x0100\n      exp\n      swap1\n      div\n      0xffffffffffffffffffffffffffffffffffffffff\n      and\n        /* \"contracts/FYJ_STAKINGPOOL.sol\":21026:21042  lpt.safeTransfer */\n      0xffffffffffffffffffffffffffffffffffffffff\n      and\n      tag_151\n      swap1\n        /* \"contracts/FYJ_STAKINGPOOL.sol\":21026:21062  lpt.safeTransfer(msg.sender, amount) */\n      swap3\n      swap2\n      swap1\n      0xffffffff\n      and\n      jump\t// in\n    tag_208:\n        /* \"contracts/FYJ_STAKINGPOOL.sol\":20525:21070  function withdraw(uint256 amount) public virtual {\r... */\n      pop\n      pop\n      jump\t// out\n        /* \"contracts/FYJ_STAKINGPOOL.sol\":16192:16369  function safeTransfer(IERC20 token, address to, uint256 value) internal {\r... */\n    tag_151:\n        /* \"contracts/FYJ_STAKINGPOOL.sol\":16275:16361  _callOptionalReturn(token, abi.encodeWithSelector(token.transfer.selector, to, value)) */\n      tag_210\n        /* \"contracts/FYJ_STAKINGPOOL.sol\":16295:16300  token */\n      dup4\n        /* \"contracts/FYJ_STAKINGPOOL.sol\":16325:16348  token.transfer.selector */\n      shl(0xe0, 0xa9059cbb)\n        /* \"contracts/FYJ_STAKINGPOOL.sol\":16350:16352  to */\n      dup5\n        /* \"contracts/FYJ_STAKINGPOOL.sol\":16354:16359  value */\n      dup5\n        /* \"contracts/FYJ_STAKINGPOOL.sol\":16302:16360  abi.encodeWithSelector(token.transfer.selector, to, value) */\n      add(0x24, mload(0x40))\n      dup1\n      dup4\n      0xffffffffffffffffffffffffffffffffffffffff\n      and\n      dup2\n      mstore\n      0x20\n      add\n      dup3\n      dup2\n      mstore\n      0x20\n      add\n      swap3\n      pop\n      pop\n      pop\n      mload(0x40)\n      0x20\n      dup2\n      dup4\n      sub\n      sub\n      dup2\n      mstore\n      swap1\n      0x40\n      mstore\n      swap1\n      not(0xffffffffffffffffffffffffffffffffffffffffffffffffffffffff)\n      and\n      0x20\n      dup3\n      add\n      dup1\n      mload\n      0xffffffffffffffffffffffffffffffffffffffffffffffffffffffff\n      dup4\n      dup2\n      dup4\n      and\n      or\n      dup4\n      mstore\n      pop\n      pop\n      pop\n      pop\n        /* \"contracts/FYJ_STAKINGPOOL.sol\":16275:16294  _callOptionalReturn */\n      tag_211\n        /* \"contracts/FYJ_STAKINGPOOL.sol\":16275:16361  _callOptionalReturn(token, abi.encodeWithSelector(token.transfer.selector, to, value)) */\n      jump\t// in\n    tag_210:\n        /* \"contracts/FYJ_STAKINGPOOL.sol\":16192:16369  function safeTransfer(IERC20 token, address to, uint256 value) internal {\r... */\n      pop\n      pop\n      pop\n      jump\t// out\n        /* \"contracts/FYJ_STAKINGPOOL.sol\":7706:7812  function min(uint256 a, uint256 b) internal pure returns (uint256) {\r... */\n    tag_159:\n        /* \"contracts/FYJ_STAKINGPOOL.sol\":7764:7771  uint256 */\n      0x00\n        /* \"contracts/FYJ_STAKINGPOOL.sol\":7795:7796  b */\n      dup2\n        /* \"contracts/FYJ_STAKINGPOOL.sol\":7791:7792  a */\n      dup4\n        /* \"contracts/FYJ_STAKINGPOOL.sol\":7791:7796  a < b */\n      lt\n        /* \"contracts/FYJ_STAKINGPOOL.sol\":7791:7804  a < b ? a : b */\n      tag_213\n      jumpi\n        /* \"contracts/FYJ_STAKINGPOOL.sol\":7803:7804  b */\n      dup2\n        /* \"contracts/FYJ_STAKINGPOOL.sol\":7791:7804  a < b ? a : b */\n      jump(tag_214)\n    tag_213:\n        /* \"contracts/FYJ_STAKINGPOOL.sol\":7799:7800  a */\n      dup3\n        /* \"contracts/FYJ_STAKINGPOOL.sol\":7791:7804  a < b ? a : b */\n    tag_214:\n        /* \"contracts/FYJ_STAKINGPOOL.sol\":7784:7804  return a < b ? a : b */\n      swap1\n      pop\n        /* \"contracts/FYJ_STAKINGPOOL.sol\":7706:7812  function min(uint256 a, uint256 b) internal pure returns (uint256) {\r... */\n      swap3\n      swap2\n      pop\n      pop\n      jump\t// out\n        /* \"contracts/FYJ_STAKINGPOOL.sol\":20099:20437  function stake(uint256 amount) public virtual {\r... */\n    tag_171:\n        /* \"contracts/FYJ_STAKINGPOOL.sol\":20196:20220  _totalSupply.add(amount) */\n      tag_216\n        /* \"contracts/FYJ_STAKINGPOOL.sol\":20213:20219  amount */\n      dup2\n        /* \"contracts/FYJ_STAKINGPOOL.sol\":20196:20208  _totalSupply */\n      sload(0x01)\n        /* \"contracts/FYJ_STAKINGPOOL.sol\":20196:20212  _totalSupply.add */\n      tag_101\n      swap1\n        /* \"contracts/FYJ_STAKINGPOOL.sol\":20196:20220  _totalSupply.add(amount) */\n      swap2\n      swap1\n      0xffffffff\n      and\n      jump\t// in\n    tag_216:\n        /* \"contracts/FYJ_STAKINGPOOL.sol\":20181:20193  _totalSupply */\n      0x01\n        /* \"contracts/FYJ_STAKINGPOOL.sol\":20181:20220  _totalSupply = _totalSupply.add(amount) */\n      dup2\n      swap1\n      sstore\n      pop\n        /* \"contracts/FYJ_STAKINGPOOL.sol\":20286:20319  _balances[msg.sender].add(amount) */\n      tag_217\n        /* \"contracts/FYJ_STAKINGPOOL.sol\":20312:20318  amount */\n      dup2\n        /* \"contracts/FYJ_STAKINGPOOL.sol\":20286:20295  _balances */\n      0x02\n        /* \"contracts/FYJ_STAKINGPOOL.sol\":20286:20307  _balances[msg.sender] */\n      0x00\n        /* \"contracts/FYJ_STAKINGPOOL.sol\":20296:20306  msg.sender */\n      caller\n        /* \"contracts/FYJ_STAKINGPOOL.sol\":20286:20307  _balances[msg.sender] */\n      0xffffffffffffffffffffffffffffffffffffffff\n      and\n      0xffffffffffffffffffffffffffffffffffffffff\n      and\n      dup2\n      mstore\n      0x20\n      add\n      swap1\n      dup2\n      mstore\n      0x20\n      add\n      0x00\n      keccak256\n      sload\n        /* \"contracts/FYJ_STAKINGPOOL.sol\":20286:20311  _balances[msg.sender].add */\n      tag_101\n      swap1\n        /* \"contracts/FYJ_STAKINGPOOL.sol\":20286:20319  _balances[msg.sender].add(amount) */\n      swap2\n      swap1\n      0xffffffff\n      and\n      jump\t// in\n    tag_217:\n        /* \"contracts/FYJ_STAKINGPOOL.sol\":20262:20271  _balances */\n      0x02\n        /* \"contracts/FYJ_STAKINGPOOL.sol\":20262:20283  _balances[msg.sender] */\n      0x00\n        /* \"contracts/FYJ_STAKINGPOOL.sol\":20272:20282  msg.sender */\n      caller\n        /* \"contracts/FYJ_STAKINGPOOL.sol\":20262:20283  _balances[msg.sender] */\n      0xffffffffffffffffffffffffffffffffffffffff\n      and\n      0xffffffffffffffffffffffffffffffffffffffff\n      and\n      dup2\n      mstore\n      0x20\n      add\n      swap1\n      dup2\n      mstore\n      0x20\n      add\n      0x00\n      keccak256\n        /* \"contracts/FYJ_STAKINGPOOL.sol\":20262:20319  _balances[msg.sender] = _balances[msg.sender].add(amount) */\n      dup2\n      swap1\n      sstore\n      pop\n        /* \"contracts/FYJ_STAKINGPOOL.sol\":20374:20429  lpt.safeTransferFrom(msg.sender, address(this), amount) */\n      tag_218\n        /* \"contracts/FYJ_STAKINGPOOL.sol\":20395:20405  msg.sender */\n      caller\n        /* \"contracts/FYJ_STAKINGPOOL.sol\":20415:20419  this */\n      address\n        /* \"contracts/FYJ_STAKINGPOOL.sol\":20422:20428  amount */\n      dup4\n        /* \"contracts/FYJ_STAKINGPOOL.sol\":20374:20377  lpt */\n      0x00\n      dup1\n      sload\n      swap1\n      0x0100\n      exp\n      swap1\n      div\n      0xffffffffffffffffffffffffffffffffffffffff\n      and\n        /* \"contracts/FYJ_STAKINGPOOL.sol\":20374:20394  lpt.safeTransferFrom */\n      0xffffffffffffffffffffffffffffffffffffffff\n      and\n      tag_219\n      swap1\n        /* \"contracts/FYJ_STAKINGPOOL.sol\":20374:20429  lpt.safeTransferFrom(msg.sender, address(this), amount) */\n      swap4\n      swap3\n      swap2\n      swap1\n      0xffffffff\n      and\n      jump\t// in\n    tag_218:\n        /* \"contracts/FYJ_STAKINGPOOL.sol\":20099:20437  function stake(uint256 amount) public virtual {\r... */\n      pop\n      jump\t// out\n        /* \"contracts/FYJ_STAKINGPOOL.sol\":3881:4073  function sub(uint256 a, uint256 b, string memory errorMessage) internal pure returns (uint256) {\r... */\n    tag_193:\n        /* \"contracts/FYJ_STAKINGPOOL.sol\":3967:3974  uint256 */\n      0x00\n        /* \"contracts/FYJ_STAKINGPOOL.sol\":4000:4001  a */\n      dup4\n        /* \"contracts/FYJ_STAKINGPOOL.sol\":3995:3996  b */\n      dup4\n        /* \"contracts/FYJ_STAKINGPOOL.sol\":3995:4001  b <= a */\n      gt\n      iszero\n        /* \"contracts/FYJ_STAKINGPOOL.sol\":4003:4015  errorMessage */\n      dup3\n        /* \"contracts/FYJ_STAKINGPOOL.sol\":3987:4016  require(b <= a, errorMessage) */\n      swap1\n      tag_221\n      jumpi\n      mload(0x40)\n      0x08c379a000000000000000000000000000000000000000000000000000000000\n      dup2\n      mstore\n      0x04\n      add\n      dup1\n      dup1\n      0x20\n      add\n      dup3\n      dup2\n      sub\n      dup3\n      mstore\n      dup4\n      dup2\n      dup2\n      mload\n      dup2\n      mstore\n      0x20\n      add\n      swap2\n      pop\n      dup1\n      mload\n      swap1\n      0x20\n      add\n      swap1\n      dup1\n      dup4\n      dup4\n      0x00\n    tag_222:\n      dup4\n      dup2\n      lt\n      iszero\n      tag_224\n      jumpi\n      dup1\n      dup3\n      add\n      mload\n      dup2\n      dup5\n      add\n      mstore\n      0x20\n      dup2\n      add\n      swap1\n      pop\n      jump(tag_222)\n    tag_224:\n      pop\n      pop\n      pop\n      pop\n      swap1\n      pop\n      swap1\n      dup2\n      add\n      swap1\n      0x1f\n      and\n      dup1\n      iszero\n      tag_225\n      jumpi\n      dup1\n      dup3\n      sub\n      dup1\n      mload\n      0x01\n      dup4\n      0x20\n      sub\n      0x0100\n      exp\n      sub\n      not\n      and\n      dup2\n      mstore\n      0x20\n      add\n      swap2\n      pop\n    tag_225:\n      pop\n      swap3\n      pop\n      pop\n      pop\n      mload(0x40)\n      dup1\n      swap2\n      sub\n      swap1\n      revert\n    tag_221:\n      pop\n        /* \"contracts/FYJ_STAKINGPOOL.sol\":4027:4036  uint256 c */\n      0x00\n        /* \"contracts/FYJ_STAKINGPOOL.sol\":4043:4044  b */\n      dup4\n        /* \"contracts/FYJ_STAKINGPOOL.sol\":4039:4040  a */\n      dup6\n        /* \"contracts/FYJ_STAKINGPOOL.sol\":4039:4044  a - b */\n      sub\n        /* \"contracts/FYJ_STAKINGPOOL.sol\":4027:4044  uint256 c = a - b */\n      swap1\n      pop\n        /* \"contracts/FYJ_STAKINGPOOL.sol\":4064:4065  c */\n      dup1\n        /* \"contracts/FYJ_STAKINGPOOL.sol\":4057:4065  return c */\n      swap2\n      pop\n      pop\n        /* \"contracts/FYJ_STAKINGPOOL.sol\":3881:4073  function sub(uint256 a, uint256 b, string memory errorMessage) internal pure returns (uint256) {\r... */\n      swap4\n      swap3\n      pop\n      pop\n      pop\n      jump\t// out\n        /* \"contracts/FYJ_STAKINGPOOL.sol\":5907:6185  function div(uint256 a, uint256 b, string memory errorMessage) internal pure returns (uint256) {\r... */\n    tag_200:\n        /* \"contracts/FYJ_STAKINGPOOL.sol\":5993:6000  uint256 */\n      0x00\n        /* \"contracts/FYJ_STAKINGPOOL.sol\":6025:6026  0 */\n      dup1\n        /* \"contracts/FYJ_STAKINGPOOL.sol\":6021:6022  b */\n      dup4\n        /* \"contracts/FYJ_STAKINGPOOL.sol\":6021:6026  b > 0 */\n      gt\n        /* \"contracts/FYJ_STAKINGPOOL.sol\":6028:6040  errorMessage */\n      dup3\n        /* \"contracts/FYJ_STAKINGPOOL.sol\":6013:6041  require(b > 0, errorMessage) */\n      swap1\n      tag_227\n      jumpi\n      mload(0x40)\n      0x08c379a000000000000000000000000000000000000000000000000000000000\n      dup2\n      mstore\n      0x04\n      add\n      dup1\n      dup1\n      0x20\n      add\n      dup3\n      dup2\n      sub\n      dup3\n      mstore\n      dup4\n      dup2\n      dup2\n      mload\n      dup2\n      mstore\n      0x20\n      add\n      swap2\n      pop\n      dup1\n      mload\n      swap1\n      0x20\n      add\n      swap1\n      dup1\n      dup4\n      dup4\n      0x00\n    tag_228:\n      dup4\n      dup2\n      lt\n      iszero\n      tag_230\n      jumpi\n      dup1\n      dup3\n      add\n      mload\n      dup2\n      dup5\n      add\n      mstore\n      0x20\n      dup2\n      add\n      swap1\n      pop\n      jump(tag_228)\n    tag_230:\n      pop\n      pop\n      pop\n      pop\n      swap1\n      pop\n      swap1\n      dup2\n      add\n      swap1\n      0x1f\n      and\n      dup1\n      iszero\n      tag_231\n      jumpi\n      dup1\n      dup3\n      sub\n      dup1\n      mload\n      0x01\n      dup4\n      0x20\n      sub\n      0x0100\n      exp\n      sub\n      not\n      and\n      dup2\n      mstore\n      0x20\n      add\n      swap2\n      pop\n    tag_231:\n      pop\n      swap3\n      pop\n      pop\n      pop\n      mload(0x40)\n      dup1\n      swap2\n      sub\n      swap1\n      revert\n    tag_227:\n      pop\n        /* \"contracts/FYJ_STAKINGPOOL.sol\":6052:6061  uint256 c */\n      0x00\n        /* \"contracts/FYJ_STAKINGPOOL.sol\":6068:6069  b */\n      dup4\n        /* \"contracts/FYJ_STAKINGPOOL.sol\":6064:6065  a */\n      dup6\n        /* \"contracts/FYJ_STAKINGPOOL.sol\":6064:6069  a / b */\n      dup2\n      tag_232\n      jumpi\n      invalid\n    tag_232:\n      div\n        /* \"contracts/FYJ_STAKINGPOOL.sol\":6052:6069  uint256 c = a / b */\n      swap1\n      pop\n        /* \"contracts/FYJ_STAKINGPOOL.sol\":6176:6177  c */\n      dup1\n        /* \"contracts/FYJ_STAKINGPOOL.sol\":6169:6177  return c */\n      swap2\n      pop\n      pop\n        /* \"contracts/FYJ_STAKINGPOOL.sol\":5907:6185  function div(uint256 a, uint256 b, string memory errorMessage) internal pure returns (uint256) {\r... */\n      swap4\n      swap3\n      pop\n      pop\n      pop\n      jump\t// out\n        /* \"contracts/FYJ_STAKINGPOOL.sol\":18497:19258  function _callOptionalReturn(IERC20 token, bytes memory data) private {\r... */\n    tag_211:\n        /* \"contracts/FYJ_STAKINGPOOL.sol\":18921:18944  bytes memory returndata */\n      0x60\n        /* \"contracts/FYJ_STAKINGPOOL.sol\":18947:19016  address(token).functionCall(data, \"SafeERC20: low-level call failed\") */\n      tag_234\n        /* \"contracts/FYJ_STAKINGPOOL.sol\":18975:18979  data */\n      dup3\n        /* \"contracts/FYJ_STAKINGPOOL.sol\":18947:19016  address(token).functionCall(data, \"SafeERC20: low-level call failed\") */\n      mload(0x40)\n      dup1\n      0x40\n      add\n      0x40\n      mstore\n      dup1\n      0x20\n      dup2\n      mstore\n      0x20\n      add\n      0x5361666545524332303a206c6f772d6c6576656c2063616c6c206661696c6564\n      dup2\n      mstore\n      pop\n        /* \"contracts/FYJ_STAKINGPOOL.sol\":18955:18960  token */\n      dup6\n        /* \"contracts/FYJ_STAKINGPOOL.sol\":18947:18974  address(token).functionCall */\n      0xffffffffffffffffffffffffffffffffffffffff\n      and\n      tag_235\n      swap1\n        /* \"contracts/FYJ_STAKINGPOOL.sol\":18947:19016  address(token).functionCall(data, \"SafeERC20: low-level call failed\") */\n      swap3\n      swap2\n      swap1\n      0xffffffff\n      and\n      jump\t// in\n    tag_234:\n        /* \"contracts/FYJ_STAKINGPOOL.sol\":18921:19016  bytes memory returndata = address(token).functionCall(data, \"SafeERC20: low-level call failed\") */\n      swap1\n      pop\n        /* \"contracts/FYJ_STAKINGPOOL.sol\":19051:19052  0 */\n      0x00\n        /* \"contracts/FYJ_STAKINGPOOL.sol\":19031:19041  returndata */\n      dup2\n        /* \"contracts/FYJ_STAKINGPOOL.sol\":19031:19048  returndata.length */\n      mload\n        /* \"contracts/FYJ_STAKINGPOOL.sol\":19031:19052  returndata.length > 0 */\n      gt\n        /* \"contracts/FYJ_STAKINGPOOL.sol\":19027:19251  if (returndata.length > 0) { // Return data is optional\r... */\n      iszero\n      tag_236\n      jumpi\n        /* \"contracts/FYJ_STAKINGPOOL.sol\":19173:19183  returndata */\n      dup1\n        /* \"contracts/FYJ_STAKINGPOOL.sol\":19162:19192  abi.decode(returndata, (bool)) */\n      dup1\n      0x20\n      add\n      swap1\n      mload\n      0x20\n      dup2\n      lt\n      iszero\n      tag_237\n      jumpi\n      0x00\n      dup1\n      revert\n    tag_237:\n      dup2\n      add\n      swap1\n      dup1\n      dup1\n      mload\n      swap1\n      0x20\n      add\n      swap1\n      swap3\n      swap2\n      swap1\n      pop\n      pop\n      pop\n        /* \"contracts/FYJ_STAKINGPOOL.sol\":19154:19239  require(abi.decode(returndata, (bool)), \"SafeERC20: ERC20 operation did not succeed\") */\n      tag_238\n      jumpi\n      mload(0x40)\n      0x08c379a000000000000000000000000000000000000000000000000000000000\n      dup2\n      mstore\n      0x04\n      add\n      dup1\n      dup1\n      0x20\n      add\n      dup3\n      dup2\n      sub\n      dup3\n      mstore\n      0x2a\n      dup2\n      mstore\n      0x20\n      add\n      dup1\n      data_e11ad79d1e4a7f2e5f376964cb99e8e8f7904e3fc16a109f7a7ecb9aa7956dcd\n      0x2a\n      swap2\n      codecopy\n      0x40\n      add\n      swap2\n      pop\n      pop\n      mload(0x40)\n      dup1\n      swap2\n      sub\n      swap1\n      revert\n    tag_238:\n        /* \"contracts/FYJ_STAKINGPOOL.sol\":19027:19251  if (returndata.length > 0) { // Return data is optional\r... */\n    tag_236:\n        /* \"contracts/FYJ_STAKINGPOOL.sol\":18497:19258  function _callOptionalReturn(IERC20 token, bytes memory data) private {\r... */\n      pop\n      pop\n      pop\n      jump\t// out\n        /* \"contracts/FYJ_STAKINGPOOL.sol\":16377:16582  function safeTransferFrom(IERC20 token, address from, address to, uint256 value) internal {\r... */\n    tag_219:\n        /* \"contracts/FYJ_STAKINGPOOL.sol\":16478:16574  _callOptionalReturn(token, abi.encodeWithSelector(token.transferFrom.selector, from, to, value)) */\n      tag_240\n        /* \"contracts/FYJ_STAKINGPOOL.sol\":16498:16503  token */\n      dup5\n        /* \"contracts/FYJ_STAKINGPOOL.sol\":16528:16555  token.transferFrom.selector */\n      shl(0xe0, 0x23b872dd)\n        /* \"contracts/FYJ_STAKINGPOOL.sol\":16557:16561  from */\n      dup6\n        /* \"contracts/FYJ_STAKINGPOOL.sol\":16563:16565  to */\n      dup6\n        /* \"contracts/FYJ_STAKINGPOOL.sol\":16567:16572  value */\n      dup6\n        /* \"contracts/FYJ_STAKINGPOOL.sol\":16505:16573  abi.encodeWithSelector(token.transferFrom.selector, from, to, value) */\n      add(0x24, mload(0x40))\n      dup1\n      dup5\n      0xffffffffffffffffffffffffffffffffffffffff\n      and\n      dup2\n      mstore\n      0x20\n      add\n      dup4\n      0xffffffffffffffffffffffffffffffffffffffff\n      and\n      dup2\n      mstore\n      0x20\n      add\n      dup3\n      dup2\n      mstore\n      0x20\n      add\n      swap4\n      pop\n      pop\n      pop\n      pop\n      mload(0x40)\n      0x20\n      dup2\n      dup4\n      sub\n      sub\n      dup2\n      mstore\n      swap1\n      0x40\n      mstore\n      swap1\n      not(0xffffffffffffffffffffffffffffffffffffffffffffffffffffffff)\n      and\n      0x20\n      dup3\n      add\n      dup1\n      mload\n      0xffffffffffffffffffffffffffffffffffffffffffffffffffffffff\n      dup4\n      dup2\n      dup4\n      and\n      or\n      dup4\n      mstore\n      pop\n      pop\n      pop\n      pop\n        /* \"contracts/FYJ_STAKINGPOOL.sol\":16478:16497  _callOptionalReturn */\n      tag_211\n        /* \"contracts/FYJ_STAKINGPOOL.sol\":16478:16574  _callOptionalReturn(token, abi.encodeWithSelector(token.transferFrom.selector, from, to, value)) */\n      jump\t// in\n    tag_240:\n        /* \"contracts/FYJ_STAKINGPOOL.sol\":16377:16582  function safeTransferFrom(IERC20 token, address from, address to, uint256 value) internal {\r... */\n      pop\n      pop\n      pop\n      pop\n      jump\t// out\n        /* \"contracts/FYJ_STAKINGPOOL.sol\":11657:11853  function functionCall(address target, bytes memory data, string memory errorMessage) internal returns (bytes memory) {\r... */\n    tag_235:\n        /* \"contracts/FYJ_STAKINGPOOL.sol\":11760:11772  bytes memory */\n      0x60\n        /* \"contracts/FYJ_STAKINGPOOL.sol\":11792:11845  _functionCallWithValue(target, data, 0, errorMessage) */\n      tag_242\n        /* \"contracts/FYJ_STAKINGPOOL.sol\":11815:11821  target */\n      dup5\n        /* \"contracts/FYJ_STAKINGPOOL.sol\":11823:11827  data */\n      dup5\n        /* \"contracts/FYJ_STAKINGPOOL.sol\":11829:11830  0 */\n      0x00\n        /* \"contracts/FYJ_STAKINGPOOL.sol\":11832:11844  errorMessage */\n      dup6\n        /* \"contracts/FYJ_STAKINGPOOL.sol\":11792:11814  _functionCallWithValue */\n      tag_243\n        /* \"contracts/FYJ_STAKINGPOOL.sol\":11792:11845  _functionCallWithValue(target, data, 0, errorMessage) */\n      jump\t// in\n    tag_242:\n        /* \"contracts/FYJ_STAKINGPOOL.sol\":11785:11845  return _functionCallWithValue(target, data, 0, errorMessage) */\n      swap1\n      pop\n        /* \"contracts/FYJ_STAKINGPOOL.sol\":11657:11853  function functionCall(address target, bytes memory data, string memory errorMessage) internal returns (bytes memory) {\r... */\n      swap4\n      swap3\n      pop\n      pop\n      pop\n      jump\t// out\n        /* \"contracts/FYJ_STAKINGPOOL.sol\":13034:14013  function _functionCallWithValue(address target, bytes memory data, uint256 weiValue, string memory errorMessage) private returns (bytes memory) {\r... */\n    tag_243:\n        /* \"contracts/FYJ_STAKINGPOOL.sol\":13164:13176  bytes memory */\n      0x60\n        /* \"contracts/FYJ_STAKINGPOOL.sol\":13197:13215  isContract(target) */\n      tag_245\n        /* \"contracts/FYJ_STAKINGPOOL.sol\":13208:13214  target */\n      dup6\n        /* \"contracts/FYJ_STAKINGPOOL.sol\":13197:13207  isContract */\n      tag_246\n        /* \"contracts/FYJ_STAKINGPOOL.sol\":13197:13215  isContract(target) */\n      jump\t// in\n    tag_245:\n        /* \"contracts/FYJ_STAKINGPOOL.sol\":13189:13249  require(isContract(target), \"Address: call to non-contract\") */\n      tag_247\n      jumpi\n      mload(0x40)\n      0x08c379a000000000000000000000000000000000000000000000000000000000\n      dup2\n      mstore\n      0x04\n      add\n      dup1\n      dup1\n      0x20\n      add\n      dup3\n      dup2\n      sub\n      dup3\n      mstore\n      0x1d\n      dup2\n      mstore\n      0x20\n      add\n      dup1\n      0x416464726573733a2063616c6c20746f206e6f6e2d636f6e7472616374000000\n      dup2\n      mstore\n      pop\n      0x20\n      add\n      swap2\n      pop\n      pop\n      mload(0x40)\n      dup1\n      swap2\n      sub\n      swap1\n      revert\n    tag_247:\n        /* \"contracts/FYJ_STAKINGPOOL.sol\":13323:13335  bool success */\n      0x00\n        /* \"contracts/FYJ_STAKINGPOOL.sol\":13337:13360  bytes memory returndata */\n      0x60\n        /* \"contracts/FYJ_STAKINGPOOL.sol\":13364:13370  target */\n      dup7\n        /* \"contracts/FYJ_STAKINGPOOL.sol\":13364:13375  target.call */\n      0xffffffffffffffffffffffffffffffffffffffff\n      and\n        /* \"contracts/FYJ_STAKINGPOOL.sol\":13384:13392  weiValue */\n      dup6\n        /* \"contracts/FYJ_STAKINGPOOL.sol\":13395:13399  data */\n      dup8\n        /* \"contracts/FYJ_STAKINGPOOL.sol\":13364:13400  target.call{ value: weiValue }(data) */\n      mload(0x40)\n      dup1\n      dup3\n      dup1\n      mload\n      swap1\n      0x20\n      add\n      swap1\n      dup1\n      dup4\n      dup4\n    tag_248:\n      0x20\n      dup4\n      lt\n      tag_250\n      jumpi\n      dup1\n      mload\n      dup3\n      mstore\n      0x20\n      dup3\n      add\n      swap2\n      pop\n      0x20\n      dup2\n      add\n      swap1\n      pop\n      0x20\n      dup4\n      sub\n      swap3\n      pop\n      jump(tag_248)\n    tag_250:\n      0x01\n      dup4\n      0x20\n      sub\n      0x0100\n      exp\n      sub\n      dup1\n      not\n      dup3\n      mload\n      and\n      dup2\n      dup5\n      mload\n      and\n      dup1\n      dup3\n      or\n      dup6\n      mstore\n      pop\n      pop\n      pop\n      pop\n      pop\n      pop\n      swap1\n      pop\n      add\n      swap2\n      pop\n      pop\n      0x00\n      mload(0x40)\n      dup1\n      dup4\n      sub\n      dup2\n      dup6\n      dup8\n      gas\n      call\n      swap3\n      pop\n      pop\n      pop\n      returndatasize\n      dup1\n      0x00\n      dup2\n      eq\n      tag_253\n      jumpi\n      mload(0x40)\n      swap2\n      pop\n      and(add(returndatasize, 0x3f), not(0x1f))\n      dup3\n      add\n      0x40\n      mstore\n      returndatasize\n      dup3\n      mstore\n      returndatasize\n      0x00\n      0x20\n      dup5\n      add\n      returndatacopy\n      jump(tag_252)\n    tag_253:\n      0x60\n      swap2\n      pop\n    tag_252:\n      pop\n        /* \"contracts/FYJ_STAKINGPOOL.sol\":13322:13400  (bool success, bytes memory returndata) = target.call{ value: weiValue }(data) */\n      swap2\n      pop\n      swap2\n      pop\n        /* \"contracts/FYJ_STAKINGPOOL.sol\":13415:13422  success */\n      dup2\n        /* \"contracts/FYJ_STAKINGPOOL.sol\":13411:14006  if (success) {\r... */\n      iszero\n      tag_254\n      jumpi\n        /* \"contracts/FYJ_STAKINGPOOL.sol\":13446:13456  returndata */\n      dup1\n        /* \"contracts/FYJ_STAKINGPOOL.sol\":13439:13456  return returndata */\n      swap3\n      pop\n      pop\n      pop\n      jump(tag_244)\n        /* \"contracts/FYJ_STAKINGPOOL.sol\":13411:14006  if (success) {\r... */\n    tag_254:\n        /* \"contracts/FYJ_STAKINGPOOL.sol\":13580:13581  0 */\n      0x00\n        /* \"contracts/FYJ_STAKINGPOOL.sol\":13560:13570  returndata */\n      dup2\n        /* \"contracts/FYJ_STAKINGPOOL.sol\":13560:13577  returndata.length */\n      mload\n        /* \"contracts/FYJ_STAKINGPOOL.sol\":13560:13581  returndata.length > 0 */\n      gt\n        /* \"contracts/FYJ_STAKINGPOOL.sol\":13556:13995  if (returndata.length > 0) {\r... */\n      iszero\n      tag_256\n      jumpi\n        /* \"contracts/FYJ_STAKINGPOOL.sol\":13823:13833  returndata */\n      dup1\n        /* \"contracts/FYJ_STAKINGPOOL.sol\":13817:13834  mload(returndata) */\n      mload\n        /* \"contracts/FYJ_STAKINGPOOL.sol\":13884:13899  returndata_size */\n      dup1\n        /* \"contracts/FYJ_STAKINGPOOL.sol\":13871:13881  returndata */\n      dup3\n        /* \"contracts/FYJ_STAKINGPOOL.sol\":13867:13869  32 */\n      0x20\n        /* \"contracts/FYJ_STAKINGPOOL.sol\":13863:13882  add(32, returndata) */\n      add\n        /* \"contracts/FYJ_STAKINGPOOL.sol\":13856:13900  revert(add(32, returndata), returndata_size) */\n      revert\n        /* \"contracts/FYJ_STAKINGPOOL.sol\":13771:13919  {\r... */\n    tag_256:\n        /* \"contracts/FYJ_STAKINGPOOL.sol\":13966:13978  errorMessage */\n      dup4\n        /* \"contracts/FYJ_STAKINGPOOL.sol\":13959:13979  revert(errorMessage) */\n      mload(0x40)\n      0x08c379a000000000000000000000000000000000000000000000000000000000\n      dup2\n      mstore\n      0x04\n      add\n      dup1\n      dup1\n      0x20\n      add\n      dup3\n      dup2\n      sub\n      dup3\n      mstore\n      dup4\n      dup2\n      dup2\n      mload\n      dup2\n      mstore\n      0x20\n      add\n      swap2\n      pop\n      dup1\n      mload\n      swap1\n      0x20\n      add\n      swap1\n      dup1\n      dup4\n      dup4\n      0x00\n    tag_258:\n      dup4\n      dup2\n      lt\n      iszero\n      tag_260\n      jumpi\n      dup1\n      dup3\n      add\n      mload\n      dup2\n      dup5\n      add\n      mstore\n      0x20\n      dup2\n      add\n      swap1\n      pop\n      jump(tag_258)\n    tag_260:\n      pop\n      pop\n      pop\n      pop\n      swap1\n      pop\n      swap1\n      dup2\n      add\n      swap1\n      0x1f\n      and\n      dup1\n      iszero\n      tag_261\n      jumpi\n      dup1\n      dup3\n      sub\n      dup1\n      mload\n      0x01\n      dup4\n      0x20\n      sub\n      0x0100\n      exp\n      sub\n      not\n      and\n      dup2\n      mstore\n      0x20\n      add\n      swap2\n      pop\n    tag_261:\n      pop\n      swap3\n      pop\n      pop\n      pop\n      mload(0x40)\n      dup1\n      swap2\n      sub\n      swap1\n      revert\n        /* \"contracts/FYJ_STAKINGPOOL.sol\":13034:14013  function _functionCallWithValue(address target, bytes memory data, uint256 weiValue, string memory errorMessage) private returns (bytes memory) {\r... */\n    tag_244:\n      swap5\n      swap4\n      pop\n      pop\n      pop\n      pop\n      jump\t// out\n        /* \"contracts/FYJ_STAKINGPOOL.sol\":8739:9161  function isContract(address account) internal view returns (bool) {\r... */\n    tag_246:\n        /* \"contracts/FYJ_STAKINGPOOL.sol\":8799:8803  bool */\n      0x00\n        /* \"contracts/FYJ_STAKINGPOOL.sol\":9007:9019  uint256 size */\n      dup1\n        /* \"contracts/FYJ_STAKINGPOOL.sol\":9118:9125  account */\n      dup3\n        /* \"contracts/FYJ_STAKINGPOOL.sol\":9106:9126  extcodesize(account) */\n      extcodesize\n        /* \"contracts/FYJ_STAKINGPOOL.sol\":9098:9126  size := extcodesize(account) */\n      swap1\n      pop\n        /* \"contracts/FYJ_STAKINGPOOL.sol\":9152:9153  0 */\n      0x00\n        /* \"contracts/FYJ_STAKINGPOOL.sol\":9145:9149  size */\n      dup2\n        /* \"contracts/FYJ_STAKINGPOOL.sol\":9145:9153  size > 0 */\n      gt\n        /* \"contracts/FYJ_STAKINGPOOL.sol\":9138:9153  return size > 0 */\n      swap2\n      pop\n      pop\n        /* \"contracts/FYJ_STAKINGPOOL.sol\":8739:9161  function isContract(address account) internal view returns (bool) {\r... */\n      swap2\n      swap1\n      pop\n      jump\t// out\n    stop\n    data_245f15ff17f551913a7a18385165551503906a406f905ac1c2437281a7cd0cfe 4f776e61626c653a206e6577206f776e657220697320746865207a65726f2061646472657373\n    data_9113bb53c2876a3805b2c9242029423fc540a728243ce887ab24c82cf119fba3 536166654d6174683a206d756c7469706c69636174696f6e206f766572666c6f77\n    data_9ef6714deeebfeb945a862ced486e6902694724a8279842e470c950ebd97af1c 48555344474f434c50546f6b656e5368617265506f6f6c3a2043616e6e6f74207374616b652030\n    data_aaaffe5c21fa5c5738339a5c250428887dc295da86e97cc962477da488b4d856 43616c6c6572206973206e6f742072657761726420646973747269627574696f6e\n    data_e11ad79d1e4a7f2e5f376964cb99e8e8f7904e3fc16a109f7a7ecb9aa7956dcd 5361666545524332303a204552433230206f7065726174696f6e20646964206e6f742073756363656564\n    data_e85ee5087a90428432078dbd8d4e57ecaadd93cfcfac4363407006c688ba18f8 48555344474f434c50546f6b656e5368617265506f6f6c3a2043616e6e6f742077697468647261772030\n    data_f29ed7fc561f9739237966a5dd12e925d81e5f10e77bc59c72af68e298e197a2 776974686472617720726571756573742067726561746572207468616e207374616b656420616d6f756e74\n\n    auxdata: 0xa264697066735822122024307e4ba28e3a6855cf149eea86cb8d71fbddc40a867fcda3dff61431eb154864736f6c634300060c0033\n}\n",
				"bytecode": {
					"linkReferences": {},
					"object": "608060405262ed4e006006556000600855600060095534801561002157600080fd5b506040516124603803806124608339818101604052606081101561004457600080fd5b8101908080519060200190929190805190602001909291908051906020019092919050505060006100796101a860201b60201c565b905080600360006101000a81548173ffffffffffffffffffffffffffffffffffffffff021916908373ffffffffffffffffffffffffffffffffffffffff1602179055508073ffffffffffffffffffffffffffffffffffffffff16600073ffffffffffffffffffffffffffffffffffffffff167f8be0079c531659141344cd1fd0a4f28419497f9722a3daafe3b4186f6b6457e060405160405180910390a35082600560006101000a81548173ffffffffffffffffffffffffffffffffffffffff021916908373ffffffffffffffffffffffffffffffffffffffff160217905550816000806101000a81548173ffffffffffffffffffffffffffffffffffffffff021916908373ffffffffffffffffffffffffffffffffffffffff160217905550806007819055505050506101b0565b600033905090565b6122a1806101bf6000396000f3fe608060405234801561001057600080fd5b50600436106101725760003560e01c806380faa57d116100de578063cd3daf9d11610097578063e9fad8ee11610071578063e9fad8ee14610545578063ebe2b12b1461054f578063f2fde38b1461056d578063fc0c546a146105b157610172565b8063cd3daf9d146104d5578063ce5fc8d0146104f3578063df136d651461052757610172565b806380faa57d146103c15780638b876347146103df5780638da58897146104375780638da5cb5b14610455578063a694fc3a14610489578063c8f33c91146104b757610172565b80632e1a7d4d116101305780632e1a7d4d146102db5780633c6b16ab146103095780633d18b9121461033757806370a0823114610341578063715018a6146103995780637b0a47ee146103a357610172565b80628cc262146101775780630700037d146101cf5780630d68b76114610227578063101114cf1461026b57806318160ddd1461029f5780631be05289146102bd575b600080fd5b6101b96004803603602081101561018d57600080fd5b81019080803573ffffffffffffffffffffffffffffffffffffffff1690602001909291905050506105e5565b6040518082815260200191505060405180910390f35b610211600480360360208110156101e557600080fd5b81019080803573ffffffffffffffffffffffffffffffffffffffff1690602001909291905050506106cc565b6040518082815260200191505060405180910390f35b6102696004803603602081101561023d57600080fd5b81019080803573ffffffffffffffffffffffffffffffffffffffff1690602001909291905050506106e4565b005b6102736107f2565b604051808273ffffffffffffffffffffffffffffffffffffffff16815260200191505060405180910390f35b6102a7610818565b6040518082815260200191505060405180910390f35b6102c5610822565b6040518082815260200191505060405180910390f35b610307600480360360208110156102f157600080fd5b8101908080359060200190929190505050610828565b005b6103356004803603602081101561031f57600080fd5b8101908080359060200190929190505050610a38565b005b61033f610d3a565b005b6103836004803603602081101561035757600080fd5b81019080803573ffffffffffffffffffffffffffffffffffffffff169060200190929190505050610f91565b6040518082815260200191505060405180910390f35b6103a1610fda565b005b6103ab611165565b6040518082815260200191505060405180910390f35b6103c961116b565b6040518082815260200191505060405180910390f35b610421600480360360208110156103f557600080fd5b81019080803573ffffffffffffffffffffffffffffffffffffffff16906020019092919050505061117e565b6040518082815260200191505060405180910390f35b61043f611196565b6040518082815260200191505060405180910390f35b61045d61119c565b604051808273ffffffffffffffffffffffffffffffffffffffff16815260200191505060405180910390f35b6104b56004803603602081101561049f57600080fd5b81019080803590602001909291905050506111c6565b005b6104bf6113d6565b6040518082815260200191505060405180910390f35b6104dd6113dc565b6040518082815260200191505060405180910390f35b6104fb611474565b604051808273ffffffffffffffffffffffffffffffffffffffff16815260200191505060405180910390f35b61052f611498565b6040518082815260200191505060405180910390f35b61054d61149e565b005b6105576114b9565b6040518082815260200191505060405180910390f35b6105af6004803603602081101561058357600080fd5b81019080803573ffffffffffffffffffffffffffffffffffffffff1690602001909291905050506114bf565b005b6105b96116cf565b604051808273ffffffffffffffffffffffffffffffffffffffff16815260200191505060405180910390f35b60006106c5600d60008473ffffffffffffffffffffffffffffffffffffffff1673ffffffffffffffffffffffffffffffffffffffff168152602001908152602001600020546106b7670de0b6b3a76400006106a9610692600c60008973ffffffffffffffffffffffffffffffffffffffff1673ffffffffffffffffffffffffffffffffffffffff168152602001908152602001600020546106846113dc565b6116f590919063ffffffff16565b61069b88610f91565b61173f90919063ffffffff16565b6117c590919063ffffffff16565b61180f90919063ffffffff16565b9050919050565b600d6020528060005260406000206000915090505481565b6106ec611897565b73ffffffffffffffffffffffffffffffffffffffff16600360009054906101000a900473ffffffffffffffffffffffffffffffffffffffff1673ffffffffffffffffffffffffffffffffffffffff16146107ae576040517f08c379a00000000000000000000000000000000000000000000000000000000081526004018080602001828103825260208152602001807f4f776e61626c653a2063616c6c6572206973206e6f7420746865206f776e657281525060200191505060405180910390fd5b80600460006101000a81548173ffffffffffffffffffffffffffffffffffffffff021916908373ffffffffffffffffffffffffffffffffffffffff16021790555050565b600460009054906101000a900473ffffffffffffffffffffffffffffffffffffffff1681565b6000600154905090565b60065481565b336108316113dc565b600b8190555061083f61116b565b600a81905550600073ffffffffffffffffffffffffffffffffffffffff168173ffffffffffffffffffffffffffffffffffffffff161461090c57610882816105e5565b600d60008373ffffffffffffffffffffffffffffffffffffffff1673ffffffffffffffffffffffffffffffffffffffff16815260200190815260200160002081905550600b54600c60008373ffffffffffffffffffffffffffffffffffffffff1673ffffffffffffffffffffffffffffffffffffffff168152602001908152602001600020819055505b600754421015610984576040517f08c379a000000000000000000000000000000000000000000000000000000000815260040180806020018281038252601b8152602001807f4c50546f6b656e5368617265506f6f6c3a206e6f74207374617274000000000081525060200191505060405180910390fd5b600082116109dd576040517f08c379a000000000000000000000000000000000000000000000000000000000815260040180806020018281038252602a815260200180612217602a913960400191505060405180910390fd5b6109e68261189f565b3373ffffffffffffffffffffffffffffffffffffffff167f7084f5476618d8e60b11ef0d7d3f06914655adb8793e28ff7f018d4c76d505d5836040518082815260200191505060405180910390a25050565b600460009054906101000a900473ffffffffffffffffffffffffffffffffffffffff1673ffffffffffffffffffffffffffffffffffffffff16610a79611897565b73ffffffffffffffffffffffffffffffffffffffff1614610ae5576040517f08c379a00000000000000000000000000000000000000000000000000000000081526004018080602001828103825260218152602001806121cc6021913960400191505060405180910390fd5b6000610aef6113dc565b600b81905550610afd61116b565b600a81905550600073ffffffffffffffffffffffffffffffffffffffff168173ffffffffffffffffffffffffffffffffffffffff1614610bca57610b40816105e5565b600d60008373ffffffffffffffffffffffffffffffffffffffff1673ffffffffffffffffffffffffffffffffffffffff16815260200190815260200160002081905550600b54600c60008373ffffffffffffffffffffffffffffffffffffffff1673ffffffffffffffffffffffffffffffffffffffff168152602001908152602001600020819055505b600754421115610cbd576008544210610bfd57610bf2600654836117c590919063ffffffff16565b600981905550610c5f565b6000610c14426008546116f590919063ffffffff16565b90506000610c2d6009548361173f90919063ffffffff16565b9050610c56600654610c48838761180f90919063ffffffff16565b6117c590919063ffffffff16565b60098190555050505b42600a81905550610c7b6006544261180f90919063ffffffff16565b6008819055507fde88a922e0d3b88b24e9623efeb464919c6bf9f66857a65e2bfcf2ce87a9433d826040518082815260200191505060405180910390a1610d36565b610cd2600654836117c590919063ffffffff16565b600981905550600754600a81905550610cf860065460075461180f90919063ffffffff16565b6008819055507fde88a922e0d3b88b24e9623efeb464919c6bf9f66857a65e2bfcf2ce87a9433d826040518082815260200191505060405180910390a15b5050565b33610d436113dc565b600b81905550610d5161116b565b600a81905550600073ffffffffffffffffffffffffffffffffffffffff168173ffffffffffffffffffffffffffffffffffffffff1614610e1e57610d94816105e5565b600d60008373ffffffffffffffffffffffffffffffffffffffff1673ffffffffffffffffffffffffffffffffffffffff16815260200190815260200160002081905550600b54600c60008373ffffffffffffffffffffffffffffffffffffffff1673ffffffffffffffffffffffffffffffffffffffff168152602001908152602001600020819055505b600754421015610e96576040517f08c379a000000000000000000000000000000000000000000000000000000000815260040180806020018281038252601b8152602001807f4c50546f6b656e5368617265506f6f6c3a206e6f74207374617274000000000081525060200191505060405180910390fd5b6000610ea1336105e5565b90506000811115610f8d576000600d60003373ffffffffffffffffffffffffffffffffffffffff1673ffffffffffffffffffffffffffffffffffffffff16815260200190815260200160002081905550610f3e3382600560009054906101000a900473ffffffffffffffffffffffffffffffffffffffff1673ffffffffffffffffffffffffffffffffffffffff16611a3b9092919063ffffffff16565b3373ffffffffffffffffffffffffffffffffffffffff167fe2403640ba68fed3a2f88b7557551d1993f84b99bb10ff833f0cf8db0c5e0486826040518082815260200191505060405180910390a25b5050565b6000600260008373ffffffffffffffffffffffffffffffffffffffff1673ffffffffffffffffffffffffffffffffffffffff168152602001908152602001600020549050919050565b610fe2611897565b73ffffffffffffffffffffffffffffffffffffffff16600360009054906101000a900473ffffffffffffffffffffffffffffffffffffffff1673ffffffffffffffffffffffffffffffffffffffff16146110a4576040517f08c379a00000000000000000000000000000000000000000000000000000000081526004018080602001828103825260208152602001807f4f776e61626c653a2063616c6c6572206973206e6f7420746865206f776e657281525060200191505060405180910390fd5b600073ffffffffffffffffffffffffffffffffffffffff16600360009054906101000a900473ffffffffffffffffffffffffffffffffffffffff1673ffffffffffffffffffffffffffffffffffffffff167f8be0079c531659141344cd1fd0a4f28419497f9722a3daafe3b4186f6b6457e060405160405180910390a36000600360006101000a81548173ffffffffffffffffffffffffffffffffffffffff021916908373ffffffffffffffffffffffffffffffffffffffff160217905550565b60095481565b600061117942600854611add565b905090565b600c6020528060005260406000206000915090505481565b60075481565b6000600360009054906101000a900473ffffffffffffffffffffffffffffffffffffffff16905090565b336111cf6113dc565b600b819055506111dd61116b565b600a81905550600073ffffffffffffffffffffffffffffffffffffffff168173ffffffffffffffffffffffffffffffffffffffff16146112aa57611220816105e5565b600d60008373ffffffffffffffffffffffffffffffffffffffff1673ffffffffffffffffffffffffffffffffffffffff16815260200190815260200160002081905550600b54600c60008373ffffffffffffffffffffffffffffffffffffffff1673ffffffffffffffffffffffffffffffffffffffff168152602001908152602001600020819055505b600754421015611322576040517f08c379a000000000000000000000000000000000000000000000000000000000815260040180806020018281038252601b8152602001807f4c50546f6b656e5368617265506f6f6c3a206e6f74207374617274000000000081525060200191505060405180910390fd5b6000821161137b576040517f08c379a00000000000000000000000000000000000000000000000000000000081526004018080602001828103825260278152602001806121a56027913960400191505060405180910390fd5b61138482611af6565b3373ffffffffffffffffffffffffffffffffffffffff167f9e71bc8eea02a63969f509818f2dafb9254532904319f9dbda79b67bd34a5f3d836040518082815260200191505060405180910390a25050565b600a5481565b6000806113e7610818565b14156113f757600b549050611471565b61146e61145d611405610818565b61144f670de0b6b3a7640000611441600954611433600a5461142561116b565b6116f590919063ffffffff16565b61173f90919063ffffffff16565b61173f90919063ffffffff16565b6117c590919063ffffffff16565b600b5461180f90919063ffffffff16565b90505b90565b60008054906101000a900473ffffffffffffffffffffffffffffffffffffffff1681565b600b5481565b6114af6114aa33610f91565b610828565b6114b7610d3a565b565b60085481565b6114c7611897565b73ffffffffffffffffffffffffffffffffffffffff16600360009054906101000a900473ffffffffffffffffffffffffffffffffffffffff1673ffffffffffffffffffffffffffffffffffffffff1614611589576040517f08c379a00000000000000000000000000000000000000000000000000000000081526004018080602001828103825260208152602001807f4f776e61626c653a2063616c6c6572206973206e6f7420746865206f776e657281525060200191505060405180910390fd5b600073ffffffffffffffffffffffffffffffffffffffff168173ffffffffffffffffffffffffffffffffffffffff16141561160f576040517f08c379a000000000000000000000000000000000000000000000000000000000815260040180806020018281038252602681526020018061215e6026913960400191505060405180910390fd5b8073ffffffffffffffffffffffffffffffffffffffff16600360009054906101000a900473ffffffffffffffffffffffffffffffffffffffff1673ffffffffffffffffffffffffffffffffffffffff167f8be0079c531659141344cd1fd0a4f28419497f9722a3daafe3b4186f6b6457e060405160405180910390a380600360006101000a81548173ffffffffffffffffffffffffffffffffffffffff021916908373ffffffffffffffffffffffffffffffffffffffff16021790555050565b600560009054906101000a900473ffffffffffffffffffffffffffffffffffffffff1681565b600061173783836040518060400160405280601e81526020017f536166654d6174683a207375627472616374696f6e206f766572666c6f770000815250611bf6565b905092915050565b60008083141561175257600090506117bf565b600082840290508284828161176357fe5b04146117ba576040517f08c379a00000000000000000000000000000000000000000000000000000000081526004018080602001828103825260218152602001806121846021913960400191505060405180910390fd5b809150505b92915050565b600061180783836040518060400160405280601a81526020017f536166654d6174683a206469766973696f6e206279207a65726f000000000000815250611cb6565b905092915050565b60008082840190508381101561188d576040517f08c379a000000000000000000000000000000000000000000000000000000000815260040180806020018281038252601b8152602001807f536166654d6174683a206164646974696f6e206f766572666c6f77000000000081525060200191505060405180910390fd5b8091505092915050565b600033905090565b6000600260003373ffffffffffffffffffffffffffffffffffffffff1673ffffffffffffffffffffffffffffffffffffffff1681526020019081526020016000205490508181101561193c576040517f08c379a000000000000000000000000000000000000000000000000000000000815260040180806020018281038252602b815260200180612241602b913960400191505060405180910390fd5b611951826001546116f590919063ffffffff16565b6001819055506119a982600260003373ffffffffffffffffffffffffffffffffffffffff1673ffffffffffffffffffffffffffffffffffffffff168152602001908152602001600020546116f590919063ffffffff16565b600260003373ffffffffffffffffffffffffffffffffffffffff1673ffffffffffffffffffffffffffffffffffffffff16815260200190815260200160002081905550611a37338360008054906101000a900473ffffffffffffffffffffffffffffffffffffffff1673ffffffffffffffffffffffffffffffffffffffff16611a3b9092919063ffffffff16565b5050565b611ad88363a9059cbb60e01b8484604051602401808373ffffffffffffffffffffffffffffffffffffffff16815260200182815260200192505050604051602081830303815290604052907bffffffffffffffffffffffffffffffffffffffffffffffffffffffff19166020820180517bffffffffffffffffffffffffffffffffffffffffffffffffffffffff8381831617835250505050611d7c565b505050565b6000818310611aec5781611aee565b825b905092915050565b611b0b8160015461180f90919063ffffffff16565b600181905550611b6381600260003373ffffffffffffffffffffffffffffffffffffffff1673ffffffffffffffffffffffffffffffffffffffff1681526020019081526020016000205461180f90919063ffffffff16565b600260003373ffffffffffffffffffffffffffffffffffffffff1673ffffffffffffffffffffffffffffffffffffffff16815260200190815260200160002081905550611bf333308360008054906101000a900473ffffffffffffffffffffffffffffffffffffffff1673ffffffffffffffffffffffffffffffffffffffff16611e6b909392919063ffffffff16565b50565b6000838311158290611ca3576040517f08c379a00000000000000000000000000000000000000000000000000000000081526004018080602001828103825283818151815260200191508051906020019080838360005b83811015611c68578082015181840152602081019050611c4d565b50505050905090810190601f168015611c955780820380516001836020036101000a031916815260200191505b509250505060405180910390fd5b5060008385039050809150509392505050565b60008083118290611d62576040517f08c379a00000000000000000000000000000000000000000000000000000000081526004018080602001828103825283818151815260200191508051906020019080838360005b83811015611d27578082015181840152602081019050611d0c565b50505050905090810190601f168015611d545780820380516001836020036101000a031916815260200191505b509250505060405180910390fd5b506000838581611d6e57fe5b049050809150509392505050565b6060611dde826040518060400160405280602081526020017f5361666545524332303a206c6f772d6c6576656c2063616c6c206661696c65648152508573ffffffffffffffffffffffffffffffffffffffff16611f2c9092919063ffffffff16565b9050600081511115611e6657808060200190516020811015611dff57600080fd5b8101908080519060200190929190505050611e65576040517f08c379a000000000000000000000000000000000000000000000000000000000815260040180806020018281038252602a8152602001806121ed602a913960400191505060405180910390fd5b5b505050565b611f26846323b872dd60e01b858585604051602401808473ffffffffffffffffffffffffffffffffffffffff1681526020018373ffffffffffffffffffffffffffffffffffffffff1681526020018281526020019350505050604051602081830303815290604052907bffffffffffffffffffffffffffffffffffffffffffffffffffffffff19166020820180517bffffffffffffffffffffffffffffffffffffffffffffffffffffffff8381831617835250505050611d7c565b50505050565b6060611f3b8484600085611f44565b90509392505050565b6060611f4f8561214a565b611fc1576040517f08c379a000000000000000000000000000000000000000000000000000000000815260040180806020018281038252601d8152602001807f416464726573733a2063616c6c20746f206e6f6e2d636f6e747261637400000081525060200191505060405180910390fd5b600060608673ffffffffffffffffffffffffffffffffffffffff1685876040518082805190602001908083835b602083106120115780518252602082019150602081019050602083039250611fee565b6001836020036101000a03801982511681845116808217855250505050505090500191505060006040518083038185875af1925050503d8060008114612073576040519150601f19603f3d011682016040523d82523d6000602084013e612078565b606091505b5091509150811561208d578092505050612142565b6000815111156120a05780518082602001fd5b836040517f08c379a00000000000000000000000000000000000000000000000000000000081526004018080602001828103825283818151815260200191508051906020019080838360005b838110156121075780820151818401526020810190506120ec565b50505050905090810190601f1680156121345780820380516001836020036101000a031916815260200191505b509250505060405180910390fd5b949350505050565b600080823b90506000811191505091905056fe4f776e61626c653a206e6577206f776e657220697320746865207a65726f2061646472657373536166654d6174683a206d756c7469706c69636174696f6e206f766572666c6f7748555344474f434c50546f6b656e5368617265506f6f6c3a2043616e6e6f74207374616b65203043616c6c6572206973206e6f742072657761726420646973747269627574696f6e5361666545524332303a204552433230206f7065726174696f6e20646964206e6f74207375636365656448555344474f434c50546f6b656e5368617265506f6f6c3a2043616e6e6f742077697468647261772030776974686472617720726571756573742067726561746572207468616e207374616b656420616d6f756e74a264697066735822122024307e4ba28e3a6855cf149eea86cb8d71fbddc40a867fcda3dff61431eb154864736f6c634300060c0033",
					"opcodes": "PUSH1 0x80 PUSH1 0x40 MSTORE PUSH3 0xED4E00 PUSH1 0x6 SSTORE PUSH1 0x0 PUSH1 0x8 SSTORE PUSH1 0x0 PUSH1 0x9 SSTORE CALLVALUE DUP1 ISZERO PUSH2 0x21 JUMPI PUSH1 0x0 DUP1 REVERT JUMPDEST POP PUSH1 0x40 MLOAD PUSH2 0x2460 CODESIZE SUB DUP1 PUSH2 0x2460 DUP4 CODECOPY DUP2 DUP2 ADD PUSH1 0x40 MSTORE PUSH1 0x60 DUP2 LT ISZERO PUSH2 0x44 JUMPI PUSH1 0x0 DUP1 REVERT JUMPDEST DUP2 ADD SWAP1 DUP1 DUP1 MLOAD SWAP1 PUSH1 0x20 ADD SWAP1 SWAP3 SWAP2 SWAP1 DUP1 MLOAD SWAP1 PUSH1 0x20 ADD SWAP1 SWAP3 SWAP2 SWAP1 DUP1 MLOAD SWAP1 PUSH1 0x20 ADD SWAP1 SWAP3 SWAP2 SWAP1 POP POP POP PUSH1 0x0 PUSH2 0x79 PUSH2 0x1A8 PUSH1 0x20 SHL PUSH1 0x20 SHR JUMP JUMPDEST SWAP1 POP DUP1 PUSH1 0x3 PUSH1 0x0 PUSH2 0x100 EXP DUP2 SLOAD DUP2 PUSH20 0xFFFFFFFFFFFFFFFFFFFFFFFFFFFFFFFFFFFFFFFF MUL NOT AND SWAP1 DUP4 PUSH20 0xFFFFFFFFFFFFFFFFFFFFFFFFFFFFFFFFFFFFFFFF AND MUL OR SWAP1 SSTORE POP DUP1 PUSH20 0xFFFFFFFFFFFFFFFFFFFFFFFFFFFFFFFFFFFFFFFF AND PUSH1 0x0 PUSH20 0xFFFFFFFFFFFFFFFFFFFFFFFFFFFFFFFFFFFFFFFF AND PUSH32 0x8BE0079C531659141344CD1FD0A4F28419497F9722A3DAAFE3B4186F6B6457E0 PUSH1 0x40 MLOAD PUSH1 0x40 MLOAD DUP1 SWAP2 SUB SWAP1 LOG3 POP DUP3 PUSH1 0x5 PUSH1 0x0 PUSH2 0x100 EXP DUP2 SLOAD DUP2 PUSH20 0xFFFFFFFFFFFFFFFFFFFFFFFFFFFFFFFFFFFFFFFF MUL NOT AND SWAP1 DUP4 PUSH20 0xFFFFFFFFFFFFFFFFFFFFFFFFFFFFFFFFFFFFFFFF AND MUL OR SWAP1 SSTORE POP DUP2 PUSH1 0x0 DUP1 PUSH2 0x100 EXP DUP2 SLOAD DUP2 PUSH20 0xFFFFFFFFFFFFFFFFFFFFFFFFFFFFFFFFFFFFFFFF MUL NOT AND SWAP1 DUP4 PUSH20 0xFFFFFFFFFFFFFFFFFFFFFFFFFFFFFFFFFFFFFFFF AND MUL OR SWAP1 SSTORE POP DUP1 PUSH1 0x7 DUP2 SWAP1 SSTORE POP POP POP POP PUSH2 0x1B0 JUMP JUMPDEST PUSH1 0x0 CALLER SWAP1 POP SWAP1 JUMP JUMPDEST PUSH2 0x22A1 DUP1 PUSH2 0x1BF PUSH1 0x0 CODECOPY PUSH1 0x0 RETURN INVALID PUSH1 0x80 PUSH1 0x40 MSTORE CALLVALUE DUP1 ISZERO PUSH2 0x10 JUMPI PUSH1 0x0 DUP1 REVERT JUMPDEST POP PUSH1 0x4 CALLDATASIZE LT PUSH2 0x172 JUMPI PUSH1 0x0 CALLDATALOAD PUSH1 0xE0 SHR DUP1 PUSH4 0x80FAA57D GT PUSH2 0xDE JUMPI DUP1 PUSH4 0xCD3DAF9D GT PUSH2 0x97 JUMPI DUP1 PUSH4 0xE9FAD8EE GT PUSH2 0x71 JUMPI DUP1 PUSH4 0xE9FAD8EE EQ PUSH2 0x545 JUMPI DUP1 PUSH4 0xEBE2B12B EQ PUSH2 0x54F JUMPI DUP1 PUSH4 0xF2FDE38B EQ PUSH2 0x56D JUMPI DUP1 PUSH4 0xFC0C546A EQ PUSH2 0x5B1 JUMPI PUSH2 0x172 JUMP JUMPDEST DUP1 PUSH4 0xCD3DAF9D EQ PUSH2 0x4D5 JUMPI DUP1 PUSH4 0xCE5FC8D0 EQ PUSH2 0x4F3 JUMPI DUP1 PUSH4 0xDF136D65 EQ PUSH2 0x527 JUMPI PUSH2 0x172 JUMP JUMPDEST DUP1 PUSH4 0x80FAA57D EQ PUSH2 0x3C1 JUMPI DUP1 PUSH4 0x8B876347 EQ PUSH2 0x3DF JUMPI DUP1 PUSH4 0x8DA58897 EQ PUSH2 0x437 JUMPI DUP1 PUSH4 0x8DA5CB5B EQ PUSH2 0x455 JUMPI DUP1 PUSH4 0xA694FC3A EQ PUSH2 0x489 JUMPI DUP1 PUSH4 0xC8F33C91 EQ PUSH2 0x4B7 JUMPI PUSH2 0x172 JUMP JUMPDEST DUP1 PUSH4 0x2E1A7D4D GT PUSH2 0x130 JUMPI DUP1 PUSH4 0x2E1A7D4D EQ PUSH2 0x2DB JUMPI DUP1 PUSH4 0x3C6B16AB EQ PUSH2 0x309 JUMPI DUP1 PUSH4 0x3D18B912 EQ PUSH2 0x337 JUMPI DUP1 PUSH4 0x70A08231 EQ PUSH2 0x341 JUMPI DUP1 PUSH4 0x715018A6 EQ PUSH2 0x399 JUMPI DUP1 PUSH4 0x7B0A47EE EQ PUSH2 0x3A3 JUMPI PUSH2 0x172 JUMP JUMPDEST DUP1 PUSH3 0x8CC262 EQ PUSH2 0x177 JUMPI DUP1 PUSH4 0x700037D EQ PUSH2 0x1CF JUMPI DUP1 PUSH4 0xD68B761 EQ PUSH2 0x227 JUMPI DUP1 PUSH4 0x101114CF EQ PUSH2 0x26B JUMPI DUP1 PUSH4 0x18160DDD EQ PUSH2 0x29F JUMPI DUP1 PUSH4 0x1BE05289 EQ PUSH2 0x2BD JUMPI JUMPDEST PUSH1 0x0 DUP1 REVERT JUMPDEST PUSH2 0x1B9 PUSH1 0x4 DUP1 CALLDATASIZE SUB PUSH1 0x20 DUP2 LT ISZERO PUSH2 0x18D JUMPI PUSH1 0x0 DUP1 REVERT JUMPDEST DUP2 ADD SWAP1 DUP1 DUP1 CALLDATALOAD PUSH20 0xFFFFFFFFFFFFFFFFFFFFFFFFFFFFFFFFFFFFFFFF AND SWAP1 PUSH1 0x20 ADD SWAP1 SWAP3 SWAP2 SWAP1 POP POP POP PUSH2 0x5E5 JUMP JUMPDEST PUSH1 0x40 MLOAD DUP1 DUP3 DUP2 MSTORE PUSH1 0x20 ADD SWAP2 POP POP PUSH1 0x40 MLOAD DUP1 SWAP2 SUB SWAP1 RETURN JUMPDEST PUSH2 0x211 PUSH1 0x4 DUP1 CALLDATASIZE SUB PUSH1 0x20 DUP2 LT ISZERO PUSH2 0x1E5 JUMPI PUSH1 0x0 DUP1 REVERT JUMPDEST DUP2 ADD SWAP1 DUP1 DUP1 CALLDATALOAD PUSH20 0xFFFFFFFFFFFFFFFFFFFFFFFFFFFFFFFFFFFFFFFF AND SWAP1 PUSH1 0x20 ADD SWAP1 SWAP3 SWAP2 SWAP1 POP POP POP PUSH2 0x6CC JUMP JUMPDEST PUSH1 0x40 MLOAD DUP1 DUP3 DUP2 MSTORE PUSH1 0x20 ADD SWAP2 POP POP PUSH1 0x40 MLOAD DUP1 SWAP2 SUB SWAP1 RETURN JUMPDEST PUSH2 0x269 PUSH1 0x4 DUP1 CALLDATASIZE SUB PUSH1 0x20 DUP2 LT ISZERO PUSH2 0x23D JUMPI PUSH1 0x0 DUP1 REVERT JUMPDEST DUP2 ADD SWAP1 DUP1 DUP1 CALLDATALOAD PUSH20 0xFFFFFFFFFFFFFFFFFFFFFFFFFFFFFFFFFFFFFFFF AND SWAP1 PUSH1 0x20 ADD SWAP1 SWAP3 SWAP2 SWAP1 POP POP POP PUSH2 0x6E4 JUMP JUMPDEST STOP JUMPDEST PUSH2 0x273 PUSH2 0x7F2 JUMP JUMPDEST PUSH1 0x40 MLOAD DUP1 DUP3 PUSH20 0xFFFFFFFFFFFFFFFFFFFFFFFFFFFFFFFFFFFFFFFF AND DUP2 MSTORE PUSH1 0x20 ADD SWAP2 POP POP PUSH1 0x40 MLOAD DUP1 SWAP2 SUB SWAP1 RETURN JUMPDEST PUSH2 0x2A7 PUSH2 0x818 JUMP JUMPDEST PUSH1 0x40 MLOAD DUP1 DUP3 DUP2 MSTORE PUSH1 0x20 ADD SWAP2 POP POP PUSH1 0x40 MLOAD DUP1 SWAP2 SUB SWAP1 RETURN JUMPDEST PUSH2 0x2C5 PUSH2 0x822 JUMP JUMPDEST PUSH1 0x40 MLOAD DUP1 DUP3 DUP2 MSTORE PUSH1 0x20 ADD SWAP2 POP POP PUSH1 0x40 MLOAD DUP1 SWAP2 SUB SWAP1 RETURN JUMPDEST PUSH2 0x307 PUSH1 0x4 DUP1 CALLDATASIZE SUB PUSH1 0x20 DUP2 LT ISZERO PUSH2 0x2F1 JUMPI PUSH1 0x0 DUP1 REVERT JUMPDEST DUP2 ADD SWAP1 DUP1 DUP1 CALLDATALOAD SWAP1 PUSH1 0x20 ADD SWAP1 SWAP3 SWAP2 SWAP1 POP POP POP PUSH2 0x828 JUMP JUMPDEST STOP JUMPDEST PUSH2 0x335 PUSH1 0x4 DUP1 CALLDATASIZE SUB PUSH1 0x20 DUP2 LT ISZERO PUSH2 0x31F JUMPI PUSH1 0x0 DUP1 REVERT JUMPDEST DUP2 ADD SWAP1 DUP1 DUP1 CALLDATALOAD SWAP1 PUSH1 0x20 ADD SWAP1 SWAP3 SWAP2 SWAP1 POP POP POP PUSH2 0xA38 JUMP JUMPDEST STOP JUMPDEST PUSH2 0x33F PUSH2 0xD3A JUMP JUMPDEST STOP JUMPDEST PUSH2 0x383 PUSH1 0x4 DUP1 CALLDATASIZE SUB PUSH1 0x20 DUP2 LT ISZERO PUSH2 0x357 JUMPI PUSH1 0x0 DUP1 REVERT JUMPDEST DUP2 ADD SWAP1 DUP1 DUP1 CALLDATALOAD PUSH20 0xFFFFFFFFFFFFFFFFFFFFFFFFFFFFFFFFFFFFFFFF AND SWAP1 PUSH1 0x20 ADD SWAP1 SWAP3 SWAP2 SWAP1 POP POP POP PUSH2 0xF91 JUMP JUMPDEST PUSH1 0x40 MLOAD DUP1 DUP3 DUP2 MSTORE PUSH1 0x20 ADD SWAP2 POP POP PUSH1 0x40 MLOAD DUP1 SWAP2 SUB SWAP1 RETURN JUMPDEST PUSH2 0x3A1 PUSH2 0xFDA JUMP JUMPDEST STOP JUMPDEST PUSH2 0x3AB PUSH2 0x1165 JUMP JUMPDEST PUSH1 0x40 MLOAD DUP1 DUP3 DUP2 MSTORE PUSH1 0x20 ADD SWAP2 POP POP PUSH1 0x40 MLOAD DUP1 SWAP2 SUB SWAP1 RETURN JUMPDEST PUSH2 0x3C9 PUSH2 0x116B JUMP JUMPDEST PUSH1 0x40 MLOAD DUP1 DUP3 DUP2 MSTORE PUSH1 0x20 ADD SWAP2 POP POP PUSH1 0x40 MLOAD DUP1 SWAP2 SUB SWAP1 RETURN JUMPDEST PUSH2 0x421 PUSH1 0x4 DUP1 CALLDATASIZE SUB PUSH1 0x20 DUP2 LT ISZERO PUSH2 0x3F5 JUMPI PUSH1 0x0 DUP1 REVERT JUMPDEST DUP2 ADD SWAP1 DUP1 DUP1 CALLDATALOAD PUSH20 0xFFFFFFFFFFFFFFFFFFFFFFFFFFFFFFFFFFFFFFFF AND SWAP1 PUSH1 0x20 ADD SWAP1 SWAP3 SWAP2 SWAP1 POP POP POP PUSH2 0x117E JUMP JUMPDEST PUSH1 0x40 MLOAD DUP1 DUP3 DUP2 MSTORE PUSH1 0x20 ADD SWAP2 POP POP PUSH1 0x40 MLOAD DUP1 SWAP2 SUB SWAP1 RETURN JUMPDEST PUSH2 0x43F PUSH2 0x1196 JUMP JUMPDEST PUSH1 0x40 MLOAD DUP1 DUP3 DUP2 MSTORE PUSH1 0x20 ADD SWAP2 POP POP PUSH1 0x40 MLOAD DUP1 SWAP2 SUB SWAP1 RETURN JUMPDEST PUSH2 0x45D PUSH2 0x119C JUMP JUMPDEST PUSH1 0x40 MLOAD DUP1 DUP3 PUSH20 0xFFFFFFFFFFFFFFFFFFFFFFFFFFFFFFFFFFFFFFFF AND DUP2 MSTORE PUSH1 0x20 ADD SWAP2 POP POP PUSH1 0x40 MLOAD DUP1 SWAP2 SUB SWAP1 RETURN JUMPDEST PUSH2 0x4B5 PUSH1 0x4 DUP1 CALLDATASIZE SUB PUSH1 0x20 DUP2 LT ISZERO PUSH2 0x49F JUMPI PUSH1 0x0 DUP1 REVERT JUMPDEST DUP2 ADD SWAP1 DUP1 DUP1 CALLDATALOAD SWAP1 PUSH1 0x20 ADD SWAP1 SWAP3 SWAP2 SWAP1 POP POP POP PUSH2 0x11C6 JUMP JUMPDEST STOP JUMPDEST PUSH2 0x4BF PUSH2 0x13D6 JUMP JUMPDEST PUSH1 0x40 MLOAD DUP1 DUP3 DUP2 MSTORE PUSH1 0x20 ADD SWAP2 POP POP PUSH1 0x40 MLOAD DUP1 SWAP2 SUB SWAP1 RETURN JUMPDEST PUSH2 0x4DD PUSH2 0x13DC JUMP JUMPDEST PUSH1 0x40 MLOAD DUP1 DUP3 DUP2 MSTORE PUSH1 0x20 ADD SWAP2 POP POP PUSH1 0x40 MLOAD DUP1 SWAP2 SUB SWAP1 RETURN JUMPDEST PUSH2 0x4FB PUSH2 0x1474 JUMP JUMPDEST PUSH1 0x40 MLOAD DUP1 DUP3 PUSH20 0xFFFFFFFFFFFFFFFFFFFFFFFFFFFFFFFFFFFFFFFF AND DUP2 MSTORE PUSH1 0x20 ADD SWAP2 POP POP PUSH1 0x40 MLOAD DUP1 SWAP2 SUB SWAP1 RETURN JUMPDEST PUSH2 0x52F PUSH2 0x1498 JUMP JUMPDEST PUSH1 0x40 MLOAD DUP1 DUP3 DUP2 MSTORE PUSH1 0x20 ADD SWAP2 POP POP PUSH1 0x40 MLOAD DUP1 SWAP2 SUB SWAP1 RETURN JUMPDEST PUSH2 0x54D PUSH2 0x149E JUMP JUMPDEST STOP JUMPDEST PUSH2 0x557 PUSH2 0x14B9 JUMP JUMPDEST PUSH1 0x40 MLOAD DUP1 DUP3 DUP2 MSTORE PUSH1 0x20 ADD SWAP2 POP POP PUSH1 0x40 MLOAD DUP1 SWAP2 SUB SWAP1 RETURN JUMPDEST PUSH2 0x5AF PUSH1 0x4 DUP1 CALLDATASIZE SUB PUSH1 0x20 DUP2 LT ISZERO PUSH2 0x583 JUMPI PUSH1 0x0 DUP1 REVERT JUMPDEST DUP2 ADD SWAP1 DUP1 DUP1 CALLDATALOAD PUSH20 0xFFFFFFFFFFFFFFFFFFFFFFFFFFFFFFFFFFFFFFFF AND SWAP1 PUSH1 0x20 ADD SWAP1 SWAP3 SWAP2 SWAP1 POP POP POP PUSH2 0x14BF JUMP JUMPDEST STOP JUMPDEST PUSH2 0x5B9 PUSH2 0x16CF JUMP JUMPDEST PUSH1 0x40 MLOAD DUP1 DUP3 PUSH20 0xFFFFFFFFFFFFFFFFFFFFFFFFFFFFFFFFFFFFFFFF AND DUP2 MSTORE PUSH1 0x20 ADD SWAP2 POP POP PUSH1 0x40 MLOAD DUP1 SWAP2 SUB SWAP1 RETURN JUMPDEST PUSH1 0x0 PUSH2 0x6C5 PUSH1 0xD PUSH1 0x0 DUP5 PUSH20 0xFFFFFFFFFFFFFFFFFFFFFFFFFFFFFFFFFFFFFFFF AND PUSH20 0xFFFFFFFFFFFFFFFFFFFFFFFFFFFFFFFFFFFFFFFF AND DUP2 MSTORE PUSH1 0x20 ADD SWAP1 DUP2 MSTORE PUSH1 0x20 ADD PUSH1 0x0 KECCAK256 SLOAD PUSH2 0x6B7 PUSH8 0xDE0B6B3A7640000 PUSH2 0x6A9 PUSH2 0x692 PUSH1 0xC PUSH1 0x0 DUP10 PUSH20 0xFFFFFFFFFFFFFFFFFFFFFFFFFFFFFFFFFFFFFFFF AND PUSH20 0xFFFFFFFFFFFFFFFFFFFFFFFFFFFFFFFFFFFFFFFF AND DUP2 MSTORE PUSH1 0x20 ADD SWAP1 DUP2 MSTORE PUSH1 0x20 ADD PUSH1 0x0 KECCAK256 SLOAD PUSH2 0x684 PUSH2 0x13DC JUMP JUMPDEST PUSH2 0x16F5 SWAP1 SWAP2 SWAP1 PUSH4 0xFFFFFFFF AND JUMP JUMPDEST PUSH2 0x69B DUP9 PUSH2 0xF91 JUMP JUMPDEST PUSH2 0x173F SWAP1 SWAP2 SWAP1 PUSH4 0xFFFFFFFF AND JUMP JUMPDEST PUSH2 0x17C5 SWAP1 SWAP2 SWAP1 PUSH4 0xFFFFFFFF AND JUMP JUMPDEST PUSH2 0x180F SWAP1 SWAP2 SWAP1 PUSH4 0xFFFFFFFF AND JUMP JUMPDEST SWAP1 POP SWAP2 SWAP1 POP JUMP JUMPDEST PUSH1 0xD PUSH1 0x20 MSTORE DUP1 PUSH1 0x0 MSTORE PUSH1 0x40 PUSH1 0x0 KECCAK256 PUSH1 0x0 SWAP2 POP SWAP1 POP SLOAD DUP2 JUMP JUMPDEST PUSH2 0x6EC PUSH2 0x1897 JUMP JUMPDEST PUSH20 0xFFFFFFFFFFFFFFFFFFFFFFFFFFFFFFFFFFFFFFFF AND PUSH1 0x3 PUSH1 0x0 SWAP1 SLOAD SWAP1 PUSH2 0x100 EXP SWAP1 DIV PUSH20 0xFFFFFFFFFFFFFFFFFFFFFFFFFFFFFFFFFFFFFFFF AND PUSH20 0xFFFFFFFFFFFFFFFFFFFFFFFFFFFFFFFFFFFFFFFF AND EQ PUSH2 0x7AE JUMPI PUSH1 0x40 MLOAD PUSH32 0x8C379A000000000000000000000000000000000000000000000000000000000 DUP2 MSTORE PUSH1 0x4 ADD DUP1 DUP1 PUSH1 0x20 ADD DUP3 DUP2 SUB DUP3 MSTORE PUSH1 0x20 DUP2 MSTORE PUSH1 0x20 ADD DUP1 PUSH32 0x4F776E61626C653A2063616C6C6572206973206E6F7420746865206F776E6572 DUP2 MSTORE POP PUSH1 0x20 ADD SWAP2 POP POP PUSH1 0x40 MLOAD DUP1 SWAP2 SUB SWAP1 REVERT JUMPDEST DUP1 PUSH1 0x4 PUSH1 0x0 PUSH2 0x100 EXP DUP2 SLOAD DUP2 PUSH20 0xFFFFFFFFFFFFFFFFFFFFFFFFFFFFFFFFFFFFFFFF MUL NOT AND SWAP1 DUP4 PUSH20 0xFFFFFFFFFFFFFFFFFFFFFFFFFFFFFFFFFFFFFFFF AND MUL OR SWAP1 SSTORE POP POP JUMP JUMPDEST PUSH1 0x4 PUSH1 0x0 SWAP1 SLOAD SWAP1 PUSH2 0x100 EXP SWAP1 DIV PUSH20 0xFFFFFFFFFFFFFFFFFFFFFFFFFFFFFFFFFFFFFFFF AND DUP2 JUMP JUMPDEST PUSH1 0x0 PUSH1 0x1 SLOAD SWAP1 POP SWAP1 JUMP JUMPDEST PUSH1 0x6 SLOAD DUP2 JUMP JUMPDEST CALLER PUSH2 0x831 PUSH2 0x13DC JUMP JUMPDEST PUSH1 0xB DUP2 SWAP1 SSTORE POP PUSH2 0x83F PUSH2 0x116B JUMP JUMPDEST PUSH1 0xA DUP2 SWAP1 SSTORE POP PUSH1 0x0 PUSH20 0xFFFFFFFFFFFFFFFFFFFFFFFFFFFFFFFFFFFFFFFF AND DUP2 PUSH20 0xFFFFFFFFFFFFFFFFFFFFFFFFFFFFFFFFFFFFFFFF AND EQ PUSH2 0x90C JUMPI PUSH2 0x882 DUP2 PUSH2 0x5E5 JUMP JUMPDEST PUSH1 0xD PUSH1 0x0 DUP4 PUSH20 0xFFFFFFFFFFFFFFFFFFFFFFFFFFFFFFFFFFFFFFFF AND PUSH20 0xFFFFFFFFFFFFFFFFFFFFFFFFFFFFFFFFFFFFFFFF AND DUP2 MSTORE PUSH1 0x20 ADD SWAP1 DUP2 MSTORE PUSH1 0x20 ADD PUSH1 0x0 KECCAK256 DUP2 SWAP1 SSTORE POP PUSH1 0xB SLOAD PUSH1 0xC PUSH1 0x0 DUP4 PUSH20 0xFFFFFFFFFFFFFFFFFFFFFFFFFFFFFFFFFFFFFFFF AND PUSH20 0xFFFFFFFFFFFFFFFFFFFFFFFFFFFFFFFFFFFFFFFF AND DUP2 MSTORE PUSH1 0x20 ADD SWAP1 DUP2 MSTORE PUSH1 0x20 ADD PUSH1 0x0 KECCAK256 DUP2 SWAP1 SSTORE POP JUMPDEST PUSH1 0x7 SLOAD TIMESTAMP LT ISZERO PUSH2 0x984 JUMPI PUSH1 0x40 MLOAD PUSH32 0x8C379A000000000000000000000000000000000000000000000000000000000 DUP2 MSTORE PUSH1 0x4 ADD DUP1 DUP1 PUSH1 0x20 ADD DUP3 DUP2 SUB DUP3 MSTORE PUSH1 0x1B DUP2 MSTORE PUSH1 0x20 ADD DUP1 PUSH32 0x4C50546F6B656E5368617265506F6F6C3A206E6F742073746172740000000000 DUP2 MSTORE POP PUSH1 0x20 ADD SWAP2 POP POP PUSH1 0x40 MLOAD DUP1 SWAP2 SUB SWAP1 REVERT JUMPDEST PUSH1 0x0 DUP3 GT PUSH2 0x9DD JUMPI PUSH1 0x40 MLOAD PUSH32 0x8C379A000000000000000000000000000000000000000000000000000000000 DUP2 MSTORE PUSH1 0x4 ADD DUP1 DUP1 PUSH1 0x20 ADD DUP3 DUP2 SUB DUP3 MSTORE PUSH1 0x2A DUP2 MSTORE PUSH1 0x20 ADD DUP1 PUSH2 0x2217 PUSH1 0x2A SWAP2 CODECOPY PUSH1 0x40 ADD SWAP2 POP POP PUSH1 0x40 MLOAD DUP1 SWAP2 SUB SWAP1 REVERT JUMPDEST PUSH2 0x9E6 DUP3 PUSH2 0x189F JUMP JUMPDEST CALLER PUSH20 0xFFFFFFFFFFFFFFFFFFFFFFFFFFFFFFFFFFFFFFFF AND PUSH32 0x7084F5476618D8E60B11EF0D7D3F06914655ADB8793E28FF7F018D4C76D505D5 DUP4 PUSH1 0x40 MLOAD DUP1 DUP3 DUP2 MSTORE PUSH1 0x20 ADD SWAP2 POP POP PUSH1 0x40 MLOAD DUP1 SWAP2 SUB SWAP1 LOG2 POP POP JUMP JUMPDEST PUSH1 0x4 PUSH1 0x0 SWAP1 SLOAD SWAP1 PUSH2 0x100 EXP SWAP1 DIV PUSH20 0xFFFFFFFFFFFFFFFFFFFFFFFFFFFFFFFFFFFFFFFF AND PUSH20 0xFFFFFFFFFFFFFFFFFFFFFFFFFFFFFFFFFFFFFFFF AND PUSH2 0xA79 PUSH2 0x1897 JUMP JUMPDEST PUSH20 0xFFFFFFFFFFFFFFFFFFFFFFFFFFFFFFFFFFFFFFFF AND EQ PUSH2 0xAE5 JUMPI PUSH1 0x40 MLOAD PUSH32 0x8C379A000000000000000000000000000000000000000000000000000000000 DUP2 MSTORE PUSH1 0x4 ADD DUP1 DUP1 PUSH1 0x20 ADD DUP3 DUP2 SUB DUP3 MSTORE PUSH1 0x21 DUP2 MSTORE PUSH1 0x20 ADD DUP1 PUSH2 0x21CC PUSH1 0x21 SWAP2 CODECOPY PUSH1 0x40 ADD SWAP2 POP POP PUSH1 0x40 MLOAD DUP1 SWAP2 SUB SWAP1 REVERT JUMPDEST PUSH1 0x0 PUSH2 0xAEF PUSH2 0x13DC JUMP JUMPDEST PUSH1 0xB DUP2 SWAP1 SSTORE POP PUSH2 0xAFD PUSH2 0x116B JUMP JUMPDEST PUSH1 0xA DUP2 SWAP1 SSTORE POP PUSH1 0x0 PUSH20 0xFFFFFFFFFFFFFFFFFFFFFFFFFFFFFFFFFFFFFFFF AND DUP2 PUSH20 0xFFFFFFFFFFFFFFFFFFFFFFFFFFFFFFFFFFFFFFFF AND EQ PUSH2 0xBCA JUMPI PUSH2 0xB40 DUP2 PUSH2 0x5E5 JUMP JUMPDEST PUSH1 0xD PUSH1 0x0 DUP4 PUSH20 0xFFFFFFFFFFFFFFFFFFFFFFFFFFFFFFFFFFFFFFFF AND PUSH20 0xFFFFFFFFFFFFFFFFFFFFFFFFFFFFFFFFFFFFFFFF AND DUP2 MSTORE PUSH1 0x20 ADD SWAP1 DUP2 MSTORE PUSH1 0x20 ADD PUSH1 0x0 KECCAK256 DUP2 SWAP1 SSTORE POP PUSH1 0xB SLOAD PUSH1 0xC PUSH1 0x0 DUP4 PUSH20 0xFFFFFFFFFFFFFFFFFFFFFFFFFFFFFFFFFFFFFFFF AND PUSH20 0xFFFFFFFFFFFFFFFFFFFFFFFFFFFFFFFFFFFFFFFF AND DUP2 MSTORE PUSH1 0x20 ADD SWAP1 DUP2 MSTORE PUSH1 0x20 ADD PUSH1 0x0 KECCAK256 DUP2 SWAP1 SSTORE POP JUMPDEST PUSH1 0x7 SLOAD TIMESTAMP GT ISZERO PUSH2 0xCBD JUMPI PUSH1 0x8 SLOAD TIMESTAMP LT PUSH2 0xBFD JUMPI PUSH2 0xBF2 PUSH1 0x6 SLOAD DUP4 PUSH2 0x17C5 SWAP1 SWAP2 SWAP1 PUSH4 0xFFFFFFFF AND JUMP JUMPDEST PUSH1 0x9 DUP2 SWAP1 SSTORE POP PUSH2 0xC5F JUMP JUMPDEST PUSH1 0x0 PUSH2 0xC14 TIMESTAMP PUSH1 0x8 SLOAD PUSH2 0x16F5 SWAP1 SWAP2 SWAP1 PUSH4 0xFFFFFFFF AND JUMP JUMPDEST SWAP1 POP PUSH1 0x0 PUSH2 0xC2D PUSH1 0x9 SLOAD DUP4 PUSH2 0x173F SWAP1 SWAP2 SWAP1 PUSH4 0xFFFFFFFF AND JUMP JUMPDEST SWAP1 POP PUSH2 0xC56 PUSH1 0x6 SLOAD PUSH2 0xC48 DUP4 DUP8 PUSH2 0x180F SWAP1 SWAP2 SWAP1 PUSH4 0xFFFFFFFF AND JUMP JUMPDEST PUSH2 0x17C5 SWAP1 SWAP2 SWAP1 PUSH4 0xFFFFFFFF AND JUMP JUMPDEST PUSH1 0x9 DUP2 SWAP1 SSTORE POP POP POP JUMPDEST TIMESTAMP PUSH1 0xA DUP2 SWAP1 SSTORE POP PUSH2 0xC7B PUSH1 0x6 SLOAD TIMESTAMP PUSH2 0x180F SWAP1 SWAP2 SWAP1 PUSH4 0xFFFFFFFF AND JUMP JUMPDEST PUSH1 0x8 DUP2 SWAP1 SSTORE POP PUSH32 0xDE88A922E0D3B88B24E9623EFEB464919C6BF9F66857A65E2BFCF2CE87A9433D DUP3 PUSH1 0x40 MLOAD DUP1 DUP3 DUP2 MSTORE PUSH1 0x20 ADD SWAP2 POP POP PUSH1 0x40 MLOAD DUP1 SWAP2 SUB SWAP1 LOG1 PUSH2 0xD36 JUMP JUMPDEST PUSH2 0xCD2 PUSH1 0x6 SLOAD DUP4 PUSH2 0x17C5 SWAP1 SWAP2 SWAP1 PUSH4 0xFFFFFFFF AND JUMP JUMPDEST PUSH1 0x9 DUP2 SWAP1 SSTORE POP PUSH1 0x7 SLOAD PUSH1 0xA DUP2 SWAP1 SSTORE POP PUSH2 0xCF8 PUSH1 0x6 SLOAD PUSH1 0x7 SLOAD PUSH2 0x180F SWAP1 SWAP2 SWAP1 PUSH4 0xFFFFFFFF AND JUMP JUMPDEST PUSH1 0x8 DUP2 SWAP1 SSTORE POP PUSH32 0xDE88A922E0D3B88B24E9623EFEB464919C6BF9F66857A65E2BFCF2CE87A9433D DUP3 PUSH1 0x40 MLOAD DUP1 DUP3 DUP2 MSTORE PUSH1 0x20 ADD SWAP2 POP POP PUSH1 0x40 MLOAD DUP1 SWAP2 SUB SWAP1 LOG1 JUMPDEST POP POP JUMP JUMPDEST CALLER PUSH2 0xD43 PUSH2 0x13DC JUMP JUMPDEST PUSH1 0xB DUP2 SWAP1 SSTORE POP PUSH2 0xD51 PUSH2 0x116B JUMP JUMPDEST PUSH1 0xA DUP2 SWAP1 SSTORE POP PUSH1 0x0 PUSH20 0xFFFFFFFFFFFFFFFFFFFFFFFFFFFFFFFFFFFFFFFF AND DUP2 PUSH20 0xFFFFFFFFFFFFFFFFFFFFFFFFFFFFFFFFFFFFFFFF AND EQ PUSH2 0xE1E JUMPI PUSH2 0xD94 DUP2 PUSH2 0x5E5 JUMP JUMPDEST PUSH1 0xD PUSH1 0x0 DUP4 PUSH20 0xFFFFFFFFFFFFFFFFFFFFFFFFFFFFFFFFFFFFFFFF AND PUSH20 0xFFFFFFFFFFFFFFFFFFFFFFFFFFFFFFFFFFFFFFFF AND DUP2 MSTORE PUSH1 0x20 ADD SWAP1 DUP2 MSTORE PUSH1 0x20 ADD PUSH1 0x0 KECCAK256 DUP2 SWAP1 SSTORE POP PUSH1 0xB SLOAD PUSH1 0xC PUSH1 0x0 DUP4 PUSH20 0xFFFFFFFFFFFFFFFFFFFFFFFFFFFFFFFFFFFFFFFF AND PUSH20 0xFFFFFFFFFFFFFFFFFFFFFFFFFFFFFFFFFFFFFFFF AND DUP2 MSTORE PUSH1 0x20 ADD SWAP1 DUP2 MSTORE PUSH1 0x20 ADD PUSH1 0x0 KECCAK256 DUP2 SWAP1 SSTORE POP JUMPDEST PUSH1 0x7 SLOAD TIMESTAMP LT ISZERO PUSH2 0xE96 JUMPI PUSH1 0x40 MLOAD PUSH32 0x8C379A000000000000000000000000000000000000000000000000000000000 DUP2 MSTORE PUSH1 0x4 ADD DUP1 DUP1 PUSH1 0x20 ADD DUP3 DUP2 SUB DUP3 MSTORE PUSH1 0x1B DUP2 MSTORE PUSH1 0x20 ADD DUP1 PUSH32 0x4C50546F6B656E5368617265506F6F6C3A206E6F742073746172740000000000 DUP2 MSTORE POP PUSH1 0x20 ADD SWAP2 POP POP PUSH1 0x40 MLOAD DUP1 SWAP2 SUB SWAP1 REVERT JUMPDEST PUSH1 0x0 PUSH2 0xEA1 CALLER PUSH2 0x5E5 JUMP JUMPDEST SWAP1 POP PUSH1 0x0 DUP2 GT ISZERO PUSH2 0xF8D JUMPI PUSH1 0x0 PUSH1 0xD PUSH1 0x0 CALLER PUSH20 0xFFFFFFFFFFFFFFFFFFFFFFFFFFFFFFFFFFFFFFFF AND PUSH20 0xFFFFFFFFFFFFFFFFFFFFFFFFFFFFFFFFFFFFFFFF AND DUP2 MSTORE PUSH1 0x20 ADD SWAP1 DUP2 MSTORE PUSH1 0x20 ADD PUSH1 0x0 KECCAK256 DUP2 SWAP1 SSTORE POP PUSH2 0xF3E CALLER DUP3 PUSH1 0x5 PUSH1 0x0 SWAP1 SLOAD SWAP1 PUSH2 0x100 EXP SWAP1 DIV PUSH20 0xFFFFFFFFFFFFFFFFFFFFFFFFFFFFFFFFFFFFFFFF AND PUSH20 0xFFFFFFFFFFFFFFFFFFFFFFFFFFFFFFFFFFFFFFFF AND PUSH2 0x1A3B SWAP1 SWAP3 SWAP2 SWAP1 PUSH4 0xFFFFFFFF AND JUMP JUMPDEST CALLER PUSH20 0xFFFFFFFFFFFFFFFFFFFFFFFFFFFFFFFFFFFFFFFF AND PUSH32 0xE2403640BA68FED3A2F88B7557551D1993F84B99BB10FF833F0CF8DB0C5E0486 DUP3 PUSH1 0x40 MLOAD DUP1 DUP3 DUP2 MSTORE PUSH1 0x20 ADD SWAP2 POP POP PUSH1 0x40 MLOAD DUP1 SWAP2 SUB SWAP1 LOG2 JUMPDEST POP POP JUMP JUMPDEST PUSH1 0x0 PUSH1 0x2 PUSH1 0x0 DUP4 PUSH20 0xFFFFFFFFFFFFFFFFFFFFFFFFFFFFFFFFFFFFFFFF AND PUSH20 0xFFFFFFFFFFFFFFFFFFFFFFFFFFFFFFFFFFFFFFFF AND DUP2 MSTORE PUSH1 0x20 ADD SWAP1 DUP2 MSTORE PUSH1 0x20 ADD PUSH1 0x0 KECCAK256 SLOAD SWAP1 POP SWAP2 SWAP1 POP JUMP JUMPDEST PUSH2 0xFE2 PUSH2 0x1897 JUMP JUMPDEST PUSH20 0xFFFFFFFFFFFFFFFFFFFFFFFFFFFFFFFFFFFFFFFF AND PUSH1 0x3 PUSH1 0x0 SWAP1 SLOAD SWAP1 PUSH2 0x100 EXP SWAP1 DIV PUSH20 0xFFFFFFFFFFFFFFFFFFFFFFFFFFFFFFFFFFFFFFFF AND PUSH20 0xFFFFFFFFFFFFFFFFFFFFFFFFFFFFFFFFFFFFFFFF AND EQ PUSH2 0x10A4 JUMPI PUSH1 0x40 MLOAD PUSH32 0x8C379A000000000000000000000000000000000000000000000000000000000 DUP2 MSTORE PUSH1 0x4 ADD DUP1 DUP1 PUSH1 0x20 ADD DUP3 DUP2 SUB DUP3 MSTORE PUSH1 0x20 DUP2 MSTORE PUSH1 0x20 ADD DUP1 PUSH32 0x4F776E61626C653A2063616C6C6572206973206E6F7420746865206F776E6572 DUP2 MSTORE POP PUSH1 0x20 ADD SWAP2 POP POP PUSH1 0x40 MLOAD DUP1 SWAP2 SUB SWAP1 REVERT JUMPDEST PUSH1 0x0 PUSH20 0xFFFFFFFFFFFFFFFFFFFFFFFFFFFFFFFFFFFFFFFF AND PUSH1 0x3 PUSH1 0x0 SWAP1 SLOAD SWAP1 PUSH2 0x100 EXP SWAP1 DIV PUSH20 0xFFFFFFFFFFFFFFFFFFFFFFFFFFFFFFFFFFFFFFFF AND PUSH20 0xFFFFFFFFFFFFFFFFFFFFFFFFFFFFFFFFFFFFFFFF AND PUSH32 0x8BE0079C531659141344CD1FD0A4F28419497F9722A3DAAFE3B4186F6B6457E0 PUSH1 0x40 MLOAD PUSH1 0x40 MLOAD DUP1 SWAP2 SUB SWAP1 LOG3 PUSH1 0x0 PUSH1 0x3 PUSH1 0x0 PUSH2 0x100 EXP DUP2 SLOAD DUP2 PUSH20 0xFFFFFFFFFFFFFFFFFFFFFFFFFFFFFFFFFFFFFFFF MUL NOT AND SWAP1 DUP4 PUSH20 0xFFFFFFFFFFFFFFFFFFFFFFFFFFFFFFFFFFFFFFFF AND MUL OR SWAP1 SSTORE POP JUMP JUMPDEST PUSH1 0x9 SLOAD DUP2 JUMP JUMPDEST PUSH1 0x0 PUSH2 0x1179 TIMESTAMP PUSH1 0x8 SLOAD PUSH2 0x1ADD JUMP JUMPDEST SWAP1 POP SWAP1 JUMP JUMPDEST PUSH1 0xC PUSH1 0x20 MSTORE DUP1 PUSH1 0x0 MSTORE PUSH1 0x40 PUSH1 0x0 KECCAK256 PUSH1 0x0 SWAP2 POP SWAP1 POP SLOAD DUP2 JUMP JUMPDEST PUSH1 0x7 SLOAD DUP2 JUMP JUMPDEST PUSH1 0x0 PUSH1 0x3 PUSH1 0x0 SWAP1 SLOAD SWAP1 PUSH2 0x100 EXP SWAP1 DIV PUSH20 0xFFFFFFFFFFFFFFFFFFFFFFFFFFFFFFFFFFFFFFFF AND SWAP1 POP SWAP1 JUMP JUMPDEST CALLER PUSH2 0x11CF PUSH2 0x13DC JUMP JUMPDEST PUSH1 0xB DUP2 SWAP1 SSTORE POP PUSH2 0x11DD PUSH2 0x116B JUMP JUMPDEST PUSH1 0xA DUP2 SWAP1 SSTORE POP PUSH1 0x0 PUSH20 0xFFFFFFFFFFFFFFFFFFFFFFFFFFFFFFFFFFFFFFFF AND DUP2 PUSH20 0xFFFFFFFFFFFFFFFFFFFFFFFFFFFFFFFFFFFFFFFF AND EQ PUSH2 0x12AA JUMPI PUSH2 0x1220 DUP2 PUSH2 0x5E5 JUMP JUMPDEST PUSH1 0xD PUSH1 0x0 DUP4 PUSH20 0xFFFFFFFFFFFFFFFFFFFFFFFFFFFFFFFFFFFFFFFF AND PUSH20 0xFFFFFFFFFFFFFFFFFFFFFFFFFFFFFFFFFFFFFFFF AND DUP2 MSTORE PUSH1 0x20 ADD SWAP1 DUP2 MSTORE PUSH1 0x20 ADD PUSH1 0x0 KECCAK256 DUP2 SWAP1 SSTORE POP PUSH1 0xB SLOAD PUSH1 0xC PUSH1 0x0 DUP4 PUSH20 0xFFFFFFFFFFFFFFFFFFFFFFFFFFFFFFFFFFFFFFFF AND PUSH20 0xFFFFFFFFFFFFFFFFFFFFFFFFFFFFFFFFFFFFFFFF AND DUP2 MSTORE PUSH1 0x20 ADD SWAP1 DUP2 MSTORE PUSH1 0x20 ADD PUSH1 0x0 KECCAK256 DUP2 SWAP1 SSTORE POP JUMPDEST PUSH1 0x7 SLOAD TIMESTAMP LT ISZERO PUSH2 0x1322 JUMPI PUSH1 0x40 MLOAD PUSH32 0x8C379A000000000000000000000000000000000000000000000000000000000 DUP2 MSTORE PUSH1 0x4 ADD DUP1 DUP1 PUSH1 0x20 ADD DUP3 DUP2 SUB DUP3 MSTORE PUSH1 0x1B DUP2 MSTORE PUSH1 0x20 ADD DUP1 PUSH32 0x4C50546F6B656E5368617265506F6F6C3A206E6F742073746172740000000000 DUP2 MSTORE POP PUSH1 0x20 ADD SWAP2 POP POP PUSH1 0x40 MLOAD DUP1 SWAP2 SUB SWAP1 REVERT JUMPDEST PUSH1 0x0 DUP3 GT PUSH2 0x137B JUMPI PUSH1 0x40 MLOAD PUSH32 0x8C379A000000000000000000000000000000000000000000000000000000000 DUP2 MSTORE PUSH1 0x4 ADD DUP1 DUP1 PUSH1 0x20 ADD DUP3 DUP2 SUB DUP3 MSTORE PUSH1 0x27 DUP2 MSTORE PUSH1 0x20 ADD DUP1 PUSH2 0x21A5 PUSH1 0x27 SWAP2 CODECOPY PUSH1 0x40 ADD SWAP2 POP POP PUSH1 0x40 MLOAD DUP1 SWAP2 SUB SWAP1 REVERT JUMPDEST PUSH2 0x1384 DUP3 PUSH2 0x1AF6 JUMP JUMPDEST CALLER PUSH20 0xFFFFFFFFFFFFFFFFFFFFFFFFFFFFFFFFFFFFFFFF AND PUSH32 0x9E71BC8EEA02A63969F509818F2DAFB9254532904319F9DBDA79B67BD34A5F3D DUP4 PUSH1 0x40 MLOAD DUP1 DUP3 DUP2 MSTORE PUSH1 0x20 ADD SWAP2 POP POP PUSH1 0x40 MLOAD DUP1 SWAP2 SUB SWAP1 LOG2 POP POP JUMP JUMPDEST PUSH1 0xA SLOAD DUP2 JUMP JUMPDEST PUSH1 0x0 DUP1 PUSH2 0x13E7 PUSH2 0x818 JUMP JUMPDEST EQ ISZERO PUSH2 0x13F7 JUMPI PUSH1 0xB SLOAD SWAP1 POP PUSH2 0x1471 JUMP JUMPDEST PUSH2 0x146E PUSH2 0x145D PUSH2 0x1405 PUSH2 0x818 JUMP JUMPDEST PUSH2 0x144F PUSH8 0xDE0B6B3A7640000 PUSH2 0x1441 PUSH1 0x9 SLOAD PUSH2 0x1433 PUSH1 0xA SLOAD PUSH2 0x1425 PUSH2 0x116B JUMP JUMPDEST PUSH2 0x16F5 SWAP1 SWAP2 SWAP1 PUSH4 0xFFFFFFFF AND JUMP JUMPDEST PUSH2 0x173F SWAP1 SWAP2 SWAP1 PUSH4 0xFFFFFFFF AND JUMP JUMPDEST PUSH2 0x173F SWAP1 SWAP2 SWAP1 PUSH4 0xFFFFFFFF AND JUMP JUMPDEST PUSH2 0x17C5 SWAP1 SWAP2 SWAP1 PUSH4 0xFFFFFFFF AND JUMP JUMPDEST PUSH1 0xB SLOAD PUSH2 0x180F SWAP1 SWAP2 SWAP1 PUSH4 0xFFFFFFFF AND JUMP JUMPDEST SWAP1 POP JUMPDEST SWAP1 JUMP JUMPDEST PUSH1 0x0 DUP1 SLOAD SWAP1 PUSH2 0x100 EXP SWAP1 DIV PUSH20 0xFFFFFFFFFFFFFFFFFFFFFFFFFFFFFFFFFFFFFFFF AND DUP2 JUMP JUMPDEST PUSH1 0xB SLOAD DUP2 JUMP JUMPDEST PUSH2 0x14AF PUSH2 0x14AA CALLER PUSH2 0xF91 JUMP JUMPDEST PUSH2 0x828 JUMP JUMPDEST PUSH2 0x14B7 PUSH2 0xD3A JUMP JUMPDEST JUMP JUMPDEST PUSH1 0x8 SLOAD DUP2 JUMP JUMPDEST PUSH2 0x14C7 PUSH2 0x1897 JUMP JUMPDEST PUSH20 0xFFFFFFFFFFFFFFFFFFFFFFFFFFFFFFFFFFFFFFFF AND PUSH1 0x3 PUSH1 0x0 SWAP1 SLOAD SWAP1 PUSH2 0x100 EXP SWAP1 DIV PUSH20 0xFFFFFFFFFFFFFFFFFFFFFFFFFFFFFFFFFFFFFFFF AND PUSH20 0xFFFFFFFFFFFFFFFFFFFFFFFFFFFFFFFFFFFFFFFF AND EQ PUSH2 0x1589 JUMPI PUSH1 0x40 MLOAD PUSH32 0x8C379A000000000000000000000000000000000000000000000000000000000 DUP2 MSTORE PUSH1 0x4 ADD DUP1 DUP1 PUSH1 0x20 ADD DUP3 DUP2 SUB DUP3 MSTORE PUSH1 0x20 DUP2 MSTORE PUSH1 0x20 ADD DUP1 PUSH32 0x4F776E61626C653A2063616C6C6572206973206E6F7420746865206F776E6572 DUP2 MSTORE POP PUSH1 0x20 ADD SWAP2 POP POP PUSH1 0x40 MLOAD DUP1 SWAP2 SUB SWAP1 REVERT JUMPDEST PUSH1 0x0 PUSH20 0xFFFFFFFFFFFFFFFFFFFFFFFFFFFFFFFFFFFFFFFF AND DUP2 PUSH20 0xFFFFFFFFFFFFFFFFFFFFFFFFFFFFFFFFFFFFFFFF AND EQ ISZERO PUSH2 0x160F JUMPI PUSH1 0x40 MLOAD PUSH32 0x8C379A000000000000000000000000000000000000000000000000000000000 DUP2 MSTORE PUSH1 0x4 ADD DUP1 DUP1 PUSH1 0x20 ADD DUP3 DUP2 SUB DUP3 MSTORE PUSH1 0x26 DUP2 MSTORE PUSH1 0x20 ADD DUP1 PUSH2 0x215E PUSH1 0x26 SWAP2 CODECOPY PUSH1 0x40 ADD SWAP2 POP POP PUSH1 0x40 MLOAD DUP1 SWAP2 SUB SWAP1 REVERT JUMPDEST DUP1 PUSH20 0xFFFFFFFFFFFFFFFFFFFFFFFFFFFFFFFFFFFFFFFF AND PUSH1 0x3 PUSH1 0x0 SWAP1 SLOAD SWAP1 PUSH2 0x100 EXP SWAP1 DIV PUSH20 0xFFFFFFFFFFFFFFFFFFFFFFFFFFFFFFFFFFFFFFFF AND PUSH20 0xFFFFFFFFFFFFFFFFFFFFFFFFFFFFFFFFFFFFFFFF AND PUSH32 0x8BE0079C531659141344CD1FD0A4F28419497F9722A3DAAFE3B4186F6B6457E0 PUSH1 0x40 MLOAD PUSH1 0x40 MLOAD DUP1 SWAP2 SUB SWAP1 LOG3 DUP1 PUSH1 0x3 PUSH1 0x0 PUSH2 0x100 EXP DUP2 SLOAD DUP2 PUSH20 0xFFFFFFFFFFFFFFFFFFFFFFFFFFFFFFFFFFFFFFFF MUL NOT AND SWAP1 DUP4 PUSH20 0xFFFFFFFFFFFFFFFFFFFFFFFFFFFFFFFFFFFFFFFF AND MUL OR SWAP1 SSTORE POP POP JUMP JUMPDEST PUSH1 0x5 PUSH1 0x0 SWAP1 SLOAD SWAP1 PUSH2 0x100 EXP SWAP1 DIV PUSH20 0xFFFFFFFFFFFFFFFFFFFFFFFFFFFFFFFFFFFFFFFF AND DUP2 JUMP JUMPDEST PUSH1 0x0 PUSH2 0x1737 DUP4 DUP4 PUSH1 0x40 MLOAD DUP1 PUSH1 0x40 ADD PUSH1 0x40 MSTORE DUP1 PUSH1 0x1E DUP2 MSTORE PUSH1 0x20 ADD PUSH32 0x536166654D6174683A207375627472616374696F6E206F766572666C6F770000 DUP2 MSTORE POP PUSH2 0x1BF6 JUMP JUMPDEST SWAP1 POP SWAP3 SWAP2 POP POP JUMP JUMPDEST PUSH1 0x0 DUP1 DUP4 EQ ISZERO PUSH2 0x1752 JUMPI PUSH1 0x0 SWAP1 POP PUSH2 0x17BF JUMP JUMPDEST PUSH1 0x0 DUP3 DUP5 MUL SWAP1 POP DUP3 DUP5 DUP3 DUP2 PUSH2 0x1763 JUMPI INVALID JUMPDEST DIV EQ PUSH2 0x17BA JUMPI PUSH1 0x40 MLOAD PUSH32 0x8C379A000000000000000000000000000000000000000000000000000000000 DUP2 MSTORE PUSH1 0x4 ADD DUP1 DUP1 PUSH1 0x20 ADD DUP3 DUP2 SUB DUP3 MSTORE PUSH1 0x21 DUP2 MSTORE PUSH1 0x20 ADD DUP1 PUSH2 0x2184 PUSH1 0x21 SWAP2 CODECOPY PUSH1 0x40 ADD SWAP2 POP POP PUSH1 0x40 MLOAD DUP1 SWAP2 SUB SWAP1 REVERT JUMPDEST DUP1 SWAP2 POP POP JUMPDEST SWAP3 SWAP2 POP POP JUMP JUMPDEST PUSH1 0x0 PUSH2 0x1807 DUP4 DUP4 PUSH1 0x40 MLOAD DUP1 PUSH1 0x40 ADD PUSH1 0x40 MSTORE DUP1 PUSH1 0x1A DUP2 MSTORE PUSH1 0x20 ADD PUSH32 0x536166654D6174683A206469766973696F6E206279207A65726F000000000000 DUP2 MSTORE POP PUSH2 0x1CB6 JUMP JUMPDEST SWAP1 POP SWAP3 SWAP2 POP POP JUMP JUMPDEST PUSH1 0x0 DUP1 DUP3 DUP5 ADD SWAP1 POP DUP4 DUP2 LT ISZERO PUSH2 0x188D JUMPI PUSH1 0x40 MLOAD PUSH32 0x8C379A000000000000000000000000000000000000000000000000000000000 DUP2 MSTORE PUSH1 0x4 ADD DUP1 DUP1 PUSH1 0x20 ADD DUP3 DUP2 SUB DUP3 MSTORE PUSH1 0x1B DUP2 MSTORE PUSH1 0x20 ADD DUP1 PUSH32 0x536166654D6174683A206164646974696F6E206F766572666C6F770000000000 DUP2 MSTORE POP PUSH1 0x20 ADD SWAP2 POP POP PUSH1 0x40 MLOAD DUP1 SWAP2 SUB SWAP1 REVERT JUMPDEST DUP1 SWAP2 POP POP SWAP3 SWAP2 POP POP JUMP JUMPDEST PUSH1 0x0 CALLER SWAP1 POP SWAP1 JUMP JUMPDEST PUSH1 0x0 PUSH1 0x2 PUSH1 0x0 CALLER PUSH20 0xFFFFFFFFFFFFFFFFFFFFFFFFFFFFFFFFFFFFFFFF AND PUSH20 0xFFFFFFFFFFFFFFFFFFFFFFFFFFFFFFFFFFFFFFFF AND DUP2 MSTORE PUSH1 0x20 ADD SWAP1 DUP2 MSTORE PUSH1 0x20 ADD PUSH1 0x0 KECCAK256 SLOAD SWAP1 POP DUP2 DUP2 LT ISZERO PUSH2 0x193C JUMPI PUSH1 0x40 MLOAD PUSH32 0x8C379A000000000000000000000000000000000000000000000000000000000 DUP2 MSTORE PUSH1 0x4 ADD DUP1 DUP1 PUSH1 0x20 ADD DUP3 DUP2 SUB DUP3 MSTORE PUSH1 0x2B DUP2 MSTORE PUSH1 0x20 ADD DUP1 PUSH2 0x2241 PUSH1 0x2B SWAP2 CODECOPY PUSH1 0x40 ADD SWAP2 POP POP PUSH1 0x40 MLOAD DUP1 SWAP2 SUB SWAP1 REVERT JUMPDEST PUSH2 0x1951 DUP3 PUSH1 0x1 SLOAD PUSH2 0x16F5 SWAP1 SWAP2 SWAP1 PUSH4 0xFFFFFFFF AND JUMP JUMPDEST PUSH1 0x1 DUP2 SWAP1 SSTORE POP PUSH2 0x19A9 DUP3 PUSH1 0x2 PUSH1 0x0 CALLER PUSH20 0xFFFFFFFFFFFFFFFFFFFFFFFFFFFFFFFFFFFFFFFF AND PUSH20 0xFFFFFFFFFFFFFFFFFFFFFFFFFFFFFFFFFFFFFFFF AND DUP2 MSTORE PUSH1 0x20 ADD SWAP1 DUP2 MSTORE PUSH1 0x20 ADD PUSH1 0x0 KECCAK256 SLOAD PUSH2 0x16F5 SWAP1 SWAP2 SWAP1 PUSH4 0xFFFFFFFF AND JUMP JUMPDEST PUSH1 0x2 PUSH1 0x0 CALLER PUSH20 0xFFFFFFFFFFFFFFFFFFFFFFFFFFFFFFFFFFFFFFFF AND PUSH20 0xFFFFFFFFFFFFFFFFFFFFFFFFFFFFFFFFFFFFFFFF AND DUP2 MSTORE PUSH1 0x20 ADD SWAP1 DUP2 MSTORE PUSH1 0x20 ADD PUSH1 0x0 KECCAK256 DUP2 SWAP1 SSTORE POP PUSH2 0x1A37 CALLER DUP4 PUSH1 0x0 DUP1 SLOAD SWAP1 PUSH2 0x100 EXP SWAP1 DIV PUSH20 0xFFFFFFFFFFFFFFFFFFFFFFFFFFFFFFFFFFFFFFFF AND PUSH20 0xFFFFFFFFFFFFFFFFFFFFFFFFFFFFFFFFFFFFFFFF AND PUSH2 0x1A3B SWAP1 SWAP3 SWAP2 SWAP1 PUSH4 0xFFFFFFFF AND JUMP JUMPDEST POP POP JUMP JUMPDEST PUSH2 0x1AD8 DUP4 PUSH4 0xA9059CBB PUSH1 0xE0 SHL DUP5 DUP5 PUSH1 0x40 MLOAD PUSH1 0x24 ADD DUP1 DUP4 PUSH20 0xFFFFFFFFFFFFFFFFFFFFFFFFFFFFFFFFFFFFFFFF AND DUP2 MSTORE PUSH1 0x20 ADD DUP3 DUP2 MSTORE PUSH1 0x20 ADD SWAP3 POP POP POP PUSH1 0x40 MLOAD PUSH1 0x20 DUP2 DUP4 SUB SUB DUP2 MSTORE SWAP1 PUSH1 0x40 MSTORE SWAP1 PUSH28 0xFFFFFFFFFFFFFFFFFFFFFFFFFFFFFFFFFFFFFFFFFFFFFFFFFFFFFFFF NOT AND PUSH1 0x20 DUP3 ADD DUP1 MLOAD PUSH28 0xFFFFFFFFFFFFFFFFFFFFFFFFFFFFFFFFFFFFFFFFFFFFFFFFFFFFFFFF DUP4 DUP2 DUP4 AND OR DUP4 MSTORE POP POP POP POP PUSH2 0x1D7C JUMP JUMPDEST POP POP POP JUMP JUMPDEST PUSH1 0x0 DUP2 DUP4 LT PUSH2 0x1AEC JUMPI DUP2 PUSH2 0x1AEE JUMP JUMPDEST DUP3 JUMPDEST SWAP1 POP SWAP3 SWAP2 POP POP JUMP JUMPDEST PUSH2 0x1B0B DUP2 PUSH1 0x1 SLOAD PUSH2 0x180F SWAP1 SWAP2 SWAP1 PUSH4 0xFFFFFFFF AND JUMP JUMPDEST PUSH1 0x1 DUP2 SWAP1 SSTORE POP PUSH2 0x1B63 DUP2 PUSH1 0x2 PUSH1 0x0 CALLER PUSH20 0xFFFFFFFFFFFFFFFFFFFFFFFFFFFFFFFFFFFFFFFF AND PUSH20 0xFFFFFFFFFFFFFFFFFFFFFFFFFFFFFFFFFFFFFFFF AND DUP2 MSTORE PUSH1 0x20 ADD SWAP1 DUP2 MSTORE PUSH1 0x20 ADD PUSH1 0x0 KECCAK256 SLOAD PUSH2 0x180F SWAP1 SWAP2 SWAP1 PUSH4 0xFFFFFFFF AND JUMP JUMPDEST PUSH1 0x2 PUSH1 0x0 CALLER PUSH20 0xFFFFFFFFFFFFFFFFFFFFFFFFFFFFFFFFFFFFFFFF AND PUSH20 0xFFFFFFFFFFFFFFFFFFFFFFFFFFFFFFFFFFFFFFFF AND DUP2 MSTORE PUSH1 0x20 ADD SWAP1 DUP2 MSTORE PUSH1 0x20 ADD PUSH1 0x0 KECCAK256 DUP2 SWAP1 SSTORE POP PUSH2 0x1BF3 CALLER ADDRESS DUP4 PUSH1 0x0 DUP1 SLOAD SWAP1 PUSH2 0x100 EXP SWAP1 DIV PUSH20 0xFFFFFFFFFFFFFFFFFFFFFFFFFFFFFFFFFFFFFFFF AND PUSH20 0xFFFFFFFFFFFFFFFFFFFFFFFFFFFFFFFFFFFFFFFF AND PUSH2 0x1E6B SWAP1 SWAP4 SWAP3 SWAP2 SWAP1 PUSH4 0xFFFFFFFF AND JUMP JUMPDEST POP JUMP JUMPDEST PUSH1 0x0 DUP4 DUP4 GT ISZERO DUP3 SWAP1 PUSH2 0x1CA3 JUMPI PUSH1 0x40 MLOAD PUSH32 0x8C379A000000000000000000000000000000000000000000000000000000000 DUP2 MSTORE PUSH1 0x4 ADD DUP1 DUP1 PUSH1 0x20 ADD DUP3 DUP2 SUB DUP3 MSTORE DUP4 DUP2 DUP2 MLOAD DUP2 MSTORE PUSH1 0x20 ADD SWAP2 POP DUP1 MLOAD SWAP1 PUSH1 0x20 ADD SWAP1 DUP1 DUP4 DUP4 PUSH1 0x0 JUMPDEST DUP4 DUP2 LT ISZERO PUSH2 0x1C68 JUMPI DUP1 DUP3 ADD MLOAD DUP2 DUP5 ADD MSTORE PUSH1 0x20 DUP2 ADD SWAP1 POP PUSH2 0x1C4D JUMP JUMPDEST POP POP POP POP SWAP1 POP SWAP1 DUP2 ADD SWAP1 PUSH1 0x1F AND DUP1 ISZERO PUSH2 0x1C95 JUMPI DUP1 DUP3 SUB DUP1 MLOAD PUSH1 0x1 DUP4 PUSH1 0x20 SUB PUSH2 0x100 EXP SUB NOT AND DUP2 MSTORE PUSH1 0x20 ADD SWAP2 POP JUMPDEST POP SWAP3 POP POP POP PUSH1 0x40 MLOAD DUP1 SWAP2 SUB SWAP1 REVERT JUMPDEST POP PUSH1 0x0 DUP4 DUP6 SUB SWAP1 POP DUP1 SWAP2 POP POP SWAP4 SWAP3 POP POP POP JUMP JUMPDEST PUSH1 0x0 DUP1 DUP4 GT DUP3 SWAP1 PUSH2 0x1D62 JUMPI PUSH1 0x40 MLOAD PUSH32 0x8C379A000000000000000000000000000000000000000000000000000000000 DUP2 MSTORE PUSH1 0x4 ADD DUP1 DUP1 PUSH1 0x20 ADD DUP3 DUP2 SUB DUP3 MSTORE DUP4 DUP2 DUP2 MLOAD DUP2 MSTORE PUSH1 0x20 ADD SWAP2 POP DUP1 MLOAD SWAP1 PUSH1 0x20 ADD SWAP1 DUP1 DUP4 DUP4 PUSH1 0x0 JUMPDEST DUP4 DUP2 LT ISZERO PUSH2 0x1D27 JUMPI DUP1 DUP3 ADD MLOAD DUP2 DUP5 ADD MSTORE PUSH1 0x20 DUP2 ADD SWAP1 POP PUSH2 0x1D0C JUMP JUMPDEST POP POP POP POP SWAP1 POP SWAP1 DUP2 ADD SWAP1 PUSH1 0x1F AND DUP1 ISZERO PUSH2 0x1D54 JUMPI DUP1 DUP3 SUB DUP1 MLOAD PUSH1 0x1 DUP4 PUSH1 0x20 SUB PUSH2 0x100 EXP SUB NOT AND DUP2 MSTORE PUSH1 0x20 ADD SWAP2 POP JUMPDEST POP SWAP3 POP POP POP PUSH1 0x40 MLOAD DUP1 SWAP2 SUB SWAP1 REVERT JUMPDEST POP PUSH1 0x0 DUP4 DUP6 DUP2 PUSH2 0x1D6E JUMPI INVALID JUMPDEST DIV SWAP1 POP DUP1 SWAP2 POP POP SWAP4 SWAP3 POP POP POP JUMP JUMPDEST PUSH1 0x60 PUSH2 0x1DDE DUP3 PUSH1 0x40 MLOAD DUP1 PUSH1 0x40 ADD PUSH1 0x40 MSTORE DUP1 PUSH1 0x20 DUP2 MSTORE PUSH1 0x20 ADD PUSH32 0x5361666545524332303A206C6F772D6C6576656C2063616C6C206661696C6564 DUP2 MSTORE POP DUP6 PUSH20 0xFFFFFFFFFFFFFFFFFFFFFFFFFFFFFFFFFFFFFFFF AND PUSH2 0x1F2C SWAP1 SWAP3 SWAP2 SWAP1 PUSH4 0xFFFFFFFF AND JUMP JUMPDEST SWAP1 POP PUSH1 0x0 DUP2 MLOAD GT ISZERO PUSH2 0x1E66 JUMPI DUP1 DUP1 PUSH1 0x20 ADD SWAP1 MLOAD PUSH1 0x20 DUP2 LT ISZERO PUSH2 0x1DFF JUMPI PUSH1 0x0 DUP1 REVERT JUMPDEST DUP2 ADD SWAP1 DUP1 DUP1 MLOAD SWAP1 PUSH1 0x20 ADD SWAP1 SWAP3 SWAP2 SWAP1 POP POP POP PUSH2 0x1E65 JUMPI PUSH1 0x40 MLOAD PUSH32 0x8C379A000000000000000000000000000000000000000000000000000000000 DUP2 MSTORE PUSH1 0x4 ADD DUP1 DUP1 PUSH1 0x20 ADD DUP3 DUP2 SUB DUP3 MSTORE PUSH1 0x2A DUP2 MSTORE PUSH1 0x20 ADD DUP1 PUSH2 0x21ED PUSH1 0x2A SWAP2 CODECOPY PUSH1 0x40 ADD SWAP2 POP POP PUSH1 0x40 MLOAD DUP1 SWAP2 SUB SWAP1 REVERT JUMPDEST JUMPDEST POP POP POP JUMP JUMPDEST PUSH2 0x1F26 DUP5 PUSH4 0x23B872DD PUSH1 0xE0 SHL DUP6 DUP6 DUP6 PUSH1 0x40 MLOAD PUSH1 0x24 ADD DUP1 DUP5 PUSH20 0xFFFFFFFFFFFFFFFFFFFFFFFFFFFFFFFFFFFFFFFF AND DUP2 MSTORE PUSH1 0x20 ADD DUP4 PUSH20 0xFFFFFFFFFFFFFFFFFFFFFFFFFFFFFFFFFFFFFFFF AND DUP2 MSTORE PUSH1 0x20 ADD DUP3 DUP2 MSTORE PUSH1 0x20 ADD SWAP4 POP POP POP POP PUSH1 0x40 MLOAD PUSH1 0x20 DUP2 DUP4 SUB SUB DUP2 MSTORE SWAP1 PUSH1 0x40 MSTORE SWAP1 PUSH28 0xFFFFFFFFFFFFFFFFFFFFFFFFFFFFFFFFFFFFFFFFFFFFFFFFFFFFFFFF NOT AND PUSH1 0x20 DUP3 ADD DUP1 MLOAD PUSH28 0xFFFFFFFFFFFFFFFFFFFFFFFFFFFFFFFFFFFFFFFFFFFFFFFFFFFFFFFF DUP4 DUP2 DUP4 AND OR DUP4 MSTORE POP POP POP POP PUSH2 0x1D7C JUMP JUMPDEST POP POP POP POP JUMP JUMPDEST PUSH1 0x60 PUSH2 0x1F3B DUP5 DUP5 PUSH1 0x0 DUP6 PUSH2 0x1F44 JUMP JUMPDEST SWAP1 POP SWAP4 SWAP3 POP POP POP JUMP JUMPDEST PUSH1 0x60 PUSH2 0x1F4F DUP6 PUSH2 0x214A JUMP JUMPDEST PUSH2 0x1FC1 JUMPI PUSH1 0x40 MLOAD PUSH32 0x8C379A000000000000000000000000000000000000000000000000000000000 DUP2 MSTORE PUSH1 0x4 ADD DUP1 DUP1 PUSH1 0x20 ADD DUP3 DUP2 SUB DUP3 MSTORE PUSH1 0x1D DUP2 MSTORE PUSH1 0x20 ADD DUP1 PUSH32 0x416464726573733A2063616C6C20746F206E6F6E2D636F6E7472616374000000 DUP2 MSTORE POP PUSH1 0x20 ADD SWAP2 POP POP PUSH1 0x40 MLOAD DUP1 SWAP2 SUB SWAP1 REVERT JUMPDEST PUSH1 0x0 PUSH1 0x60 DUP7 PUSH20 0xFFFFFFFFFFFFFFFFFFFFFFFFFFFFFFFFFFFFFFFF AND DUP6 DUP8 PUSH1 0x40 MLOAD DUP1 DUP3 DUP1 MLOAD SWAP1 PUSH1 0x20 ADD SWAP1 DUP1 DUP4 DUP4 JUMPDEST PUSH1 0x20 DUP4 LT PUSH2 0x2011 JUMPI DUP1 MLOAD DUP3 MSTORE PUSH1 0x20 DUP3 ADD SWAP2 POP PUSH1 0x20 DUP2 ADD SWAP1 POP PUSH1 0x20 DUP4 SUB SWAP3 POP PUSH2 0x1FEE JUMP JUMPDEST PUSH1 0x1 DUP4 PUSH1 0x20 SUB PUSH2 0x100 EXP SUB DUP1 NOT DUP3 MLOAD AND DUP2 DUP5 MLOAD AND DUP1 DUP3 OR DUP6 MSTORE POP POP POP POP POP POP SWAP1 POP ADD SWAP2 POP POP PUSH1 0x0 PUSH1 0x40 MLOAD DUP1 DUP4 SUB DUP2 DUP6 DUP8 GAS CALL SWAP3 POP POP POP RETURNDATASIZE DUP1 PUSH1 0x0 DUP2 EQ PUSH2 0x2073 JUMPI PUSH1 0x40 MLOAD SWAP2 POP PUSH1 0x1F NOT PUSH1 0x3F RETURNDATASIZE ADD AND DUP3 ADD PUSH1 0x40 MSTORE RETURNDATASIZE DUP3 MSTORE RETURNDATASIZE PUSH1 0x0 PUSH1 0x20 DUP5 ADD RETURNDATACOPY PUSH2 0x2078 JUMP JUMPDEST PUSH1 0x60 SWAP2 POP JUMPDEST POP SWAP2 POP SWAP2 POP DUP2 ISZERO PUSH2 0x208D JUMPI DUP1 SWAP3 POP POP POP PUSH2 0x2142 JUMP JUMPDEST PUSH1 0x0 DUP2 MLOAD GT ISZERO PUSH2 0x20A0 JUMPI DUP1 MLOAD DUP1 DUP3 PUSH1 0x20 ADD REVERT JUMPDEST DUP4 PUSH1 0x40 MLOAD PUSH32 0x8C379A000000000000000000000000000000000000000000000000000000000 DUP2 MSTORE PUSH1 0x4 ADD DUP1 DUP1 PUSH1 0x20 ADD DUP3 DUP2 SUB DUP3 MSTORE DUP4 DUP2 DUP2 MLOAD DUP2 MSTORE PUSH1 0x20 ADD SWAP2 POP DUP1 MLOAD SWAP1 PUSH1 0x20 ADD SWAP1 DUP1 DUP4 DUP4 PUSH1 0x0 JUMPDEST DUP4 DUP2 LT ISZERO PUSH2 0x2107 JUMPI DUP1 DUP3 ADD MLOAD DUP2 DUP5 ADD MSTORE PUSH1 0x20 DUP2 ADD SWAP1 POP PUSH2 0x20EC JUMP JUMPDEST POP POP POP POP SWAP1 POP SWAP1 DUP2 ADD SWAP1 PUSH1 0x1F AND DUP1 ISZERO PUSH2 0x2134 JUMPI DUP1 DUP3 SUB DUP1 MLOAD PUSH1 0x1 DUP4 PUSH1 0x20 SUB PUSH2 0x100 EXP SUB NOT AND DUP2 MSTORE PUSH1 0x20 ADD SWAP2 POP JUMPDEST POP SWAP3 POP POP POP PUSH1 0x40 MLOAD DUP1 SWAP2 SUB SWAP1 REVERT JUMPDEST SWAP5 SWAP4 POP POP POP POP JUMP JUMPDEST PUSH1 0x0 DUP1 DUP3 EXTCODESIZE SWAP1 POP PUSH1 0x0 DUP2 GT SWAP2 POP POP SWAP2 SWAP1 POP JUMP INVALID 0x4F PUSH24 0x6E61626C653A206E6577206F776E65722069732074686520 PUSH27 0x65726F2061646472657373536166654D6174683A206D756C746970 PUSH13 0x69636174696F6E206F76657266 PUSH13 0x6F7748555344474F434C50546F PUSH12 0x656E5368617265506F6F6C3A KECCAK256 NUMBER PUSH2 0x6E6E PUSH16 0x74207374616B65203043616C6C657220 PUSH10 0x73206E6F742072657761 PUSH19 0x6420646973747269627574696F6E5361666545 MSTORE NUMBER ORIGIN ADDRESS GASPRICE KECCAK256 GASLIMIT MSTORE NUMBER ORIGIN ADDRESS KECCAK256 PUSH16 0x7065726174696F6E20646964206E6F74 KECCAK256 PUSH20 0x75636365656448555344474F434C50546F6B656E MSTORE8 PUSH9 0x617265506F6F6C3A20 NUMBER PUSH2 0x6E6E PUSH16 0x74207769746864726177203077697468 PUSH5 0x7261772072 PUSH6 0x717565737420 PUSH8 0x7265617465722074 PUSH9 0x616E207374616B6564 KECCAK256 PUSH2 0x6D6F PUSH22 0x6E74A264697066735822122024307E4BA28E3A6855CF EQ SWAP15 0xEA DUP7 0xCB DUP14 PUSH18 0xFBDDC40A867FCDA3DFF61431EB154864736F PUSH13 0x634300060C0033000000000000 "
				},
				"gasEstimates": {
					"creation": {
						"codeDepositCost": "1773000",
						"executionCost": "infinite",
						"totalCost": "infinite"
					},
					"external": {
						"DURATION()": "1139",
						"balanceOf(address)": "1285",
						"earned(address)": "infinite",
						"exit()": "infinite",
						"getReward()": "infinite",
						"lastTimeRewardApplicable()": "1117",
						"lastUpdateTime()": "1138",
						"lpt()": "1111",
						"notifyRewardAmount(uint256)": "infinite",
						"owner()": "1144",
						"periodFinish()": "1071",
						"renounceOwnership()": "24408",
						"rewardDistribution()": "1137",
						"rewardPerToken()": "infinite",
						"rewardPerTokenStored()": "1094",
						"rewardRate()": "1138",
						"rewards(address)": "1215",
						"setRewardDistribution(address)": "22074",
						"stake(uint256)": "infinite",
						"starttime()": "1072",
						"token()": "1157",
						"totalSupply()": "1125",
						"transferOwnership(address)": "infinite",
						"userRewardPerTokenPaid(address)": "1214",
						"withdraw(uint256)": "infinite"
					}
				},
				"methodIdentifiers": {
					"DURATION()": "1be05289",
					"balanceOf(address)": "70a08231",
					"earned(address)": "008cc262",
					"exit()": "e9fad8ee",
					"getReward()": "3d18b912",
					"lastTimeRewardApplicable()": "80faa57d",
					"lastUpdateTime()": "c8f33c91",
					"lpt()": "ce5fc8d0",
					"notifyRewardAmount(uint256)": "3c6b16ab",
					"owner()": "8da5cb5b",
					"periodFinish()": "ebe2b12b",
					"renounceOwnership()": "715018a6",
					"rewardDistribution()": "101114cf",
					"rewardPerToken()": "cd3daf9d",
					"rewardPerTokenStored()": "df136d65",
					"rewardRate()": "7b0a47ee",
					"rewards(address)": "0700037d",
					"setRewardDistribution(address)": "0d68b761",
					"stake(uint256)": "a694fc3a",
					"starttime()": "8da58897",
					"token()": "fc0c546a",
					"totalSupply()": "18160ddd",
					"transferOwnership(address)": "f2fde38b",
					"userRewardPerTokenPaid(address)": "8b876347",
					"withdraw(uint256)": "2e1a7d4d"
				}
			},
			"storageLayout": {
				"storage": [
					{
						"astId": 874,
						"contract": "contracts/FYJ_STAKINGPOOL.sol:LPTokenPool",
						"label": "lpt",
						"offset": 0,
						"slot": "0",
						"type": "t_contract(IERC20)76"
					},
					{
						"astId": 877,
						"contract": "contracts/FYJ_STAKINGPOOL.sol:LPTokenPool",
						"label": "_totalSupply",
						"offset": 0,
						"slot": "1",
						"type": "t_uint256"
					},
					{
						"astId": 882,
						"contract": "contracts/FYJ_STAKINGPOOL.sol:LPTokenPool",
						"label": "_balances",
						"offset": 0,
						"slot": "2",
						"type": "t_mapping(t_address,t_uint256)"
					},
					{
						"astId": 556,
						"contract": "contracts/FYJ_STAKINGPOOL.sol:LPTokenPool",
						"label": "_owner",
						"offset": 0,
						"slot": "3",
						"type": "t_address"
					},
					{
						"astId": 997,
						"contract": "contracts/FYJ_STAKINGPOOL.sol:LPTokenPool",
						"label": "rewardDistribution",
						"offset": 0,
						"slot": "4",
						"type": "t_address"
					},
					{
						"astId": 1034,
						"contract": "contracts/FYJ_STAKINGPOOL.sol:LPTokenPool",
						"label": "token",
						"offset": 0,
						"slot": "5",
						"type": "t_contract(IERC20)76"
					},
					{
						"astId": 1038,
						"contract": "contracts/FYJ_STAKINGPOOL.sol:LPTokenPool",
						"label": "DURATION",
						"offset": 0,
						"slot": "6",
						"type": "t_uint256"
					},
					{
						"astId": 1041,
						"contract": "contracts/FYJ_STAKINGPOOL.sol:LPTokenPool",
						"label": "starttime",
						"offset": 0,
						"slot": "7",
						"type": "t_uint256"
					},
					{
						"astId": 1045,
						"contract": "contracts/FYJ_STAKINGPOOL.sol:LPTokenPool",
						"label": "periodFinish",
						"offset": 0,
						"slot": "8",
						"type": "t_uint256"
					},
					{
						"astId": 1049,
						"contract": "contracts/FYJ_STAKINGPOOL.sol:LPTokenPool",
						"label": "rewardRate",
						"offset": 0,
						"slot": "9",
						"type": "t_uint256"
					},
					{
						"astId": 1052,
						"contract": "contracts/FYJ_STAKINGPOOL.sol:LPTokenPool",
						"label": "lastUpdateTime",
						"offset": 0,
						"slot": "10",
						"type": "t_uint256"
					},
					{
						"astId": 1055,
						"contract": "contracts/FYJ_STAKINGPOOL.sol:LPTokenPool",
						"label": "rewardPerTokenStored",
						"offset": 0,
						"slot": "11",
						"type": "t_uint256"
					},
					{
						"astId": 1060,
						"contract": "contracts/FYJ_STAKINGPOOL.sol:LPTokenPool",
						"label": "userRewardPerTokenPaid",
						"offset": 0,
						"slot": "12",
						"type": "t_mapping(t_address,t_uint256)"
					},
					{
						"astId": 1065,
						"contract": "contracts/FYJ_STAKINGPOOL.sol:LPTokenPool",
						"label": "rewards",
						"offset": 0,
						"slot": "13",
						"type": "t_mapping(t_address,t_uint256)"
					}
				],
				"types": {
					"t_address": {
						"encoding": "inplace",
						"label": "address",
						"numberOfBytes": "20"
					},
					"t_contract(IERC20)76": {
						"encoding": "inplace",
						"label": "contract IERC20",
						"numberOfBytes": "20"
					},
					"t_mapping(t_address,t_uint256)": {
						"encoding": "mapping",
						"key": "t_address",
						"label": "mapping(address => uint256)",
						"numberOfBytes": "32",
						"value": "t_uint256"
					},
					"t_uint256": {
						"encoding": "inplace",
						"label": "uint256",
						"numberOfBytes": "32"
					}
				}
			},
			"userdoc": {
				"kind": "user",
				"methods": {
					"DURATION()": {
						"notice": "时间周期 = 180天"
					},
					"lastTimeRewardApplicable()": {
						"notice": "如果没有到达结束时间,返回当前时间"
					},
					"lastUpdateTime()": {
						"notice": "最后更新时间"
					},
					"lpt()": {
						"notice": "GoCash LP Token合约地址"
					},
					"periodFinish()": {
						"notice": "结束时间"
					},
					"rewardPerTokenStored()": {
						"notice": "储存奖励数量"
					},
					"rewardRate()": {
						"notice": "每秒奖励数量"
					},
					"rewards(address)": {
						"notice": "用户未发放的奖励数量"
					},
					"starttime()": {
						"notice": "开始时间"
					},
					"userRewardPerTokenPaid(address)": {
						"notice": "每个质押Token支付用户的奖励"
					}
				},
				"notice": "周期180天",
				"version": 1
			}
		}
	}
}